:020000040000FA
:0600000002102C0205FFB6
:03002B00020DBE05
:03003300020B5F5E
:030053000205346F
:03006B00020B394C
:100083000205930100F0FF0700080000FFFF0000D6
:10009300070400000003000147726F757000FF043E
:1000A30000100502640A2FAC092FAC09C0C1C2C3FA
:1000B300C4C5C6C7C8C9CACBCCCDCECF5A6967425F
:1000C3006565416C6C69616E636530390100FFFFE2
:1000D300F2E0A161000000000001C4832012261297
:1000E30032122C120020FD000206FFFF1E0600083C
:1000F3000008003C18000000015C1B621B681B6EBB
:100103001B000000000000000000000000000000D1
:1001130000000000000000000008040101010106C6
:100123000E8200000001040000A218000000E80392
:100133000000FFFF1C190188130000E8030000649E
:10014300006400B801A0BB0D00A0BB0D00020202B9
:1001530007040101051E02051E020A0A0101010826
:1001630009080103B80B02803E0102FEFFE8030AFF
:10017300050001FFFF010A011401E001050301016C
:10018300FF0F10FEFF053300000000D9310000000F
:1001930000FF000000FF0012103C601D12104B70A6
:1001A30005191919801A120EE2701F120ECEC370B0
:1001B30003E66733191919400718181822080808A5
:1001C30074FFF618F618F618F622120ECE60171200
:1001D30010D9702192F01210E27019501720F01408
:1001E300080808090909E7F61819E7F61819E7F6E0
:1001F3001819E7F6221210E260E6E869701F080892
:10020300E62480F608E436F618547FB47F0CE654EF
:10021300806007F6E418F618F622181822E9C6CC0F
:1002230008C6CD08C6CE08C6CFC0E0E8C0E0EAC025
:10023300E0EBC0E009E9F809E7FA09E7FBE6F9189A
:10024300E6F8C3EC98ED99EE9AEBC2E7F5F0EFC24E
:10025300E795F0500E600CEBCFFBEACEFAE9CDF94F
:10026300E8CCF8EAA2E7D2E7FAEB33FB13F5F0EEBA
:10027300A2E7D2E7FEEF33FFC5F013A2E730E601B2
:10028300B313C5F0C3C0E0C0F07F00C39BFB605E47
:100293009418600F401D14601AD0E023F9D0E0F8E1
:1002A30002037B8AF0E9486003D2F0E4AFF0FAF985
:1002B300F8803BEB30E40D89F0EA6003D2F0E4AF61
:1002C300F0F9CAF8EB30E30D88F0EF6002D2F0AF3B
:1002D300F0E4CAC9F8EB54076014FBC3EA13FAE964
:1002E30013F9E813F8EF135002D2E0FFDBEDD0E08F
:1002F300C0E030E739C3E49FFFF5F0EC98FC42F02F
:10030300ED99FD42F0EE9AFE42F0D0E0F9D0E0F82C
:10031300E5F0607AE923F9EE20E742D8028067C36B
:10032300EF33FFEC33FCED33FDEE33FE80EAEC28D4
:10033300FCED39FDEE3AFED0E023F9D0E0F84002BF
:10034300801BC3EE13FEED13FDEC13FCEF13500201
:10035300D2E0FF08B800067F7F74FF802EEF335092
:10036300178CF020F00260100CBC000C0DBD0008CF
:100373000EBE000408E860DFE933E813FFEE231341
:10038300FE4F4D4C8008E95480FFE4FEFDFCEE3344
:10039300EF33F47004FCFD7E80D0E0FBD0E0FAD0B4
:1003A300E0F8D0E0CFC618CEC618CDC618CCC6F933
:1003B300220012103C604F12104B6012E75480660B
:1003C300F6120EE270111210D9703B090909F4F606
:1003D30018F618F618F622120ECE70151210E2084F
:1003E300080860EAE6447FF618768018E4F618F603
:1003F300221210E260161210D97012E4F608F60801
:10040300F608E65480F609090918181822EAC0E02C
:10041300EBC0E0ECC0E0EDC0E0E687F0A4FBACF09D
:1004230008E687F0A42CFCE435F0FA1809E687F017
:10043300A42C4B60027401CA35F0FCE433FB09E6DB
:1004430087F0D2F7A42CCB35F0FC1908E687F0A48B
:100453002BCC35F0FBE433FD0819E687F0D2E7A493
:100463002C4ACB35F0CD3400FC09E687F0D2E7A463
:100473002DCC35F0FDE433FA0918E687F0D2F7A462
:100483002CCD35F0CA3400FC08E687F0D2E7D2F76A
:10049300A42ACC35F07A7E20E70B0ACB33CBCD33BD
:1004A300CDCC33CC33CB3350147004ED30E00ED2CB
:1004B300F1E4CD3DCDCC3CCC3B5005DA05C2F1EBAC
:1004C300547FC63308E63392F0FBE73309E733C3BF
:1004D3009A502D2B70190C0D4C4D70151806E6080B
:1004E300C333700D20F10AA2F013F6E418800B4019
:1004F30024E4F630F002768018F618F618F6802415
:10050300D33B14501074FFA2F013F6187680E4184E
:10051300F618F6800FA2F013F618E63303F618EC7C
:10052300F618EDF6D0E0FDD0E0FCD0E0FBD0E0FA29
:1005330022C0E074F11208A5A2AFE433F509D2AFEB
:1005430085A708AFA1EF5508FE74105E600612146C
:100553001275A1EF74085E600812141875A1F78074
:1005630024EFA2E092F0E508A2E082F05017906138
:1005730098E0F890050BE0C398A2D265D0335002FF
:10058300E8F075A1FEE509A2E092AF7F02020961DE
:10059300C0E074F21208A5A2AFE433FED2AF9061BB
:1005A300A4E0F8759B00E59158540860087591F72D
:1005B3001214668023E59158541060087591EF1268
:1005C300146C8014E591A2E092F0E8A2E082F0506E
:1005D30007E0C2E0F01215B69061A3E0F8E5E95830
:1005E3005404600E12158C75E9FB906193E0A2E64A
:1005F30040F2EEA2E092AF7F01020961C0E074F223
:100603001208A5A2AFE433FED2AF9061A5E0F8E5EE
:10061300BF585404600675BFFB1215CE80D4C3E4E3
:1006230098F8E499F91206628026C3E49AFAE49BE7
:10063300FBE920E7E9120662E498F8E499F922C39A
:10064300E498F8E499F9120662E498F8E499F9C396
:10065300E49AFAE49BFB22EB20E7CFE920E7E0B939
:100663000010BB0008E88AF084F8AAF022E4FBC873
:10067300FA22EB70227B10C833C8C933C933500741
:10068300C39AC3DBF280069A50012ADBEAC833F42B
:10069300C8C933F4C9FA2275F008E4C833C8C933AA
:1006A300C933C99AC99B5004C92AC93BD5F0ECFB8D
:1006B300C833F4C8E4C9FA221206FB20F01430E769
:1006C3002B74FFFCFBFA747F8022E4FCFBFA74803A
:1006D300801AB48008BC00F2BB00EF800F50EBF926
:1006E300E4C39AFAE49BFBE49CFCE499C6CC18C6E9
:1006F300CB18C6CA18C6F922E4C9C608CAC608CBAD
:10070300C6D3330308CCC63392F0C3947F402E94F0
:10071300184019C9B90704CACBCC225025C309CA4A
:1007230033CACB33CBCC33CC33D9F422F4600DC9E9
:10073300CCC313CB13CBCA13CAD9F6CC22E4FCFB2C
:10074300FA2214FCFBFA22080808EAC0E0EBC0E036
:1007530086F0E7A4FA180986F0E7A42AFA180986AE
:10076300F0E7A42AFA180986F0E7A42AFA1986F012
:10077300E7A4FBE5F02AFA190886F0E7A42BFBE5CA
:10078300F03AFA190886F0E7A42BFBE5F03AFA18D9
:10079300180986F0E7A4C5F02BFBE43AFA1908E739
:1007A300C5F0C6A426F6E5F03BFBE43AFA1886F05A
:1007B300E7A4F6E5F00826F6E43B08F6E43A08F683
:1007C300D0E0FBD0E0FA22E4CFC0E0E4CEC0E0E426
:1007D300CDC0E0E4CCC0E075F020E626F608E633B1
:1007E300F608E633F608E633F6181818EC33FCED92
:1007F30033FDEE33FEEF33FFC3EC9709ED9709EEBC
:100803009709EF97191919400FFFEC97FC09ED971A
:10081300FD09EE97FE191906D5F0BFECF709EDF7C0
:1008230009EEF709EFF7191919D0E0FCD0E0FDD074
:10083300E0FED0E0FF222518C582C0E0E51934FFB1
:10084300C583C0E0E518C3958224F810AF088583FB
:10085300198582188008858319858218D2AFCEF056
:10086300A3E520F0A37808E608F0A3DEFAEFF0A3EF
:10087300E58124FAF8E608F0A3E608F0A3E608F019
:10088300A30808E608F0A3E608F0A315811581D0B4
:10089300E0FED0E0F8158115811581E8C0E0EEC0D7
:1008A300E022C0D02518C582C0E0E51934FFC58316
:1008B300C0E0E518C3958224F310AF08858319853A
:1008C30082188008858319858218D2AFC8F0A3E9FE
:1008D300F0A3EAF0A3EBF0A37908E709F0A3D8FAB1
:1008E300ECF0A3EDF0A3EEF0A3EFF0A3D0E0F0A3C0
:1008F300D0E0F0A3D0E0F0A3E520F0A3E5F0F0A36F
:1009030022E9799EC608CAC608CBC608CCC6C370FE
:10091300207996CACBCC7019798ECBCC701379869B
:10092300CC700EF9802ACA33CACB33CBCC33CC3349
:100933001930E7F2CCCBCA3350147004EA30E00D1F
:10094300E4CA3ACACB3BCBCC3CCC500209C3E91333
:10095300C6CC182313C6CB18C6CA18C6F9228519E4
:1009630083851882E0C0E0A3E0F9A3E0FAA3E0FBEB
:10097300A37808E0F608A3DFFAE0FCA3E0FDA3E018
:10098300FEA3E0FFA3E0C0E0A3E0C0E0A3E0F5D056
:10099300A3E0F520A3E0A3F5F010AF088583198544
:1009A30082188008858319858218D2AFD082D083BC
:1009B300D0E0F8D0E0321210C4B900030209F8E421
:1009C300900401783379198002F0A3D8FCD9FA7A1C
:1009D300337B1C900086781579028015E493A3ADD0
:1009E30082AE838A828B83F0A3AA82AB838D828EAD
:1009F30083D8E9D9E77582607583FC7406120D31DB
:100A03007582EE75832E7400120D31E47375F01048
:100A13008E1A8F1B85821F85831E851882851983F5
:100A2300E0CEA3E0CF851F82851E83EBC9EAC8ED24
:100A3300CBECCAC3E833C8E933C9EA33CAEB33CBD7
:100A4300C3EA9EF51DEB9FF51CB35004AB1CAA1D16
:100A5300EC33CCED33CDD5F0DAAE1AAF1B22D08315
:100A6300D082ECC0E0EDC0E0E493A3FCE493A3FDEB
:100A7300ED4C600D120B7DEC24FFFCED34FFFD808B
:100A8300EFE493A3FCE493A3FDED4C600D120C1A69
:100A9300EC24FFFCED34FFFD80EFD0E0FDD0E0FC63
:100AA300E493A3C0E0E493C0E022D083D082E9C002
:100AB300E0E493A3C386F0C5F095F0F908E493A3AB
:100AC30086F0C5F095F0700BE493A3C3994005E954
:100AD300048002A3E475F002A42582F582E5F035D3
:100AE30083F583D0E0F9E493A3C0E0E493C0E0226C
:100AF300851983851882E0A3FEE0A3F5207808E03A
:100B0300A3F608DFFAE0A3FFE0A3C0E0E0A3C0E0A0
:100B1300E0A3C0E0E0A3C0E0E0A3C0E010AF08851D
:100B230082188583198008858218858319D2AFD0EE
:100B330083D082020D37C0E074F21208A5A2AFE49D
:100B430033FED2AFE589A2E1500312132275890067
:100B5300C2C5EEA2E092AF7F01020961C0E074F268
:100B63001208A5A2AFE433FED2AFE58BA2E0500397
:100B7300121322758B00C2E880D8C0E0C3E49396B9
:100B8300087401939618400FE49366700808740183
:100B930093661870007019A3A3C3E49396087401B5
:100BA300939618A3A3400DD0E0D0E0D0E0020A9DB5
:100BB300A3A3A3A3A3A3D0E022740480047402809C
:100BC30000CCC0E0EDC0E0E518C39CCCAD195001EA
:100BD3001D10AF068C188D1980068C188D19D2AF95
:100BE300120CB3D0E0FDD0E0FC2274028000CCC034
:100BF300E0EDC0E0E518C39CCCAD1950011D10AF6A
:100C0300068C188D1980068C188D19D2AF120C6FB3
:100C1300D0E0FDD0E0FC22C0E0C0F088F0E49366B1
:100C230070080874019366187000A8F0A3A3700BF2
:100C3300D0F0D0E0D0E0D0E0020A9DA3A3D0F0D062
:100C4300E022D083D082CCC0E0E493A36006120CF0
:100C5300D41470FAE493A36006120E511470FAD000
:100C6300E0FCE493A3C0E0E493C0E022CAC0E0E464
:100C730093A3C582CCC582C583CDC583F0A3C582AA
:100C8300CCC582C583CDC583DAE5D0E0CA22A2E70D
:100C930092D65002F40430F70663F0FF05F0B34038
:100CA3000384800384F40430D60563F0FF05F02247
:100CB300CAC0E0E0A3C582CCC582C583CDC583F09D
:100CC300A3C582CCC582C583CDC583DAE6D0E0CA8D
:100CD30022C0E0E493A3D39C5010E493A3C39C40AD
:100CE3000AD0E0D0E0D0E0020C62A3A3A3D0E022BC
:100CF300C008C3E096F50808A3E096420808A3E0FD
:100D030096420808A3E09645087001D3D0082270E4
:100D130009080808226016181818C6C333C608C67F
:100D230033C608C633C608C633C6D5E0EA22C09F19
:100D3300F59FE473D09F22D083D082C09FE493C0F9
:100D4300E0740193C0E0740293F59F22C5822518D5
:100D5300C582C583351910AF07F519858218800739
:100D6300F519858218D2AFC583222518F58210AFF5
:100D730008F518400C15198008F51840021519D20A
:100D8300AF8519832200C0D0251810AF08F518507D
:100D93000C05198008F51850020519D2AFD0D022DE
:100DA3007404800A74038006740280027401C0E034
:100DB300F404120D6DD0E012108722C0E0C0D0E819
:100DC300C0E0A8A8D2AFC2C7E8A2E792AFD0E0F8CC
:100DD300D0D0D0E032BB0102E722C082C083898237
:100DE3008A83BB0003E08002E493D083D082226035
:100DF30016080808C6C313C618C613C618C613C6F2
:100E030018C613C6D5E0EA22C3E0C696F608A3E0E7
:100E1300C696F608A3E0C696F608A3E0C696F622A1
:100E23002518F8E43519F9222518FAE43519FB22B7
:100E33002518FCE43519FD22251810AF08F51840D4
:100E43000C15198008F51840021519D2AF22C0E01D
:100E5300E493A36C7009D0E0D0E0D0E0020C62A36D
:100E6300A3D0E022C3E09608A3E09608A3E0960887
:100E7300A3E096A2D265D03322E76670100809E793
:100E830066700A0809E76670040809E76622E066E7
:100E9300701008A3E066700A08A3E066700408A354
:100EA300E06622C3E096F008A3E096F008A3E0967C
:100EB300F008A3E096F022C3E697F60809E697F652
:100EC3000809E697F60809E697F622191919E709BA
:100ED30047097009E727097005E733F42209221847
:100EE3001818E60846087009E626087005E633F484
:100EF300220822C3E493960874019396087402931C
:100F030096087403939622E657F60809E657F608FF
:100F130009E657F60809E657F622E056F008A3E07B
:100F230056F008A3E056F008A3E056F022E647F691
:100F33000809E647F60809E647F60809E647F622F0
:100F4300E627F60809E637F60809E637F60809E65C
:100F530037F622E026F008A3E036F008A3E036F0E7
:100F630008A3E036F022E046F008A3E046F008A329
:100F7300E046F008A3E046F022E493F608740193F8
:100F8300F608740293F608740393F622E026F60833
:100F9300A3E036F608A3E036F608A3E036F622E02F
:100FA30056F608A3E056F608A3E056F608A3E05663
:100FB300F622700422600D18C6C333C608C633C6B2
:100FC300D5E0F41822E046F608A3E046F608A3E0CD
:100FD30046F608A3E046F622E4C396F608E496F63E
:100FE30008E496F608E496F622600D08C6A2E71315
:100FF300C618C613C6D5E0F322C6F4C608C6F4C69F
:1010030008C6F4C608C6F4C622C3E7960809E796DD
:101013000809E7960809E79622C3E09608A3E09635
:1010230008A3E09608A3E0962275D00075813F756A
:101033001801751904000209B9E6084608C31346E6
:1010430008336002E633F422E7094709C31347096B
:10105300336002E733F422600C08C6C313C618C614
:1010630013C6D5E0F422E6F008A3E6F008A3E6F001
:1010730008A3E6F022E0F608A3E0F608A3E0F608EA
:10108300A3E0F622CAC0E0E6F0A308DAFAD0E0FA59
:1010930022E0FAA3E0FBA3E0FCA3E0FD22EAF0A335
:1010A300EBF0A3ECF0A3EDF022E0F8A3E0F9A3E06A
:1010B300FAA3E0FB22E8F0A3E9F0A3EAF0A3EBF044
:1010C30022E5C754F84401F5C77901222518F582B2
:1010D300E43519F58322E72719471947194722E60B
:1010E3002618461846184622C2AF75D69F0200003E
:1010F30022120D3A158905120D3AA08905120D3AEF
:10110300418A05120D3AA48A05120D3AE88A05129E
:101113000D3A958B05120D3A028C05120D3A358C5A
:1011230005120D3A438D05120D3A678D05120D3ADE
:10113300CB8D05120D3AAF8E05120D3AB290051202
:101143000D3A549105120D3ADE9305120D3A62944D
:1011530005120D3AE39605120D3A1D9705120D3A45
:10116300829805120D3A8C9805120D3AD298051201
:101173000D3AA8A506120D3A24A606120D3A57A653
:1011830006120D3A85A606120D3AC8A806120D3AA4
:10119300E7A806120D3A2CA906120D3AC2A90612A7
:1011A3000D3A0EAA06120D3AA0AA06120D3A78AB12
:1011B30006120D3AC9AB06120D3A2EAC06120D3AC1
:1011C300ABAC06120D3AE1AC06120D3A2CAD061289
:1011D3000D3A52AD06120D3AE2AD06120D3A79AE52
:1011E30006120D3AC5AE06120D3AF6AE06120D3AC8
:1011F3002DAF06120D3AB5B006120D3A7FB10612A5
:101203000D3A59B206120D3A75E202120D3AA8E2EE
:1012130002120D3AF0E202120D3AFCE402120D3A08
:101223004CE702120D3A7FE702120D3A4EEA021220
:101233000D3AE5EC02120D3A70ED02120D3AECF0A4
:1012430002120D3AB8F102120D3A29F302120D3AC5
:10125300ABF302120D3A7CF402120D3AB9F6021204
:101263000D3A4EF702120D3A30F902120D3A3FFCD5
:1012730002120D3A42FC02120D3A55FC02120D3ACB
:10128300A2FC02120D3ABB9306120D3A28980612DD
:101293000D3A8C9806120D3AAD9906120D3A759DCA
:1012A30006120D3AF2A006120D3ACCA206120D3A1E
:1012B3001AA306120D3AD5A406120D3A9B8D0712F6
:1012C3000D3AAC8D07120D3A4A8E07120D3A628E13
:1012D30007120D3AFDFF02120D3AE7FF02120D3A13
:1012E300118F07120D3A218F07120D3A398F07120A
:1012F3000D3AA18F07120D3AFAFE06120D3A7DFF41
:1013030006120D3AE3FF06120D3A44FE04120D3A9B
:1013130063FE04120D3AD0FE04120D3A15FF0412B7
:101323000D3A6EFF04120D3AB5DB06120D3ACADB15
:1013330006120D3AD5DC06120D3A06DD06120D3AF9
:1013430020DD06120D3A96DD06120D3A7BDE0612FB
:101353000D3AEFDE06120D3A09DF06120D3A20DFD1
:1013630006120D3A2EDF06120D3A46DF06120D3A2B
:101373005BDF06120D3A80DF06120D3AD0DF06124C
:101383000D3A4EEF06120D3A5CEF06120D3AD5EF09
:1013930006120D3AA9F006120D3A7BF206120D3A27
:1013A300E0F206120D3AC59007120D3A1CD206124E
:1013B3000D3A48D206120D3AB9D406120D3AF9D4B1
:1013C30006120D3A39D506120D3A4DD506120D3ACD
:1013D30066D506120D3A57D606120D3AFCD60612FA
:1013E3000D3A10D706120D3ACD8807120D3AF1883F
:1013F30007120D3A0A8907120D3A3C8907120D3A72
:101403006C8907120D3A998907120D3AFB89071265
:101413000D3A0A8A07120D3A148A07120D3A218AE5
:1014230007120D3ABBF906120D3ADBF906120D3A13
:101433001AFA06120D3A35FA06120D3A54FA061242
:101443000D3ABAFA06120D3AC3FA06120D3A20FB08
:1014530006120D3A2FFB06120D3A53FB06120D3AF4
:1014630014FC06120D3A21FC06120D3A32FC061248
:101473000D3AF48F07120D3A0C9007120D3A38907B
:1014830007120D3A66D706120D3AC0D806120D3A66
:10149300CED806120D3AE1D806120D3AF6D8061246
:1014A3000D3A0BD906120D3A1ED906120D3A92D9EE
:1014B30006120D3AF7D906120D3A99DA06120D3AC9
:1014C3005DDB06120D3A6DDB06120D3A7CDB06126C
:1014D3000D3A788E07120D3A9C8E07120D3AC48E80
:1014E30007120D3AEC8E07120D3A838207120D3A5A
:1014F300AA8207120D3AC88207120D3A3B830712DC
:101503000D3A1EFD02120D3A37FD02120D3A43FD4C
:1015130002120D3A57FD02120D3A75FD02120D3AF1
:101523007FFD02120D3A89FD02120D3A9CFD021253
:101533000D3A22FE02120D3A97FE02120D3AC6FE32
:1015430002120D3A14FF02120D3A63FF02120D3A12
:101553007EFF02120D3A88FF02120D3A99FF021222
:101563000D3ADCFF02120D3AB5FF04120D3A3DF6B7
:1015730005120D3A67F605120D3A84F605120D3A77
:1015830097F605120D3AADF605120D3A0BF7051253
:101593000D3A43F705120D3A37FB05120D3A7CFC61
:1015A30005120D3AAFFC05120D3A12FD05120D3A64
:1015B30072FE05120D3A9AFE05120D3AAFFE0512A0
:1015C3000D3ABFFE05120D3A03FF05120D3A5EFFF9
:1015D30005120D3A6EFF05120D3A6B8B07120D3A89
:1015E300858B07120D3AAD8B07120D3AC68B071286
:1015F3000D3AEA8B07120D3A088C07120D3A1F8C2D
:1016030007120D3A4D8C07120D3A688C07120D3AEA
:10161300819007120D3AF2F206120D3A02F3061206
:101623000D3A07F406120D3A39F406120D3A69F42D
:1016330006120D3A8CF406120D3AA3F406120D3A73
:10164300DDF406120D3A42F506120D3A84F5061240
:101653000D3AC3F506120D3AF4F506120D3A1FF6CC
:1016630006120D3AF7FF01120D3AFAFF01120D3A75
:10167300FDFF01120D3A008007120D3A2080071278
:101683000D3A348107120D3A558207120D3A4EFE78
:1016930001120D3A84FE01120D3A9AFE01120D3A1F
:1016A300DCFE01120D3AECFE01120D3A30FF01127D
:1016B3000D3ACAFF01120D3AD4FF01120D3A4FC879
:1016C30006120D3A59C806120D3A84C806120D3A8D
:1016D300CDC806120D3A36C906120D3A53C9061281
:1016E3000D3A6CC906120D3A0ECA06120D3A8DCC8C
:1016F30006120D3A96CC06120D3ADBCC06120D3AC1
:1017030004CD06120D3A11CD06120D3A82CD061202
:101713000D3A0DCE06120D3A5BCE06120D3A99CE56
:1017230006120D3AFECE06120D3A21CF06120D3ADD
:1017330098CF06120D3AEFCF06120D3A2AD00612B1
:101743000D3A5FD006120D3A71D006120D3A83D0CE
:1017530006120D3AA2D006120D3AABD006120D3A7C
:1017630066D106120D3AB2D106120D3AF0D1061225
:101773000D3A2B8A07120D3AD48407120D3A0A85C3
:1017830007120D3A528507120D3AAB8607120D3A2E
:10179300008006120D3A248106120D3A5E8106126C
:1017A3000D3A088306120D3A328306120D3AA785C5
:1017B30006120D3AE78506120D3A7D8706120D3A99
:1017C3001A8806120D3A6C8806120D3A0F89061212
:1017D3000D3A478906120D3A898906120D3AF88A9D
:1017E30006120D3A468C06120D3A778E06120D3A02
:1017F300A58E06120D3ACC8E06120D3AD58E061220
:101803000D3A2C8F06120D3ABE8F06120D3AEB924B
:1018130006120D3A6E9306120D3AD7FF01120D3AD6
:10182300EDFF01120D3A9EFF05120D3A05E0061277
:101833000D3A1BE006120D3ABFE006120D3AFEE028
:1018430006120D3A1BE106120D3A4CE106120D3A4F
:1018530099E106120D3ACCE106120D3A07E206129F
:101863000D3AFCE306120D3A9B8C07120D3AFA8CE3
:1018730007120D3A388D07120D3A798D07120D3A7A
:101883000A8707120D3A258707120D3A5787071261
:101893000D3A848707120D3AA98707120D3AD487A8
:1018A30007120D3AFF8707120D3A2F8807120D3AD8
:1018B300A13600120D3AAD3600120D3AF13800127E
:1018C3000D3AFB3800120D3A893900120D3AC53929
:1018D30000120D3AB13A00120D3A0F3B00120D3AC5
:1018E3005C3B00120D3AD13B00120D3A2F3C001223
:1018F3000D3A653C00120D3AE23C00120D3A933E5C
:1019030000120D3A604000120D3A4B4100120D3A9D
:101913003F4200120D3A984400120D3AF24500126C
:101923000D3A894600120D3AD84700120D3AC648BF
:1019330000120D3A2A4A00120D3ACA4E00120D3A0D
:10194300B24F00120D3A435000120D3A6850001284
:101953000D3A8D5000120D3A275100120D3A3D51A8
:1019630000120D3A5F5100120D3AD05100120D3A98
:10197300EF5100120D3A185200120D3A185300128B
:101983000D3A1C5400120D3AAE5500120D3ACF55C4
:1019930000120D3A755600120D3ABD5600120D3A5B
:1019A300275700120D3AA85700120D3A0C5800128F
:1019B3000D3A685800120D3A145900120D3A805925
:1019C30000120D3AB35900120D3A1B5A00120D3A88
:1019D300745B00120D3AFC5C00120D3AA35D001219
:1019E3000D3AFE5F00120D3A4F6000120D3A5F6030
:1019F30000120D3AAC6000120D3A186100120D3A54
:101A0300486100120D3AB76100120D3A616200128B
:101A13000D3A536400120D3AD86600120D3AE2678C
:101A230000120D3AFA6B00120D3ABF6C00120D3A18
:101A3300DD6D00120D3A896F00120D3AA5BA04123A
:101A43000D3A34BB04120D3A9ABB04120D3A79BC19
:101A530004120D3A74BD04120D3AEBBD04120D3A93
:101A630029BF04120D3ADCBF04120D3AA7C10412B8
:101A73000D3AA2C204120D3ABFC204120D3ACCC3EE
:101A830004120D3A12C504120D3AB4C504120D3AEC
:101A9300E6C804120D3AE2CA04120D3A6DCB0412E1
:101AA3000D3AC7CB04120D3A15CC04120D3A8ACC69
:101AB30004120D3A17CD04120D3A3CCD04120D3A1F
:101AC300BCD304120D3A0ED604120D3A95D7041264
:101AD3000D3A6BD804120D3AB57100120D3A3F72EC
:101AE30000120D3AB67200120D3AC67500120D3A85
:101AF300497700120D3A797900120D3ABE7A001235
:101B03000D3A197D00120D3A477D00120D3A857D7D
:101B130000120D3AFE7D00120D3AA47E00120D3A1A
:101B2300B57E00120D3ABC7E00120D3A4F7F0012B3
:101B33000D3AA17F00120D3A3B9007120D3A09E4CA
:101B430006120D3A90E406120D3AC8E506120D3A54
:101B530051E606120D3A6AE606120D3AB0E606128F
:101B63000D3AC1E606120D3ADDE606120D3AE0E63D
:101B730006120D3A07E706120D3AADE706120D3AC3
:101B83009BFF03120D3AA89A05120D3AD79A051234
:101B93000D3A539B05120D3AA19C05120D3A879DF0
:101BA30005120D3A009F05120D3A259F05120D3AB5
:101BB300779F05120D3AF99F05120D3A40A00512C1
:101BC3000D3A53A005120D3AAAA005120D3A70A1C1
:101BD30005120D3ADCA105120D3A06A205120D3AC3
:101BE3004FA205120D3AD4A305120D3AADA4051266
:101BF3000D3AF6A505120D3AC9A605120D3A51A7DD
:101C030005120D3A94A705120D3AAEA705120D3A27
:101C1300F5A705120D3A15A805120D3AD0A805121D
:101C23000D3AF3A905120D3A4DAA05120D3A91AAE0
:101C330005120D3A8DAB05120D3A09AE05120D3A98
:101C430028AE05120D3A9DAE05120D3AC2AE05122D
:101C53000D3A3FAF05120D3A05B005120D3A42B0E9
:101C630005120D3ABBB005120D3AAFB105120D3A8C
:101C7300B2B105120D3ABCB105120D3AC6B1051247
:101C83000D3AD9B105120D3A55B205120D3A8BB280
:101C930005120D3A9EB205120D3ACAB205120D3A5B
:101CA300F1B205120D3A15B305120D3A50B30512F0
:101CB3000D3AC2B305120D3AEAB305120D3AF4B365
:101CC30005120D3A30B405120D3A65B405120D3AFA
:101CD3007BB405120D3AA48F07120D3ABC8F07127D
:101CE3000D3AFAFF02120D3A0EF704120D3A5DF7A0
:101CF30004120D3AFDF804120D3AB8FA04120D3A23
:101D0300FAFA04120D3A19FC04120D3A23FD0412D7
:101D13000D3A45FD04120D3A8FFD04120D3A10FEE3
:101D230004120D3A7CD904120D3A9FD904120D3ACC
:101D33000ADB04120D3A53DB04120D3AADDB041235
:101D43000D3A13DC04120D3A16DC04120D3A59DC79
:101D530004120D3ADDDC04120D3A68DD04120D3A6B
:101D63006BDD04120D3AFDDD04120D3A40DE041260
:101D73000D3AD6E204120D3A68E404120D3AAFE4C8
:101D830004120D3A28E804120D3A5FE904120D3AE1
:101D93003CEA04120D3ACAEA04120D3AF1EA0412BB
:101DA3000D3A76ED04120D3A25EF04120D3AD3EFF6
:101DB30004120D3A60F004120D3A4CF104120D3A7C
:101DC30003F304120D3A12F404120D3A79F50412D6
:101DD3000D3AC6F504120D3A5BF604120D3A1FE1F3
:101DE30005120D3ABFE105120D3A29E205120D3A2B
:101DF30042E205120D3AC4E205120D3A1AE3051246
:101E03000D3A67E305120D3AC6E305120D3AD1E424
:101E130005120D3AE6E705120D3A18E905120D3AD7
:101E230099E905120D3A98EB05120D3A45EC0512A6
:101E33000D3ABAEC05120D3A15EE05120D3AFAEE0B
:101E430005120D3AC5F005120D3A2DF205120D3AA1
:101E53003DF305120D3ADFF305120D3AFEF40512B8
:101E63000D3A3BD903120D3AAFD903120D3AF7D904
:101E730003120D3A35DA03120D3A84DA03120D3ADE
:101E8300CEDA03120D3A06DB03120D3A84DB03129A
:101E93000D3ADEDB03120D3A3ADD03120D3AC9DDCA
:101EA30003120D3AE0DE03120D3A08DF03120D3A76
:101EB3004EE003120D3A5FE003120D3A77E003128E
:101EC3000D3A81E103120D3A4BE203120D3A58E346
:101ED30003120D3A7CE303120D3A93E303120D3A16
:101EE300B4E303120D3AD6E303120D3AF3E30312FC
:101EF3000D3ACFE403120D3A27E503120D3AB9E781
:101F030003120D3A08E803120D3A19C606120D3AE8
:101F130006E903120D3A3CE903120D3A54EA03129F
:101F23000D3AD1EA03120D3A3EEB03120D3A7AEB66
:101F330003120D3AE3EB03120D3A9DEC03120D3A33
:101F43005BEE03120D3A5CEF03120D3AE1F003125C
:101F53000D3ACCF203120D3A2FF503120D3AD5F6D2
:101F630003120D3AA3F703120D3A09F803120D3ABF
:101F730020F803120D3A10F903120D3AFCF903127B
:101F83000D3A69FA03120D3A77F606120D3AC48830
:101F930005120D3AD9F806120D3A3DF906120D3A1B
:101FA300D2E706120D3AF0E706120D3A34E80612AC
:101FB3000D3A5AE806120D3A80E806120D3A98E8EF
:101FC30006120D3AB0E806120D3A13E906120D3A5D
:101FD30055E906120D3A77EA06120D3A80EA06121F
:101FE3000D3A89EA06120D3A92EA06120D3A9CEA74
:101FF30006120D3A06FB03120D3A21FF03120D3AA6
:102003002FFF03120D3A34FF03120D3A87FD061218
:102013000D3A349107120D3AFD9007120D3AD67F0F
:1020230000120D3A609107120D3A008003120D3A27
:10203300328003120D3A9E8003120D3A3981031246
:102043000D3AD88103120D3A1D8203120D3A3F82D5
:1020530003120D3A588203120D3A7E8203120D3A8F
:10206300A08203120D3ADE8203120D3A2283031279
:102073000D3A448303120D3AA68303120D3A6D847D
:1020830003120D3A248503120D3A968503120D3A75
:10209300688603120D3AB28603120D3A05870312BE
:1020A3000D3A6B8703120D3AA58703120D3AF78792
:1020B30003120D3A138803120D3A3E8803120D3AA8
:1020C300458A03120D3A998B03120D3ABB8B031207
:1020D3000D3AEF8B03120D3A108C03120D3A1F8C3D
:1020E30003120D3A2A8C03120D3ADA8C03120D3ABD
:1020F300438D03120D3AF08D03120D3A288E03120D
:102103000D3AEE8E03120D3AFB8F03120D3A4590F2
:1021130003120D3AD49003120D3A389103120D3A7B
:10212300739103120D3ADF9303120D3A33950312A1
:102133000D3A6C9803120D3A399903120D3AC79967
:1021430003120D3AF09903120D3A629A03120D3AF3
:10215300F69A03120D3A549B03120D3A469C03124E
:102163000D3A689C03120D3AC49D03120D3ADD9D8E
:1021730003120D3AF09D03120D3A5F9E03120D3ABE
:102183006B9F03120D3A789F03120D3A819F03123E
:102193000D3A59A103120D3A7FA203120D3A8FA2F1
:1021A30003120D3A91A303120D3A08A403120D3A38
:1021B30037A403120D3A3DA503120D3A83A503126A
:1021C3000D3A4FA703120D3A27AB03120D3A31AB69
:1021D30003120D3A45AB03120D3A4FAB03120D3AFE
:1021E30059AB03120D3A63AB03120D3A7CAB0312E6
:1021F3000D3A86AB03120D3AFAAB03120D3A05AC56
:1022030003120D3A2AAC03120D3A35AC03120D3A00
:1022130083AC03120D3A8DAC03120D3A98AC031242
:102223000D3ABCAC03120D3AE0AC03120D3A3CADCF
:1022330003120D3A82AD03120D3A9FAD03120D3A0C
:102243001CAE03120D3A53AE03120D3A92AE0312B3
:102253000D3ADFAE03120D3A61AF03120D3AFAAF36
:1022630003120D3ACAB103120D3A28B203120D3A02
:1022730044B303120D3A6AB303120D3AA9B403121D
:102283000D3ACFB703120D3A10BA03120D3AECBB55
:1022930003120D3A82BC03120D3AA9BE03120D3A82
:1022A30055BF03120D3A8ABF03120D3AEFBF031253
:1022B3000D3AF9BF03120D3A23C203120D3A4AC372
:1022C30003120D3A8AC303120D3A30C403120D3AB6
:1022D300C1C503120D3A4AC703120D3A6AC7031266
:1022E3000D3AC3C703120D3AC5C803120D3A0FC9FD
:1022F30003120D3A5FC903120D3A49CA03120D3A8C
:10230300BECA03120D3AD8CB03120D3A53CC0312B3
:102313000D3A58CD03120D3A03D003120D3A22D0D1
:1023230003120D3A83D103120D3A45D303120D3A2A
:1023330099D303120D3A51D403120D3A00D5031267
:102343000D3A56D503120D3A0CD603120D3AA1D607
:1023530003120D3A0DD703120D3A47D703120D3A64
:1023630078D703120D3AD4D803120D3A0080021223
:102373000D3A328002120D3A698002120D3A5282EE
:1023830002120D3A358302120D3A8D8302120D3A71
:10239300C88402120D3A148502120D3A3C880212C7
:1023A3000D3A9E8B02120D3AEB8C02120D3A818D7F
:1023B30002120D3A8D8D02120D3ABF8D02120D3AA3
:1023C300418F02120D3A4F9002120D3A7990021288
:1023D3000D3AD09002120D3A299102120D3A9591BD
:1023E30002120D3AAC9302120D3A3B9502120D3ACA
:1023F300059602120D3A439702120D3A739902128F
:102403000D3A439C02120D3A509C02120D3AD79C8E
:1024130002120D3A7F9D02120D3AC29D02120D3A2D
:102423000B9E02120D3A5F9E02120D3AC49E0212D7
:102433000D3A2C9F02120D3A499F02120D3A799FD1
:1024430002120D3AAE9F02120D3A7EA002120D3A0D
:1024530027A102120D3AABA302120D3ACBA402122A
:102463000D3AB4A502120D3A36A602120D3A58AA35
:1024730002120D3A95AA02120D3AEDAA02120D3A72
:1024830020AB02120D3AA1AB02120D3AEEAB0212CF
:102493000D3A79AC02120D3ACBAC02120D3AA2AD51
:1024A30002120D3A5BAE02120D3AF6AE02120D3A6B
:1024B3000FB202120D3A2FB302120D3AE0B6021216
:1024C3000D3AFEB702120D3A01B802120D3A30B8B6
:1024D30002120D3A36BA02120D3A0FBB02120D3A2E
:1024E30044BB02120D3A4CBC02120D3A02BD021259
:1024F3000D3AA3BE02120D3AC8BE02120D3A07BF2F
:1025030002120D3A79BF02120D3A5DC002120D3A62
:102513002AC102120D3A60C302120D3AD1C302124C
:102523000D3A11C402120D3A72C402120D3A35C8A3
:1025330002120D3A24C902120D3A0BCA02120D3AC5
:1025430083CA02120D3A45CB02120D3A43CD021251
:102553000D3A5BCD02120D3A6FCD02120D3AA7CDA3
:1025630002120D3AD5CD02120D3A5CCF02120D3A8A
:1025730067D002120D3AB9D002120D3A21D10212DC
:102583000D3AD3D102120D3A03D202120D3AE7D219
:1025930002120D3A98D302120D3A87D502120D3A60
:1025A300BCD502120D3A24D602120D3A53D70212A9
:1025B3000D3A05D802120D3A36D802120D3A4ED80A
:1025C30002120D3ADDD802120D3A91DB02120D3AD6
:1025D30069DD02120D3A85DD02120D3AA1DD021208
:1025E3000D3A6FDE02120D3A53E202120D3A95EBE9
:1025F30006120D3AD5EB06120D3A88ED06120D3A86
:1026030097ED06120D3AAEB405120D3AC5B905128F
:102613000D3A10BA05120D3A60BC05120D3AF4BD1D
:1026230005120D3A82BE05120D3AE3C005120D3AAA
:10263300E8C205120D3A3CC305120D3A4BC505120B
:102643000D3A7CC505120D3ABCC505120D3AD7C526
:1026530005120D3A32C605120D3A54C605120D3A4B
:102663005BC605120D3A73C605120D3A53C7051220
:102673000D3A32C805120D3AD28301120D3A0A847B
:1026830001120D3AE88801120D3A2E8901120D3A12
:102693007B8A01120D3AE68A01120D3A6F8C011200
:1026A3000D3A7F8F01120D3A9A9001120D3AAC9AAE
:1026B30001120D3A3F9B01120D3A919E01120D3A00
:1026C3008D9F01120D3AE89F01120D3A32A10112BA
:1026D3000D3A20A201120D3ABCA401120D3A30A604
:1026E30001120D3AB3A601120D3AB6A601120D3A24
:1026F3002BA701120D3A35A701120D3A42A7011279
:102703000D3A6DA701120D3A1DA801120D3A16A933
:1027130001120D3AC1A901120D3ADFA901120D3AB6
:10272300F8A901120D3A21AA01120D3A43AA011286
:102733000D3A98AC01120D3A5DAD01120D3AA2ADFE
:1027430001120D3A21AE01120D3ACDAE01120D3A2E
:10275300FFAE01120D3A53AF01120D3A8EAF0112C3
:102763000D3AD5AF01120D3A25B001120D3A2AB038
:1027730001120D3A7EB001120D3AAAB001120D3AC0
:1027830093B101120D3AE4B101120D3A44B20112B0
:102793000D3A9EB201120D3A39B301120D3A78B6D1
:1027A30001120D3A8AB701120D3A04B901120D3A1A
:1027B30014BC01120D3AB2BC01120D3AA8BF0112AA
:1027C3000D3A67C001120D3AABC001120D3A56C261
:1027D30001120D3A6AC201120D3A74C201120D3A86
:1027E3007EC201120D3A8AC201120D3AAFC2011222
:1027F3000D3A88C401120D3ADDC401120D3AE7C443
:1028030001120D3AF1C401120D3A66C501120D3AD7
:10281300B5C501120D3AC6C601120D3A13C701120E
:102823000D3A20C801120D3A64C801120D3A0AC9C3
:1028330001120D3AFDC901120D3AC3CA01120D3A34
:10284300E6CB01120D3A04CD01120D3AECCD011283
:102853000D3A04CE01120D3A5BCE01120D3A65CE4C
:1028630001120D3A70CE01120D3A8ECE01120D3ABD
:10287300D6CE01120D3A38CF01120D3A5FCF0112B5
:102883000D3A71CF01120D3A0CD001120D3A41D01D
:1028930001120D3A28D101120D3A6DD101120D3AF0
:1028A30053D201120D3A7AD201120D3AFDD201121E
:1028B3000D3A6ED301120D3AF7D401120D3A23D615
:1028C30001120D3AE6D601120D3AAED701120D3AB6
:1028D30038D801120D3A60D901120D3A02DA011209
:1028E3000D3A7DDA01120D3A39DB01120D3A83DB21
:1028F30001120D3ADDDB01120D3AB5DC01120D3A7E
:10290300D8DC01120D3A8BDD01120D3AADDD011257
:102913000D3A16DE01120D3A2CE001120D3A24E1B4
:1029230001120D3AE8E101120D3A1AE401120D3ACF
:1029330064E401120D3AB4E401120D3A18E50112F0
:102943000D3A7AE501120D3AA8E501120D3ACCE5EC
:1029530001120D3A01E601120D3A32E601120D3A67
:1029630065E601120D3AB5E601120D3A08E70112C8
:102973000D3A2DE801120D3ACDE901120D3A28EA7C
:1029830001120D3A51EA01120D3ADEEA01120D3A33
:102993004CEB01120D3A5AEB01120D3A7EEB011288
:1029A3000D3AD3EB01120D3AEEEB01120D3AA0EC06
:1029B30001120D3AD8EC01120D3A1BED01120D3A3A
:1029C3007EED01120D3A80EF01120D3AAAEF0112CA
:1029D3000D3AA1F001120D3AABF101120D3A5BF27F
:1029E30001120D3A39F301120D3A71F301120D3A46
:1029F30092F301120D3AD4F301120D3A36F4011297
:102A03000D3A40F401120D3A50F401120D3A8BF4D1
:102A130001120D3A6BF801120D3A58FA01120D3AF0
:102A23003EFC01120D3AD5FC01120D3A77FD01125D
:102A33000D3A968004120D3A418104120D3AEF814A
:102A430004120D3AF58204120D3A158304120D3A5D
:102A53003E8404120D3AF98504120D3A6C86041271
:102A63000D3A108704120D3A1C8804120D3A878818
:102A730004120D3AC38804120D3A068904120D3A62
:102A8300418904120D3A838904120D3A188A0412FB
:102A93000D3A948A04120D3A5E8B04120D3A3B8C64
:102AA30004120D3AD38C04120D3AED8C04120D3A34
:102AB3001D8D04120D3A4E8D04120D3A148E04121C
:102AC3000D3A248E04120D3A738E04120D3A808E41
:102AD30004120D3A898E04120D3A078F04120D3A2F
:102AE300638F04120D3AAE8F04120D3AC98F04128C
:102AF3000D3AF48F04120D3A119004120D3A1D9001
:102B030004120D3AB49104120D3ACD9104120D3A08
:102B1300529204120D3A659204120D3A84920412F1
:102B23000D3A289304120D3AA99404120D3A5C96B7
:102B330004120D3AF29604120D3AF59604120D3A68
:102B4300659704120D3A839704120D3A1A980412EA
:102B53000D3A629804120D3A659804120D3A2B99B6
:102B630004120D3A989904120D3ABE9904120D3AC3
:102B7300499A04120D3A679A04120D3AAD9A041257
:102B83000D3A619B04120D3AAB9B04120D3ADA9B8A
:102B930004120D3A379C04120D3A6C9C04120D3A40
:102BA300989C04120D3AA69C04120D3AF39C04124D
:102BB3000D3A639D04120D3AAC9D04120D3AF89D33
:102BC30004120D3A249E04120D3A2F9E04120D3A5C
:102BD3004D9E04120D3A389F04120D3A429F04127F
:102BE3000D3A7D9F04120D3A8D9F04120D3AE19F19
:102BF30004120D3AF59F04120D3A24A104120D3A62
:102C030039A104120D3AC7A104120D3A0CA2041201
:102C13000D3A98A204120D3AA3A204120D3AE5A3A9
:102C230004120D3A00A404120D3A4CA404120D3AF6
:102C3300BBA404120D3AF4A404120D3A0EA5041217
:102C43000D3A6EA504120D3A0DA604120D3A58A6BC
:102C530004120D3A28A904120D3ADAA904120D3A06
:102C630047AA04120D3A87AC04120D3A9FAC041222
:102C73000D3AA2AC04120D3AAEAC04120D3AC2AC3A
:102C830004120D3ACAAC04120D3AFDAC04120D3A0B
:102C930000AE04120D3A8DAE04120D3AFDAE0412CD
:102CA3000D3A7FAF04120D3A40B004120D3A5FB0F3
:102CB30004120D3A00B104120D3A5DB104120D3A3B
:102CC30060B104120D3AD4B104120D3A23B30412C5
:102CD3000D3A29B404120D3AB4B404120D3ACFB527
:102CE30004120D3A97B604120D3AC8B604120D3AFF
:102CF300EBB604120D3AF4B604120D3A23B70412DC
:102D03000D3AB3B704120D3A69B804120D3ADEB89E
:102D130004120D3A85B904120D3AFAB904120D3AA8
:102D230031BA04120D3A6FBA04120D3A5BC506129A
:102D33000D3ABEC406120D3A54C406120D3A39C4F4
:102D430006120D3A9BC306120D3AAFC206120D3A94
:102D5300E5C106120D3A40BF06120D3A8BBE0612AC
:102D63000D3A16BE06120D3A0EE105120D3A97887A
:102D730005120D3AF18705120D3ADEE005120D3A00
:102D830071E005120D3A7A8505120D3A308205126B
:102D93000D3AC5DE05120D3A83DE05120D3AB5DD97
:102DA30005120D3A9FDD05120D3A60DD05120D3A4D
:102DB300BADC05120D3AA9D905120D3A7CD70512D2
:102DC3000D3A4CD705120D3AF0D605120D3A8AD6B4
:102DD30005120D3A49D605120D3A7BD505120D3A67
:102DE30016D505120D3ABAD405120D3A5DD4051263
:102DF3000D3AFBD205120D3A98D205120D3AE2D1E3
:102E030005120D3ADDD105120D3A718105120D3A05
:102E1300CAD105120D3AD38005120D3A92800512DC
:102E23000D3A738005120D3A408005120D3A2B803E
:102E330005120D3A008005120D3A95D105120D3A8F
:102E4300B8CE05120D3AB5CE05120D3A9CCE051239
:102E53000D3A09C806120D3A91CE05120D3A6DCE00
:102E630005120D3A87CC05120D3A06CC05120D3A20
:102E7300C2CB05120D3AD1C706120D3A32CB051259
:102E83000D3A1CF806120D3ACBBD06120D3A72BD6F
:102E930006120D3A34BD06120D3A07BD06120D3A5D
:102EA300D3BC06120D3A72BC06120D3A5ABC061276
:102EB3000D3A2ABC06120D3AFFB806120D3AD2B6E5
:102EC30006120D3AD9B406120D3A5FB406120D3A42
:102ED3000EB406120D3AC8B306120D3A7AC706129B
:102EE3000D3A32B306120D3A27E80300000080FBC7
:102EF3008F000100271D87000100251D35000400F8
:102F0300EB1C25000200EF1C26000200F11C270029
:102F13000200F31C28000100FD1C29000100FE1C17
:102F230084000400A91986000100411C2A00010045
:102F3300FF1C2B000100001D2C000100051D2D00AE
:102F43000800B7192E000100061D2F000100071D00
:102F530030000100081D31000100091D320001008D
:102F6300BF1933000100C019340001000A1D3600E7
:102F73000100C119380001000B1D39000100041DB7
:102F830083000200231D63000100CC1964000100CB
:102F9300011D65000100021D6D000100CD197100C6
:102FA3000800AF1966000100221D43000100131D34
:102FB30044000200141D45000100161D46000200D6
:102FC300171D47000800C41948000100191D4B00D4
:102FD30001001A1D04000100261DA10001002A1D85
:102FE30037000100291D88000100281D3C00010055
:102FF300C2193D0001000C1D490002001B1D6700A2
:103003000100CE194D0002001D1D4E0001001F1DC1
:103013004F000200201D3E000100121D510001005F
:103023000E1D520001000F1D53000100111D54001D
:103033000100C3190000000000000000000021018E
:103043005218000003002103541800000400420139
:1030530032820000050042018C820000060042011A
:103063009582000007003001D18300001000420365
:1030730057180000110030036818000012001003F5
:1030830054180000FDFF2101C68303000000210343
:103093006A180300FDFF2101C68306000000100526
:1030A3006D180600FDFF2101C68302040000210103
:1030B300C283020401002901C0830204020029051E
:1030C300C8830204FDFF2105C68308000000200514
:1030D3006E180800010021016F1808001000210379
:1030E300711808001100200373180800120021034F
:1030F3007418080013002103761808001400210334
:1031030078180800FDFF2101C683040000001801A0
:103113006C180400FDFF2101C6830500FDFF21019A
:10312300C6830001363601010001020100010301DB
:10313300000104010606050200000701003408012E
:10314300000F090401010D0100FF0E080000170222
:103153000000190100FF1A0100011B0100FE1C0100
:1031630000081D0200001F010001200100012102CF
:1031730000002301000F24020000260100012701A3
:103183000008280200FF2A0100072B0102402C013E
:1031930000002D0100012E0100012F0100FF30016D
:1031A3000B1D310800003A0100083B01000F3C01F0
:1031B30000013D0100FF3E040000420400004604FC
:1031C30000004A0400004E040000520400005604AC
:1031D30000005A040000010371030103010301030A
:1031E300010301032203020301031003000300038D
:1031F300000300030003000300034203000324034E
:10320300060300030003040312032503230325031A
:103213002303040304030003000300034403000324
:103223000003230300036503210035038103000327
:103233000503000300030003000325032303030224
:1032430071023001600211027002010202020202E5
:103253008002100261023A004100630273027202AB
:103263006202430200021302380000020002040259
:1032730012020002000200020002040204023700EC
:1032830037003C02440200023900000200026502DA
:10329300000235028102000205028202830200025B
:1032A300010171010101010111010101310101015B
:1032B30001018001100161013B00140063017301EE
:1032C3007201620143010001130106013D01350052
:1032D30004011201000100010001000104010401C5
:1032E300330133013C014401320136000001000186
:1032F300650100013500810100010501820183019F
:103303000001030071003001600011007000310200
:1033130020035004800010006100000014006300CB
:1033230073007200620043000000130006000000F7
:103333000000040012000000000000000000040070
:103343000400370037003C02440000000000000086
:10335300000065000000350081000000050000004A
:103363008300000003047104020460041104700468
:10337300020402040104020410046104000414049E
:103383006304730472046204430400041304060414
:1033930000040004040412040004000400040004F4
:1033A3005104640000040004000444040004000405
:1033B300000400046504000435048104640005046A
:1033C300000483040004210010002081521C21000A
:1033D300110043810000210012002083531C2100AF
:1033E30013002083541C210014002083551C21004A
:1033F300150043818F04210016001A81561C2100F9
:1034030017001A81591C2100200018839104210000
:103413002100F1835C1C21002200F1836C1C21003C
:10342300FDFF21817C1C36000100060000000F0017
:1034330000000000000000000000000003FFFF0088
:10344300000403FFFF0000FFFF0FF4010005C404A5
:103453000320000100000B00000000000000000337
:10346300010F000000000000000000000000000049
:103473000000000000000000000000000000000049
:1034830000000000C4190C1ACA19CE18D019121A58
:10349300D0191E1AD619CE18D019121ADC19CE1843
:1034A30000000000E219CE18000000000000000038
:1034B300E819CE18EE19241AF419CE1800000000EA
:1034C3000000000000000000FA19361A001ACE1896
:1034D300FA19361A001ACE18EE19241A061ACE183B
:1034E30013009C1D1F00A21D1F80A81D00000E1E9F
:1034F30001000E1E0200481D0280421D03004E1DE6
:103503000400541D04805A1D0500601D06006C1D37
:1035130031007E1D3300841D34008A1D3600901D4A
:10352300FFFF00000A00000002000000040000008A
:103533000800000010000000200000004000000010
:1035430080000000000100000002000000040000F1
:1035530000080000001000000020000000400000F0
:1035630001B42606E42608DE260B0227101E2302DA
:10357300BA2605D22607C0260C9C260DA826640E63
:1035830021FF000007ECFDFDFDECDCDCCCBCACACAA
:103593009C9C8C7C7C6C6C5C5C5C4C4C3C3C2C2C18
:1035A3001C1C03EAF5E5D5D5C5B5A59595858575A7
:1035B300756565555545453535252515150500169C
:1035C3000F00000B150B020002220F3300000E0F39
:1035D300D0D1D2D3D4D5D6D7D8D9DADBDCDDDEDF70
:1035E3005A6967426565416C6C69616E6365303920
:1035F300C0C1C2C3C4C5C6C7C8C9CACBCCCDCECF50
:1036030000000000000000000000000000000000B7
:103613000000000406000004060001040600020482
:10362300303016181920231A1C1E3000034D4C4647
:1036330051181A2505020001191618161618230326
:1036430000303017181921301B1D1F30003C404239
:103653003A3F3F392F47300C0E020B040B0A070881
:10366300000F02040201010101090200BE040AE87D
:103673000300000000010003007F0000000E00E8CB
:1036830003040409100005030A0C041008001E0CAF
:103693002803FF080209033C0C050815041EC08219
:1036A300C083E990181FF0023C2874EE12083974A5
:1036B300B6120E3B8A088B09EB5480604E800EEEE7
:1036C300FAEFFB121934EEFAEFFB1216FA90181FF9
:1036D300E0F912170C8A0A8B0BAE0AAF0BEE4F60A0
:1036E300208E828F83E0641A60D5EEFAEFFB121806
:1036F300C8E9F974FF6960CEEEFAEFFB1217008098
:10370300CCAA08E5096480FB0238D9EA5420700387
:103713000238D5121B1A8A0A8B0BEA4B7003023844
:10372300D5EA240DF582E4350BF58312669CEE246D
:1037330002124E54126B3CE05407F8901A5BE0F50A
:103743000F8E828F83E0901A5BF0901A6F123E8582
:103753007029850882850983E024021238E3120D5B
:10376300A71258F1120D88851882851983E4F07821
:103773000C120DA77C047D00EC8044740268704C2D
:10378300850882850983E024081238E3120DA77C9B
:10379300027D007A6F7B1A1216CA7403120D888594
:1037A30018828519837402124EC12402F50CA3E01A
:1037B3003400F50D780C120DA77C087D00740412FB
:1037C30010CFAA82AB831258F9120D88E4F50CF5D9
:1037D3000D780C120DAB740B120E337402120E2BF8
:1037E3001212507402120D88740A1210CFE0A2E56F
:1037F3005022901A6FE4F0A3F074141210CFA98230
:10380300AA83890C8A0D750E00780C120DA7125825
:10381300F1120D889019F2E0F50C8E828F83E090FF
:1038230019F2F074481210CFE0F874FF686005E8ED
:10383300901C9CF0122D7AE9F98508828509831280
:103843000BC08E828F83A3E0F508750900780812F8
:103853000DABE9F5087808120DAFE4F50878081206
:103863000DAB7508017808120DAF750800780812C2
:103873000DAF7508017808120DAF750800780812AE
:103883000DAF7C217D00AA0AAB0B79F21247C5125A
:103893000D88901C9C741EF0E50C9019F2F0E50F56
:1038A300901A5BF0901A6FE510F0A3E511F0121B6C
:1038B30020121B26121B1AEA4B60179083A5120BCA
:1038C300BC7A207B0090181FE0F91218447404128C
:1038D3000D887A007B00744A120D887F0A020AF36E
:1038E300F50CA3E03400F50D750E00780C2274F787
:1038F3001208397AFF02503B74F6120839E9FEEADE
:10390300FF7A041262466038EF8A828B83A3A3A3F3
:10391300F0EE8A828B83A3A3123983E4F0A3F090A1
:10392300182E1251CA700990182EEAF0A3EB8042A8
:10393300E0F988828983A3A3A3E06F700712178A33
:1039430079008031E8FCE9FD888289831251CA70CD
:10395300E174FF6F700C8C828D8312397BE4F0A3CA
:10396300801090182E12643390182E12397BE8F0D1
:10397300A3E9F079010251EAEAF0A3EB12398322B9
:10398300F08A828B8322C082C083EA126B0B3BF5E1
:1039930083E0FA90182E8004888289831251CA60CA
:1039A3001C88828983A3A3A3E0FBEA6B600574FFF1
:1039B3006B70E588828983A3A3E0F9800279FF0213
:1039C3003C2874F21208398A088B098A828B831285
:1039D30066A71218C8E9F50A74FF697003023AACC6
:1039E3007A197B001216F48A0C8B0DAE0CAF0DEA1C
:1039F3004F7003023AAC8A828B837434126CB9EA37
:103A03002402FCE43FFD7406120CB3850882850989
:103A1300831247CBA3A3A3A31258FFA3A312719EA0
:103A230088828983A3A3A3A3A3A3EE240AFCE43F70
:103A3300FD740C120CB38508828509831266B3C02A
:103A4300E0EE2416F582E43FF583D0E0F0E50824A8
:103A53000CF8E43509F98882F5831266A7EE24177A
:103A6300F582E43FF583EAF0A3EB124FA2A3A3A3ED
:103A7300A3A3A3E0FA74066A7009EEFAEFFB122D12
:103A83008C800C74086A7010EEFAEFFB122D86EE30
:103A9300FAEFFB1216FA801188828983E4F0A3F00F
:103AA300EEFAEFFBA90A121700790102597B74F4AD
:103AB3001208398A088B09ECFEEDFF7A08123B4C99
:103AC300700479108043123BBEA3E50912404EA354
:103AD300A3A3EEF0A3EFF0740C1210CF1266A78825
:103AE300828983A3A3A3A312719E90182412404832
:103AF3009018246011123C038003EAFCEB1240434C
:103B030070F88C828D83123BB6023C2374F4120846
:103B130039123B42700479108022123C0890182617
:103B23001240489018266011123C038003EAFCEB14
:103B330012404370F88C828D83123BB6023C23897A
:103B4300088A09ECFEEDFF7A067B001217848A0AC5
:103B53008B0BA80AA90BEA492274F41208398908C5
:103B63008A09ECFEEDFF7A0A123B4C70047910804F
:103B73003A123BBE8A828B83A3A3A3E4F0A3123B36
:103B8300B0E509123BB0A3EEF0A3EFF090182812B2
:103B930040489018286011123C038003EAFCEB12A2
:103BA300404370F88C828D83123BB680731250337E
:103BB300A3A322E8F0A3E9F0790022123BC2228AF0
:103BC300828B83E4F0A3124056A3E508F02274F439
:103BD300120839123B42700479108022123C08907B
:103BE300182A12404890182A6011123C038003EAF5
:103BF300FCEB12404370F88C828D83123BB680201D
:103C0300E0FCA3E022123BC28A828B83A3A3A3E539
:103C130009124052A3A3A3EEF0A3EFF022120D88E2
:103C23007F04020AF3D083D082020D3774F21208A4
:103C330039EAFEEBFF8C088D0912194C8B0DA90D87
:103C4300EA4960198A828B83A3A3A3EEF0A3EF1240
:103C5300502FE508F0A3E509F0790080027901020D
:103C6300597B74F412083974F7120E3BE9FE851878
:103C7300828519837401F0EC7006EDC39406404D00
:103C830074036A4B60477401120E23880A890B7808
:103C93000A120DAB7C127D007A007B00EE123CDB36
:103CA300120D88E9601CE4F50AF50B780A120DABD6
:103CB3007403120E337402120E2B12199A74021229
:103CC3000D88851882851983E06401700479018069
:103CD3000279007409023C20F91219527402227409
:103CE300E812083974FA120E3B89128A168B178C64
:103CF300088D09122EAC8A148B15EA4B70057902D4
:103D0300023E74AA08AB09A91212196AE9F50FA2B7
:103D1300E6401C90182C1251CA6014E82419F5824D
:103D2300E439F583E064017006E50FD2E6F50F7C14
:103D3300067D007900AA18AB191216D6741F12104B
:103D4300CF123E796009E054FCF0E044018003E0C7
:103D530054FC124A15A31251C8602B741E1210CFC3
:103D6300E0FE88828983A3120BC0EEFD7402121059
:103D7300CFE05403FCAA08AB09A9121218F274028B
:103D8300120D88E970057901023E7474221210CF76
:103D93001251CA6012851882851983E04404F074B5
:103DA300021210CF12541674201210CF123E7960F3
:103DB30005E044088003E054F7F074211210CF1299
:103DC3003E796005E044108003E054EFF074241260
:103DD30010CFE0C0E074041210CFD0E0F0740512ED
:103DE30010CFEEF07803851882851983E0540460C0
:103DF30002780574251210CF123E852510FEE43596
:103E030011FF1244666066AC0AAD0BAA18AB191217
:103E1300194074271210CF12590B120DA7AC10AD15
:103E2300111258F9120D88901C9CE0F50C780C12B5
:103E33000DAF750CF2750D19780C120DAB780A12D3
:103E43000DAB8E0C8F0D780C120DAB7808120DABE9
:103E5300A90FAC14AD15AA16AB17122EB87409121C
:103E63000D88E9FEAA0AAB0B12178A80027E10EEB8
:103E7300F97406026AF0123E7D22E08518828519E4
:103E83008322E0F510A3E0F511E822EEF90267DDE5
:103E930074EA12083974FE120E3B890B8A148B15CF
:103EA3008C0E8D0F7E007F00750A0074181210CFE0
:103EB30012668E80111240391219A68B09EE2AFE62
:103EC300EF3509FF050A12643C502EE50A75F0062A
:103ED3001244522403FEE43FFFA3A3E070E60EEE78
:103EE30070010F88828983A3A3A3A3124048888209
:103EF300898360C11267CF80C2EEFAEFFB12178489
:103F03008A088B098A0C8B0DEA4B700302402175DA
:103F13000A008030A818A919881289137812120D83
:103F2300AB7808120DAB8A828B831240391219AC1D
:103F33007404120D8812642DE50828F508E5093983
:103F4300F509050A12643C5071E50A75F00612443E
:103F53005A12641912403112404E124028F0125086
:103F630017124028A3F0E5082403F50850020509B9
:103F730088828983E070CBEA240308E43BF98882D2
:103F8300F583124031F0A38582088583098A828BE9
:103F930083A3A3A3A3123C038C82F583E582458309
:103FA3007003023F17AC08AD09AA82AB83888289EC
:103FB3008312444C8A088B098088780C120DAB8ECF
:103FC300088F097808120DAB74201210CF124671B6
:103FD300120DAFE4F508F5097808120DAB7422123F
:103FE30010CF124671120DAF74221210CF12467108
:103FF300120DAF7508007808120DAF750801780827
:10400300120DAFAC0EAD0FAA14AB15A90B1247C519
:10401300120D88E9FEAA0CAB0D12178A80027E10DE
:10402300EEF90245E812402C22124031A322E0852A
:10403300088285098322126BECAA0EAB0FA90B220F
:10404300FD8C828D83127148EA4B22124052221258
:10405300405622123983A322EEF90245ED74EC1285
:104063000839890A8A108B11ECFEEDFF74141210C3
:10407300CF12413A75F003A4F50EE5F0126ED0703D
:1040830003024135A808A9097C008034EC75F003CC
:10409300A4FAABF0E50C2AFAE50D3BFB8A82F58323
:1040A300A3124488EA2402FA50010BF5828B83128F
:1040B30048B0A312413FA3F0E82403F85001090CD0
:1040C300850C82850D83E0FAECC39A40BF74016AC4
:1040D300700AA3E07006750E01750F007808120DC3
:1040E300AB780E120DAB741C1210CF124239120DA5
:1040F300AFE4F50CF50D780C120DAB741E1210CF56
:10410300124239120DAF741E1210CF124239120D22
:10411300AF750B00780B120DAF750B04780B120DF6
:10412300AF1247BB120D88E9FEAA08AB0912178A22
:1041330080027E10023E8E1249E2E02212405212A9
:104143004146221248B4A32274EC120839890A8A20
:10415300108B11ECFEEDFF74141210CF12413AF5DF
:104163000875090074027808120FB585080E8509D1
:104173000FAA0EAB0F126ED5700302423479008082
:104183003EE9F51275130074027812120FB5E50CAF
:104193002512FCE50D3513FD8C82F583A31249C668
:1041A300124A05A31249C6A3F0EC2403FC50010DE7
:1041B300F5828D83E01249FF1249CA50010B09852C
:1041C3000C82850D83E0F8E9C39840B574016870EB
:1041D3000AA3E07006750E01750F007808120DAB87
:1041E300780E120DAB741C1210CF124239120DAFA0
:1041F300E4F50CF50D780C120DAB741E1210CF12F2
:104203004239120DAF741E1210CF124239120DAF84
:10421300750B00780B120DAF750B07780B120DAFF2
:104223001247BB120D88E9FEAA08AB0912178A8050
:10423300027E10023E8EE0F50B780B2274E8120822
:104243003974FE120E3B8518828519831271A08979
:10425300098C148D157E007F00750800741A1210E6
:10426300CF12668E8009EE2402FEE43FFF0508129A
:10427300714E5041E50875F00D1244522404FEE4DA
:104283003FFFE070E8A3E070DDEE2405FEE43FFFAE
:10429300E82404F50AE439F50B850A82F583E0F98D
:1042A300121988E960C7850A82850B83E0F9121920
:1042B3008EEE2980B412446670030244338A0E8B57
:1042C3000F750800801AE50C2409FAE4350DFB8A02
:1042D3008212443C12404E1244888C0E8D0F050806
:1042E30012714E40030243CBE50875F00D12445A98
:1042F300125CCA85820C85830D124481850C8285EC
:104303000D83A3AA82AB83124474F0E50C2402F854
:10431300E4350DF9888212443C12448DF0E50E24F5
:1043230004F50E5002050F850C82850D83E070AEF7
:10433300E50E2402FCE4350FFD850E82850F83A371
:10434300A882A9838A828B83E060030242C9E50CB9
:104353002404F512E4350DF513851282F583124416
:1043630081E50C2405F516E4350DF5178516821243
:104373004486851682851783125598F0E50C240729
:10438300F8E4350DF98882F58312447412448DA341
:10439300F0E50E2405F50E5002050F8512828513F4
:1043A30083E0F9121988E970030242E1AC0EAD0F04
:1043B300E50C240BF582E4350DF5831266A7124450
:1043C300468A0E8B0F0242E1780A120DAB8E0C8FD8
:1043D3000D780C120DAB74221210CF124671120D10
:1043E300AFE4F50CF50D780C120DAB74241210CF5D
:1043F300124671120DAF74241210CF124671120DB2
:10440300AF7508007808120DAF7508097808120D0A
:10441300AFAC14AD15740B1210CF1266A7A9091215
:1044230047C5120D88E9FEAA0AAB0B12178A800250
:104433007E10EEF97402026AF0F583E0850E828540
:104443000F8322851282851383E0F91219822212C7
:10445300445A124584EE22A4F8A9F0E51028F58207
:10446300E51122EEFAEFFB1217848A0A8B0BEA4B53
:104473002212447822E0850E82850F83A322124400
:104483003EF022F5831248B4F022A3A3124682120F
:104493004478A3A32274EA120839890B8A108B117A
:1044A3008C0E8D0F7E007F00750A0074161210CFDC
:1044B300124E608003124551850C82850D83126470
:1044C3004240F2EEFAEF126ED4607EA808A9097595
:1044D3000A00800312458C850C82850D83E0FAE582
:1044E3000AC39A40EF7808120DAB8E0C8F0D780C2F
:1044F300120DAB741E1210CF1249F9120DAFE4F571
:104503000CF50D780C120DAB74201210CF1249F973
:10451300120DAF74201210CF1249F9120DAF750AA4
:1045230000780A120DAF750A0A780A120DAFAC0EA5
:10453300AD0FAA10AB11A90B1247C5120D88E9FEE6
:10454300AA08AB0912178A80027E1002405BE50AB3
:1045530075F005A4F8A9F0E50C28F582E50D1245E0
:1045630084A3A3A31271A6A3A3E0F91219948B0940
:10457300EA2403F8E43509F9EE28FEEF39FF050ACA
:1045830022125CCAA882A98322E50A75F005A4FA5F
:10459300ABF01245DC8582148583151248B4124AA8
:1045A3001088828983A3F0E51412624135158A12BB
:1045B300F5138A82F583124146A3F0E82403FCE451
:1045C30039FD8514828515831271451244468A127A
:1045D3008B13A812A913050A22E50C2AF582E50D0F
:1045E3003BF583A3227402120D887F0E020AF37433
:1045F300F612083974FE120E3BE9FE740C1210CF4A
:10460300124677C0E074011210CFD0E0F0A818A9C9
:1046130019880889097808120DAB75080275090015
:104623007808120DAB74161210CF124671120DAF2B
:1046330074151210CF120BC074161210CF124671DC
:10464300120DAF74161210CF124671120DAF75080A
:10465300007808120DAF75080B7808120DAFEEF94C
:104663001247C5120D887402120D880251EAE0F553
:10467300087808221247CF123E7D124682E022F0CC
:1046830088828983A32274EA12083989138A108BDA
:1046930011ECFEEDFF74161210CF126EF8E50A242A
:1046A30002F50CE4350BF50D850C82F583E00475FA
:1046B3001200F50E750F00FAAB0F126ED5700302E0
:1046C30047B3850A82850B831248BA801DEAFC85AD
:1046D3000A82850B83A3A3A3E02CFBA3E034008B06
:1046E30082124486A3A882A9830A850C82850D833E
:1046F300E0FBEAC39B40D6850A82850B83A3E0F8DF
:1047030074181210CFE0F974191210CFE0FA741A6A
:104713001210CFE0FB74116870397808120DAB7872
:104723000E120DABEBF50A780A120DAFE4F50AF59C
:104733000B780A120DABEAF50A780A120DAFE9F508
:104743000A780A120DAF750A00780A120DAF750ABE
:1047530012803C741368704F7808120DAB780E12F8
:104763000DABEBF50A780A120DAFE4F50AF50B78F9
:104773000A120DABEAF50A780A120DAFE9F50A78C9
:104783000A120DAF750A00780A120DAF750A147874
:104793000A120DAFEEFCEFFDAA10AB11A9131247DD
:1047A300C5120D88E9F512AA08AB0912178A80030E
:1047B300751210A9120245EDEEFCEFFDAA10AB1124
:1047C300A90A1218F8740B221247CF22125A16F9AB
:1047D3008882F5832274E812083989108A128B13B0
:1047E300ECFEEDFF74181210CF1249D675F003A436
:1047F300A9F02401F50EE439126ED070030248A922
:10480300850C82850D831248BA802EEA75F003A4C5
:10481300FCADF0E50C2CFCE50D3D1249B21248B09D
:10482300124A0C88828983124A1E88828983A3A331
:10483300F0E82403F85001090A850A82850B83E016
:10484300FBEAC39B40C57808120DAB780E120DAB83
:1048530074201210CF1249F9120DAFE4F50AF50BCB
:10486300780A120DAB74221210CF1249F9120DAF50
:1048730074221210CF1249F9120DAF750A00780A8B
:10488300120DAF750A0D780A120DAFEEFCEFFDAAFB
:1048930012AB13A9101247C5120D88E9FEAA08AB83
:1048A3000912178A80027E10EEF9026AF31248B4E5
:1048B30022E088828983221255A8F0A3A882A983C3
:1048C3007A002274E812083989128A108B11ECFEDF
:1048D300EDFF74181210CF1249D6F508750900744C
:1048E300027808120FB5E5082401F50EE435091224
:1048F3006ED070030249AD850C82850D8312559FDE
:10490300A3AA82AB8379008034E9F514751500748A
:10491300027814120FB5E50C2514FCE50D351512BC
:1049230049B21249C6124A0C8A828B83124A1E125A
:1049330049FFA3A3A3A31249CA50010B09850A8205
:10494300850B83E0F8E9C39840BF7808120DAB7874
:104953000E120DAB74201210CF1249F9120DAFE4F1
:10496300F50AF50B780A120DAB74221210CF124917
:10497300F9120DAF74221210CF1249F9120DAF754F
:104983000A00780A120DAF750A16780A120DAFEEF7
:10499300FCEFFDAA10AB11A9121247C5120D88E94D
:1049A300FEAA08AB0912178A80027E100248ABFDEB
:1049B300EC2402F514E43DF515851482F583228E6B
:1049C300828F831255A8221255A8A3A3A3F0EA2429
:1049D30004FA221249E2A385820A85830BE022E0CE
:1049E300F50CA3E0F50D850C82F583228E828F836F
:1049F300A3A3A3A3A3A3E0F50A780A228A828B8345
:104A0300A3A3F08C828D83A322124A1022124A158B
:104A1300E022F0851482851583A322A3F08C828D76
:104A230083A3A3A3A3E02274F112083974EB120E3B
:104A33003BEAFEEBFFC200EA2420F8E43F8808F5D6
:104A4300098882F583C3E09403A3E09400500579B9
:104A530001024E4490182C1271A074021210CF124E
:104A630071A0740E1210CFE4F0A3F0740A1210CFE9
:104A7300E4F0A3F0740C1210CFE4F0A3F0EA2422C4
:104A8300F8E43F880AF50B8882F583126B6A740495
:104A93001210CFAA82AB8312193A8A0C8B0DA80C81
:104AA300A90D740A1210CFEAF0A3EB124EC1FAA3B8
:104AB300E0FBEAC398F8EB99F9850A82850B831228
:104AC3004E4C740C1210CF12541674081210CFE00F
:104AD300901823F0EE2414124E54E0F9122EAC8AEF
:104AE300828B83E5824583700C90182CE4F0A3F04D
:104AF3007902024E44124E9F602BEE2404F50AE421
:104B03003FF50BA3120BC0740B1210CFE0FD74061C
:104B13001210CFE05403FC124EAF1218F2740212BB
:104B23000D88E9700C90182CE4F0A3F07903024E81
:104B330044124EAF12196AE9F50E850A82850B837A
:104B43001266A7EAFCEBFD9018248004888289830F
:104B53001251CA7003024C4088828983A3A3124E68
:104B630060C3EA950CEB950D40E288828983A3A389
:104B7300A3A3C3E09CA3E09D40D2E8FCE9FD740439
:104B83001210CFE05407700D74091210CFE0640BBC
:104B93007003024C44E50EA2E64003024C44EE24AB
:104BA30019F582E43FF583E06003024C447402127A
:104BB30010CF124E7E707A74021210CF1251C5704C
:104BC300707C00850882850983E0F91219707401ED
:104BD3001210CF7401F074091210CF124E6C121020
:104BE300CFE0F50C780C120DAF74071210CF120B37
:104BF300C0750C01780C120DAF74081210CF126D32
:104C0300A2120DAF7405120E23880C890D780C12B5
:104C13000DAB74091210CF124E961210CF124E72B2
:104C23001210CF124E8C120D887C01124EAF121946
:104C33007090182CE4F0A3F07905024E447C007DBB
:104C43000074041210CFE0F854036003024D6AE8C5
:104C5300540460057E84024DA874091210CFE0F855
:104C6300C394174003024D66E8F50A750B007402FE
:104C7300780A120FB57487250AF5827434350BF55B
:104C830083E493F8740193F9E8497003024D668550
:104C93000882850983E0C0E074101210CFD0E0F0E1
:104CA300740C1210CF1266A774111210CF1271A0D8
:104CB300740A1210CF1266A774131210CF1271A0C8
:104CC3007410120E2B88828983120A0E8B09A9098C
:104CD300740E1210CF1271A0EA49604874091210C1
:104CE300CFE0F50875090074027808120FB57489CE
:104CF3002508F58274343509F583E493F874019338
:104D03008882F583E582458360127402120E2B12AA
:104D13000A0E740E1210CF1251CA6008740E1210CC
:104D2300CF12713D74091210CFE0F8605874026815
:104D33006053740368604E74056860497406686064
:104D430044740868603F740C68603A741168603595
:104D53007413686030741568602B740B6860267E6A
:104D63000080427E82803EEC4D602A8C828D83A33C
:104D7300A3124E9F601F7402120E2B120A0EE9FE3D
:104D830074FF6E700B90182CE4F0A3F0F9024E44FC
:104D930074016E701074041210CFE0540460047E2A
:104DA3008380027E8174021210CF124E7E706B7468
:104DB300021210CF1251C5706174041210CFE0FAC1
:104DC3005410705674011210CFEEF074091210CF04
:104DD300124E6C1210CF124671120DAF74071210DF
:104DE300CF120BC07508017808120DAFEA12667C6A
:104DF300120DAF7405120E23880889097808120D65
:104E0300AB74091210CF124E961210CF124E7212BB
:104E130010CF124E8C120D88D20090182CE4F0A300
:104E2300F0EE70047900801974846EA200700A5049
:104E3300047907800C790680085004790980027987
:104E4300087415120D88025722E028F8A3E039F9F7
:104E530022F508E43FF509850882F58322124E64A2
:104E630022E0F50CA3E0F50D22127138740822E05C
:104E73002406FAA3E03400FB740922125A16C8244C
:104E830015F582E438F583E0221266B9F912191C8C
:104E9300740722126B40126BE8740922A3A3A3A325
:104EA300125A168882F583E582458322850A828514
:104EB3000B83127148850882850983E0F922124E1B
:104EC300C522126AF8E02274F41208398A088B09A1
:104ED300ECFEEDFF7C067D0079001216D685088274
:104EE300850983E054FCF8A3E0F98E828F83E054B4
:104EF30003FAE84A850882850983F0A3E91271B0B1
:104F0300A2E25004D2F08002C2F0850882850983B0
:104F1300E054FBF0A2F0E433F50A750B0074027859
:104F23000A120FB5E0450A1271B0A2E38508828523
:104F33000983E050044408800254F71271B0A2E4DC
:104F43005004D2F08002C2F0850882850983E054C0
:104F5300EFF0A2F0E433F50A7404780A120FB5E017
:104F6300450A125B65850882850983E05404601055
:104F73008E828F83E0FAA3125FF4124FA750010FC2
:104F83008E828F83124F9B124FA2124F9BA3F0EE80
:104F93001262413FFB023C2312402CA3A3A3221223
:104FA3006142A322A3A3F0A3E9F0EE2402FE22743C
:104FB300F71208398A828B83E054038C828D831223
:104FC300502A540412502354081250235410F88CBE
:104FD300828D83E048F0A3AC82AD838A828B83E029
:104FE3005404601612501712559912467D8C828D07
:104FF30083A3F0EC2402FC50010D8A828B83A3A3CC
:10500300A312559812502F125599A3F0EC12624136
:105013003DFB8027EA2402F8E43BF98882F58322EA
:10502300F88C828D83E048123983E02212503322B8
:10503300124056A3A3A3A3221218C27F01020AF3AC
:10504300C082C08390182680048A828B83124048D2
:10505300600C8A828B83A3A3E06970ED80047A00DD
:105063007B00023C28C082C08390182880048A8277
:105073008B83124048600C8A828B83A3A3E0697000
:10508300ED80047A007B00023C2874F01208398A10
:10509300088B09ECFEEDFF12194C8A0C8B0DEA4BC1
:1050A30060647C0080010C850C82850D83A3A3A31F
:1050B300A3A3A3A3E0F8ECC398504BECF50E750F34
:1050C300007403780E120FB5850C82850D83A3A39C
:1050D300A3A312530A8882F583E493FA740193FB22
:1050E300E5086A7003E5096B70BCA3A312510D7048
:1050F30002EF6B70B174101210CF125117740812B3
:105103000C6F7901800279008015E493FA7401939E
:10511300FBEE6A22126BEC8983888222120D887F50
:1051230008020AF374F61208391251536005126625
:10513300A480047A007B000251EA74F61208391243
:10514300515360051266A280047A007B000251EA83
:1051530012194C8A828B83E58245832274F71208E5
:1051630039E9FFEAFCEBFD90182A800488828983E1
:105173001251CA604688828983A3A3E06F70ED7ED3
:105183000080010E88828983A3A3A3E0FAEEC39A69
:1051930050DAEE75F003A4FA85F008AB088882892B
:1051A30083A3A3A3A3E02AFAA3E03BFB8A82F583AC
:1051B300E06C7003A3E06D70CA80047A007B000288
:1051C300503E126B40A3A3126437E8492274F612CF
:1051D30008391219648A828B83E58245836006A3AA
:1051E300A3E0F9800279007F02020AF374F6120841
:1051F30039ECFF1219648B09A909EA496015EA24FD
:1052030002F582E439F583EF6005E0D2E68003E03E
:10521300C2E6F080D274F0120839EAFEEBFF8C0983
:105223008D0A1219468A0C8B0DEA4B700302530543
:10523300750B0074101210CF126433E8FAE9FB8087
:10524300128C828D83A3A3A3E493A2E3500302529F
:10525300EB050B850C82850D83A3A3A3E0F8E50B77
:10526300C3984003025305E50BF50E750F00740256
:10527300780E120FB5850C82850D8312530A1253D3
:10528300D87002EF6970CA8A828B83E0F88C828DB2
:1052930083A3A3E493C39840B87411650970197488
:1052A30001650A609CE50A70A88C828D83A3A3A381
:1052B300E493A2E240328099741365097044E50ACD
:1052C300700D8C828D83A3A3A3E493A2E080E57485
:1052D30001650A60030252548C828D83A3A3A3E465
:1052E30093A2E1400302525474121210CF1253F8E6
:1052F3007404120C6F88828983A3A312559F7901CA
:1053030080027900025122A3A3A3A3E0250EF8A3F0
:10531300E0350FF92274F0120839EAFEEBFF8C092D
:1053230012194C8A0E8B0FEA4B70030253D37A0087
:105333007B0074101210CF125A16880AF50B8005E1
:105343000AEA70010B850E82850F83A3A3A3A3A38F
:10535300A3A3E0F8C3EA98EB940050748A0C8B0D76
:105363007403780C120FB5850E82850F83A3A3A354
:10537300A31253EA1253D87002EF6970C3A3A3E4D4
:1053830093F50C740193F50D850A82850B831264E2
:1053930033C3E50C98E50D9940A6EC2405F582E4AA
:1053A3003DF583E493A2E7E43365096006E493A241
:1053B300E6508D74121210CF1253F87408120C6F4A
:1053C30088828983A3A3125D651254167901800232
:1053D3007900025122E8FCE9FD8882F583E493F821
:1053E300740193F9EE6822A3A3A3A3E0250CF8A309
:1053F300E0350DF9221264378C828D83E8FCE9FDD8
:1054030022750A00850C82850D8312643785188204
:10541300851983E8F0A3E9F02274F1120839EAFE52
:10542300EBFFECFAEDFBEE4F7003025595EC240213
:10543300F50CE43BF50D8C828D83A3AC82AD838E9A
:10544300088F09750A00E9120C450441426255436D
:10545300447455E0E22D55E8E9DE542508D054099B
:10546300DE540AEF540B2D5510D05418D05419DEC6
:10547300541AEF541B2D551C3E551D47551E5055B0
:105483001F595520D05421DE5422EF54232D552487
:105493003E5525475526505527595528D05429DEC2
:1054A300542AEF542B2D552C3E552D47552E505530
:1054B3002F595530D05431DE5438DE54392D553AF6
:1054C3005955EA2D55F05955F1865595558E828FCC
:1054D3008312559FECFAEDFB0255951249C2124F08
:1054E300A2125599F00A0AAB0D0255958E828F834D
:1054F30078081210788A828B83E508126142780853
:10550300121078E5098C828D83126142780812109B
:105513007874107808120DF2850C82850D83E508E6
:10552300F0EA2403FA506B0B80688E828F83120B90
:10553300BC1217607404120D8880577808120DA7E7
:105543007C0580467808120DA77C06803D780812FA
:105553000DA77C0780347808120DA77C08802B7870
:1055630008120DA78E828F83E02401FCE4340080AF
:105573000F7808120DA78E828F831256B4FCE4397C
:10558300FD80097808120DA77C107D001258F912CE
:105593000D88025722A3E08C828D83221255A8F036
:1055A300228E828F83E08A828B8322C082C083E92A
:1055B300120C4503202FC655383AC655E0E2C655AE
:1055C30000CA55790180027900023C28E924F86079
:1055D3007814607914607A14607B24FB606B24F880
:1055E300606714606814606914606A24FB605A146D
:1055F300605B14605C14605D14605E14605F146033
:105603006014606114604214604314604414604584
:1056130014604614604714604814604914602A14E7
:10562300602B24F9602714602C146039245A6025F8
:1056330014602214601F24FA6013146010146015A0
:1056430024FA602114602280247901802279028067
:105653001E7903801A7904801679058012790680F1
:105663000E7907800A790880067910800279000292
:105673000D3774F7120839E9FE74446E60057443FC
:105683006E700C8A828B831256B4FAE439801574D7
:10569300426E600574416E700E8A828B83E0240132
:1056A300FAE43400FB800712198EE9FA7B000250FA
:1056B3003EE0FCA3E0F9EC24022274F1120839EA7B
:1056C300FEEBFFEC2406F8E43D8808F5098882F533
:1056D300831240487004790180458C828D83A31224
:1056E30067CF8A0A8B0B850882850983E0F508A3B7
:1056F300E085080CF50D750E00780C120DA7AC0AA9
:10570300AD0BEEFAEFFB1258F9120D88740F12105D
:10571300CF124EA36007E50AF0A3E50BF079007FF3
:1057230007020AF374F012083974F8120E3B890A5F
:105733008A088B09ECFEEDFFA818A919880C890DBE
:10574300780C120DABA90A123CDC120D88E9700427
:105753007901804C74181210CF126B4E741A121008
:10576300CF124E6074061210CF1251CA780C601615
:10577300120DAB7402120E33AA0EAB0F12199A74E8
:1057830002120D88801A120DAB780E120DABEEFCCF
:10579300EFFDAA08AB09A90A1219AC7404120D880B
:1057A300740802511F74F012083974FE120E3B8AFA
:1057B3000C8B0DECFEEDFF851882851983E4F0A3B5
:1057C300F01219588A088B09EA4B602FA818A919F7
:1057D300880E890F780E120DABE4F50EF50F780ED7
:1057E300120DAB7900EEFCEFFDAA0CAB0D85088220
:1057F300850983120A0E7404120D8885188285198F
:10580300831266A7740202511F74F01208398A08C2
:105813008B09ECFEEDFF1219588A0A8B0B741212D6
:1058230010CF126B4EE50E450F600A850E82850F71
:1058330083E4F0A3F0EA4B6027780E120DAB7412E9
:105843001210CF120BC07901EEFCEFFDAA08AB09D1
:10585300850A82850B83120A0E7404120D88800256
:1058630079C102512274F1120839ECFEEDFF8C82EA
:10587300F583A3A3A3A3A3E0A2E1506A1219BEE98F
:10588300F50A7065740F1210CF125CF49018201291
:1058930051CA6013AC08AD09EEFAEFFBE0F583885B
:1058A30082120A0EE9603AE5082403F8E435098810
:1058B30008F5098882F5831258FF1267D28A0C8B88
:1058C3000DAC0CAD0D85088285098312590B120DA1
:1058D300A78E828F83A31266A21258F9120D8880B5
:1058E30008750A878003750A88A90A0257227C0271
:1058F3007D007A6F7B1A1216C47403221271488ECC
:10590300828F83A3A3A3A322124E64750E00780C87
:105913002274F21208398908ECFEEDFF8C82F583BC
:10592300A3A3A3A3A3E0A2E1504C1219BEE9F9700B
:1059330047A9081219588A0A8B0BEA4B6034E4F51D
:105943000CF50D780C120DAB74101210CF120BC0A6
:1059530079028E828F83126B688E828F831266A781
:10596300850A82850B83120A0E7404120D88E9F9E5
:10597300800679C1800279887F06020AF374F212E5
:105983000839EAFEEBFF8C088D098C828D83A3A373
:10599300A3A3A3E0A2E5501412640D600F7902AC37
:1059A30008AD09EEFAEFFB120A0E8002790080C8F7
:1059B30074F4120839126088125D75605385088289
:1059C300850983125A16C313E8138A828B83F07CEA
:1059D3000080328E828F83E0F508A3E0F8E4C8F9F3
:1059E300E50828E439F509EC25E0F8E433F9EA2879
:1059F300F582EB125CCAE508F0A3E509F0EE240298
:105A0300FE50010F0C8A828B83E0F8ECC39840C3ED
:105A1300023C23E0F8A3E02274EA1208398A108BCF
:105A230011EA2403F50CE43511F50D850C82F58399
:105A330012669C750A00750E00750F008049050AF1
:105A43008E828F83A3A3E0F8EE2403FE50010FE8B8
:105A530070358E828F83E0F9A3AE82AF83EEFAEFC7
:105A6300FB1219948A088B09EE2AFEEF3509FFEA27
:105A7300A2E0500705080470020509E50E2508F5A4
:105A83000EE50F3509F50F851082851183A3126486
:105A930049125D8F40A875F006E50AA404F50825B0
:105AA3000EFAE4350F125CCF7003025B5E1266964A
:105AB300A808EA28F510E43BF5118A828B83E50AEE
:105AC300F0750B00025B54E50B75F006125CB58EA6
:105AD300828F83125CE512609CF88514828515839E
:105AE300A3A3F0EE2403FE50010FE870628E828FB1
:105AF30083125CDAA3125B65EEFAEFFB1219948A48
:105B0300088B098E0C8F0D750E00780C120DA7AC47
:105B130008AD09AA10AB111258F9120D8885148229
:105B2300851583A3A3A3A3E510F0A3E511F0EE2548
:105B330008FEEF3509FFE508A2E0500705080470E9
