:020000040000FA
:06000000020B7C02026508
:03002B0002093691
:030033000206D7EB
:0300530002019A0D
:03006B000206B1D9
:100083000201F90100F0FF0700080000FFFF000074
:10009300070400000003000147726F757000FF043E
:1000A30000100502640A2FAC092FAC09C0C1C2C3FA
:1000B300C4C5C6C7C8C9CACBCCCDCECF5A6967425F
:1000C3006565416C6C69616E636530390100FFFFE2
:1000D300F2E0A161000000000001C6837C0D820DE7
:1000E3008E0D880D0020FD000206FFFF1E0600088E
:1000F3000008003C18000000017C16821688168E4A
:1001030016000000000000000000000000000000D6
:1001130000000000000000000008040101010106C6
:100123002982000000010400009418000000E80385
:100133000000FFFF0E190188130000E803000064AC
:10014300006400B801A0BB0D00A0BB0D00020202B9
:1001530007040101051E02051E020A0A0101010826
:1001630009080103B80B02803E0102FEFFE8030AFF
:10017300050001FFFF010A011401E001050301016C
:10018300FF0F10FEFFCB2D000000009F2C0000008E
:1001930000FF000000FF00C0E074F112047CA2AF76
:1001A300E433F509D2AF85A708AFA1EF5508FE7474
:1001B300105E6006120F6E75A1EF74085E60081280
:1001C3000F7475A1F78024EFA2E092F0E508A2E096
:1001D30082F05017906198E0F890050BE0C398A265
:1001E300D265D0335002E8F075A1FEE509A2E09292
:1001F300AF7F020204DBC0E074F212047CA2AFE41E
:1002030033FED2AF9061A4E0F8759B00E59158549A
:100213000860087591F7120FC28023E591585410B6
:1002230060087591EF120FC88014E591A2E092F077
:10023300E8A2E082F05007E0C2E0F01211129061F0
:10024300A3E0F8E5E9585404600E1210E875E9FBE1
:10025300906193E0A2E640F2EEA2E092AF7F01024A
:1002630004DBC0E074F212047CA2AFE433FED2AF2D
:100273009061A5E0F8E5BF585404600675BFFB1212
:10028300112A80D4C3E498F8E499F91202C88026AD
:10029300C3E49AFAE49BFBE920E7E91202C8E49875
:1002A300F8E499F922C3E498F8E499F91202C8E44E
:1002B30098F8E499F9C3E49AFAE49BFB22EB20E76C
:1002C300CFE920E7E0B90010BB0008E88AF084F822
:1002D300AAF022E4FBC8FA22EB70227B10C833C8D1
:1002E300C933C9335007C39AC3DBF280069A50015E
:1002F3002ADBEAC833F4C8C933F4C9FA2275F00813
:10030300E4C833C8C933C933C99AC99B5004C92A3D
:10031300C93BD5F0ECFBC833F4C8E4C9FA2208089A
:1003230008EAC0E0EBC0E086F0E7A4FA180986F01B
:10033300E7A42AFA180986F0E7A42AFA180986F02E
:10034300E7A42AFA1986F0E7A4FBE5F02AFA1908CC
:1003530086F0E7A42BFBE5F03AFA190886F0E7A448
:100363002BFBE5F03AFA18180986F0E7A4C5F02B41
:10037300FBE43AFA1908E7C5F0C6A426F6E5F03B14
:10038300FBE43AFA1886F0E7A4F6E5F00826F6E46B
:100393003B08F6E43A08F6D0E0FBD0E0FA22E4CFDB
:1003A300C0E0E4CEC0E0E4CDC0E0E4CCC0E075F052
:1003B30020E626F608E633F608E633F608E633F6D3
:1003C300181818EC33FCED33FDEE33FEEF33FFC3A7
:1003D300EC9709ED9709EE9709EF97191919400F53
:1003E300FFEC97FC09ED97FD09EE97FE191906D569
:1003F300F0BFECF709EDF709EEF709EFF719191953
:10040300D0E0FCD0E0FDD0E0FED0E0FF222518C50F
:1004130082C0E0E51934FFC583C0E0E518C39582C7
:1004230024F810AF088583198582188008858319FD
:10043300858218D2AFCEF0A3E520F0A37808E608B2
:10044300F0A3DEFAEFF0A3E58124FAF8E608F0A3BF
:10045300E608F0A3E608F0A30808E608F0A3E60818
:10046300F0A315811581D0E0FED0E0F81581158148
:100473001581E8C0E0EEC0E022C0D02518C582C0D7
:10048300E0E51934FFC583C0E0E518C3958224F382
:1004930010AF0885831985821880088583198582A2
:1004A30018D2AFC8F0A3E9F0A3EAF0A3EBF0A37965
:1004B30008E709F0A3D8FAECF0A3EDF0A3EEF0A35C
:1004C300EFF0A3D0E0F0A3D0E0F0A3D0E0F0A3E5F9
:1004D30020F0A3E5F0F0A322851983851882E0C0FC
:1004E300E0A3E0F9A3E0FAA3E0FBA37808E0F608B1
:1004F300A3DFFAE0FCA3E0FDA3E0FEA3E0FFA3E09B
:10050300C0E0A3E0C0E0A3E0F5D0A3E0F520A3E0C2
:10051300A3F5F010AF0885831985821880088583B9
:1005230019858218D2AFD082D083D0E0F8D0E032E0
:10053300120BF6B90003020572E4900401782579E1
:10054300198002F0A3D8FCD9FA7A257B1C90008687
:10055300781579028015E493A3AD82AE838A828BEA
:1005630083F0A3AA82AB838D828E83D8E9D9E77502
:1005730082C37583F774061208A97582D27583291D
:1005830074001208A975F0108E1A8F1B85821F85BF
:10059300831E851882851983E0CEA3E0CF851F8251
:1005A300851E83EBC9EAC8EDCBECCAC3E833C8E9BF
:1005B30033C9EA33CAEB33CBC3EA9EF51DEB9FF590
:1005C3001CB35004AB1CAA1DEC33CCED33CDD5F0DA
:1005D300DAAE1AAF1B22D083D082ECC0E0EDC0E0CC
:1005E300E493A3FCE493A3FDED4C600D1206F5EC3C
:1005F30024FFFCED34FFFD80EFE493A3FCE493A31D
:10060300FDED4C600D120792EC24FFFCED34FFFD71
:1006130080EFD0E0FDD0E0FCE493A3C0E0E493C01E
:10062300E022D083D082E9C0E0E493A3C386F0C57F
:10063300F095F0F908E493A386F0C5F095F0700BFC
:10064300E493A3C3994005E9048002A3E475F0028F
:10065300A42582F582E5F03583F583D0E0F9E493B0
:10066300A3C0E0E493C0E022851983851882E0A348
:10067300FEE0A3F5207808E0A3F608DFFAE0A3FF85
:10068300E0A3C0E0E0A3C0E0E0A3C0E0E0A3C0E0DB
:10069300E0A3C0E010AF0885821885831980088520
:1006A3008218858319D2AFD083D0820208AFC0E00D
:1006B30074F212047CA2AFE433FED2AFE589A2E167
:1006C3005003120E7E758900C2C5EEA2E092AF7F81
:1006D300010204DBC0E074F212047CA2AFE433FE37
:1006E300D2AFE58BA2E05003120E7E758B00C2E8F9
:1006F30080D8C0E0C3E49396087401939618400F22
:10070300E49366700808740193661870007019A367
:10071300A3C3E49396087401939618A3A3400DD042
:10072300E0D0E0D0E0020615A3A3A3A3A3A3D0E0E7
:10073300227404800474028000CCC0E0EDC0E0E5C4
:1007430018C39CCCAD1950011D10AF068C188D1920
:1007530080068C188D19D2AF12082BD0E0FDD0E0A3
:10076300FC2274028000CCC0E0EDC0E0E518C39C1D
:10077300CCAD1950011D10AF068C188D1980068C55
:10078300188D19D2AF120809D0E0FDD0E0FC22C0C9
:10079300E0C0F088F0E4936670080874019366186B
:1007A3007000A8F0A3A3700BD0F0D0E0D0E0D0E0AD
:1007B300020615A3A3D0F0D0E022D083D082CCC010
:1007C300E0E493A3600612084C1470FAE493A36068
:1007D300061209C91470FAD0E0FCE493A3C0E0E464
:1007E30093C0E022A2E792D65002F40430F70663E6
:1007F300F0FF05F0B3400384800384F40430D6058E
:1008030063F0FF05F022CAC0E0E493A3C582CCC520
:1008130082C583CDC583F0A3C582CCC582C583CDF4
:10082300C583DAE5D0E0CA22CAC0E0E0A3C582CC22
:10083300C582C583CDC583F0A3C582CCC582C583DC
:10084300CDC583DAE6D0E0CA22C0E0E493A3D39C0B
:100853005010E493A3C39C400AD0E0D0E0D0E00260
:1008630007DAA3A3A3D0E0227009080808226016C0
:10087300181818C6C333C608C633C608C633C60815
:10088300C633C6D5E0EA22C008C3E096F50808A33C
:10089300E096420808A3E096420808A3E0964508BC
:1008A3007001D3D00822C09FF59FE473D09F22D05C
:1008B30083D082C09FE493C0E0740193C0E07402CC
:1008C30093F59F22C5822518C582C583351910AFBC
:1008D30007F5198582188007F519858218D2AFC5E7
:1008E30083227404800A74038006740280027401F4
:1008F300C0E0F404120900D0E0120BB9222518F568
:100903008210AF08F518400C15198008F51840023D
:100913001519D2AF8519832200C0D0251810AF084E
:10092300F518500C05198008F51850020519D2AFB7
:10093300D0D022C0E0C0D0E8C0E0A8A8D2AFC2C7E0
:10094300E8A2E792AFD0E0F8D0D0D0E032BB01020A
:10095300E722C082C08389828A83BB0003E08002CE
:10096300E493D083D082226016080808C6C313C656
:1009730018C613C618C613C618C613C6D5E0EA228E
:100983002518F8E43519F9222518FAE43519FB225C
:100993002518FCE43519FD22C3E0C696F608A3E04A
:1009A300C696F608A3E0C696F608A3E0C696F62216
:1009B300251810AF08F518400C15198008F51840D4
:1009C300021519D2AF22C0E0E493A36C7009D0E002
:1009D300D0E0D0E00207DAA3A3D0E022E7667010EC
:1009E3000809E766700A0809E76670040809E766FC
:1009F30022E066701008A3E066700A08A3E0667040
:100A03000408A3E06622C3E09608A3E09608A3E0E7
:100A13009608A3E096A2D265D03322C3E096F008ED
:100A2300A3E096F008A3E096F008A3E096F022C3B3
:100A3300E4939608740193960874029396087403DA
:100A4300939622C3E697F60809E697F60809E69710
:100A5300F60809E697F622E627F60809E637F608C8
:100A630009E637F60809E637F622E026F608A3E09A
:100A730036F608A3E036F608A3E036F622E493F64A
:100A830008740193F608740293F608740393F6222C
:100A9300E026F008A3E036F008A3E036F008A3E070
:100AA30036F022E056F008A3E056F008A3E056F033
:100AB30008A3E056F022E046F608A3E046F608A3B2
:100AC300E046F608A3E046F622E647F60809E647BD
:100AD300F60809E647F60809E647F622700422609D
:100AE3000D18C6C333C608C633C6D5E0F41822E6CC
:100AF30057F60809E657F60809E657F60809E657D0
:100B0300F622E056F608A3E056F608A3E056F608E8
:100B1300A3E056F622E046F008A3E046F008A3E07F
:100B230046F008A3E046F022E4C396F608E496F6FE
:100B330008E496F608E496F622600D08C6A2E713C9
:100B4300C618C613C6D5E0F322C6F4C608C6F4C653
:100B530008C6F4C608C6F4C622C3E09608A3E09606
:100B630008A3E09608A3E09622C3E7960809E79650
:100B73000809E7960809E7962275D00075813F7545
:100B8300180175190400020533E6F008A3E6F0081E
:100B9300A3E6F008A3E6F022600C08C6C313C61848
:100BA300C613C6D5E0F422E0F608A3E0F608A3E0F6
:100BB300F608A3E0F622CAC0E0E6F0A308DAFAD00A
:100BC300E0FA22E8F0A3E9F0A3EAF0A3EBF022E0D5
:100BD300F8A3E0F9A3E0FAA3E0FB22EAF0A3EBF029
:100BE300A3ECF0A3EDF022E0FAA3E0FBA3E0FCA367
:100BF300E0FD22E5C754F84401F5C7790122251821
:100C0300F582E43519F58322C2AF75D69F02000041
:100C1300221208B24080051208B27380051208B28E
:100C23009280051208B2D380051208B271810512B1
:100C330008B23082051208B27A85051208B2F1872C
:100C4300051208B29788051208B2C488051208B2C3
:100C53001589051208B2A089051208B2418A051246
:100C630008B2A48A051208B2E88A051208B2958B65
:100C7300051208B2028C051208B2358C051208B2AF
:100C8300438D051208B2678D051208B2CB8D05128C
:100C930008B2AF8E051208B2B290051208B2549191
:100CA300051208B2DE93051208B26294051208B267
:100CB300E396051208B21D97051208B28298051231
:100CC30008B28C98051208B2D298051208B2DCA1BA
:100CD300061208B258A2061208B28BA2061208B274
:100CE300B9A2061208B2FCA4061208B21BA506128A
:100CF30008B260A5061208B2F6A5061208B242A60B
:100D0300061208B2D4A6061208B2ACA7061208B29D
:100D1300FDA7061208B262A8061208B2DFA80612DF
:100D230008B215A9061208B260A9061208B286A96C
:100D3300061208B216AA061208B2ADAA061208B223
:100D4300F9AA061208B22AAB061208B261AB061260
:100D530008B2E9AC061208B2B3AD061208B28DAE02
:100D6300061208B275E2021208B2A8E2021208B231
:100D7300F0E2021208B2FCE4021208B24CE70212DB
:100D830008B27FE7021208B24EEA021208B2E5EC9B
:100D9300021208B270ED021208B2ECF0021208B2AD
:100DA300B8F1021208B229F3021208B2ABF302122D
:100DB30008B27CF4021208B2B9F6021208B24EF776
:100DC300021208B230F9021208B23FFC021208B252
:100DD30042FC021208B255FC021208B2A2FC021233
:100DE30008B27B6C001208B2E870001208B24C71B2
:100DF300001208B26D72001208B23576001208B202
:100E0300B279001208B28C7B001208B2DA7B0012AE
:100E130008B2957D001208B2A886071208B2B986F7
:100E2300071208B25787071208B26F87071208B272
:100E3300FD7F001208B2E7FF021208B27E87071295
:100E430008B28E87071208B2A687071208B20E8867
:100E5300071208B2A684071208B22985071208B23E
:100E63008F85071208B250FE011208B26FFE0112FD
:100E730008B2DCFE011208B221FF011208B27AFFA8
:100E8300011208B2E9D7061208B2FED7061208B259
:100E930009D9061208B23AD9061208B254D9061271
:100EA30008B2CAD9061208B2AFDA061208B223DBB7
:100EB300061208B23DDB061208B254DB061208B272
:100EC30062DB061208B27ADB061208B28FDB061267
:100ED30008B2B4DB061208B204DC061208B2B9E7A2
:100EE300061208B2C7E7061208B240E8061208B2B3
:100EF30014E9061208B2E6EA061208B24BEB061230
:100F030008B2EB88071208B250CE061208B27CCEA4
:100F1300061208B2EDD0061208B22DD1061208B29D
:100F23006DD1061208B281D1061208B29AD1061207
:100F330008B28BD2061208B230D3061208B244D3D9
:100F4300061208B244FE041208B268FE041208B284
:100F530081FE041208B2B3FE041208B2E3FE0412C7
:100F630008B210FF041208B272FF041208B281FF24
:100F7300041208B28BFF041208B298FF041208B2DD
:100F83001EF5061208B23EF5061208B27DF50612EA
:100F930008B298F5061208B2B7F5061208B21DF6A4
:100FA300061208B226F6061208B283F6061208B233
:100FB30092F6061208B2B6F6061208B277F70612D0
:100FC30008B284F7061208B295F7061208B2B9FF01
:100FD300011208B2D1FF011208B2FDFF011208B2DB
:100FE3009AD3061208B2F4D4061208B202D5061236
:100FF30008B215D5061208B22AD5061208B23FD593
:10100300061208B252D5061208B2C6D5061208B2A5
:101013002BD6061208B2CDD6061208B291D7061205
:1010230008B2A1D7061208B2B0D7061208B238FF29
:10103300061208B25CFF061208B284FF061208B259
:10104300ACFF061208B2E0FC061208B207FD061256
:1010530008B225FD061208B298FD061208B21EFD5D
:10106300021208B237FD021208B243FD021208B29F
:1010730057FD021208B275FD021208B27FFD02127B
:1010830008B289FD021208B29CFD021208B222FEC8
:10109300021208B297FE021208B2C6FE021208B28A
:1010A30014FF021208B263FF021208B27EFF02129B
:1010B30008B288FF021208B299FF021208B2DCFFDD
:1010C300021208B2A6FF051208B23DF6051208B2D5
:1010D30067F6051208B284F6051208B297F60512F0
:1010E30008B2ADF6051208B20BF7051208B243F7C2
:1010F300051208B237FB051208B27CFC051208B2D0
:10110300AFFC051208B212FD051208B272FE0512F9
:1011130008B29AFE051208B2AFFE051208B2BFFE6E
:10112300051208B203FF051208B25EFF051208B2EA
:101133006EFF051208B27683071208B29083071276
:1011430008B2B883071208B2D183071208B2F58335
:10115300071208B21384071208B22A84071208B2CE
:101163005884071208B27384071208B2A7880712BB
:1011730008B25AEB061208B26AEB061208B26FEC19
:10118300061208B2A1EC061208B2D1EC061208B29C
:10119300F4EC061208B20BED061208B245ED061286
:1011A30008B2AAED061208B2ECED061208B22BEE55
:1011B300061208B25CEE061208B287EE061208B2F7
:1011C300F17F001208B2F47F001208B2F77F001219
:1011D30008B25DFA061208B27DFA061208B291FB54
:1011E300061208B2B2FC061208B2687E001208B2F8
:1011F3009E7E001208B2B47E001208B2F67E001280
:1012030008B2067F001208B24A7F001208B2E47FD8
:10121300001208B2EE7F001208B283C4061208B2AD
:101223008DC4061208B2B8C4061208B201C506126C
:1012330008B26AC5061208B287C5061208B2A0C56D
:10124300061208B242C6061208B2C1C8061208B294
:10125300CAC8061208B20FC9061208B238C9061264
:1012630008B245C9061208B2B6C9061208B241CA85
:10127300061208B28FCA061208B2CDCA061208B205
:1012830032CB061208B255CB061208B2CCCB0612EB
:1012930008B223CC061208B25ECC061208B293CC75
:1012A300061208B2A5CC061208B2B7CC061208B2D1
:1012B300D6CC061208B2DFCC061208B29ACD0612BB
:1012C30008B2E6CD061208B224CE061208B2368260
:1012D300071208B20080071208B23680071208B25C
:1012E3007E80071208B2D781071208B20080061267
:1012F30008B22481061208B25E81061208B208837E
:10130300061208B23283061208B2A785061208B283
:10131300E785061208B27D87061208B21A880612FC
:1013230008B26C88061208B20F89061208B2478900
:10133300061208B28989061208B2F88A061208B2A0
:10134300468C061208B2778E061208B2A58E0612D4
:1013530008B2CC8E061208B2D58E061208B22C8FB4
:10136300061208B2BE8F061208B2EB92061208B23A
:101373006E93061208B28389071208B2998907127D
:1013830008B2A2FF041208B239DC061208B24FDC1D
:10139300061208B2F3DC061208B232DD061208B2F6
:1013A3004FDD061208B280DD061208B2CDDD06124B
:1013B30008B200DE061208B23BDE061208B230E0C5
:1013C300061208B2A885071208B20786071208B2E8
:1013D3004586071208B28686071208B267310012E3
:1013E30008B27331001208B2B733001208B2C13326
:1013F300001208B24F34001208B28B34001208B244
:101403007735001208B2D535001208B22236001221
:1014130008B29736001208B2F536001208B22B371D
:10142300001208B2A837001208B25939001208B2E4
:10143300263B001208B2113C001208B2053D00120F
:1014430008B25E3F001208B2B840001208B24F4122
:10145300001208B29E42001208B28C43001208B276
:10146300F044001208B29049001208B2784A001200
:1014730008B2094B001208B22E4B001208B2534BAC
:10148300001208B2ED4B001208B2034C001208B26E
:10149300254C001208B2964C001208B2B54C00124B
:1014A30008B2DE4C001208B2DE4D001208B2E24E62
:1014B300001208B27450001208B29550001208B21C
:1014C3003B51001208B28351001208B2ED510012D1
:1014D30008B26E52001208B2D252001208B22E5352
:1014E300001208B2DA53001208B24654001208B2CE
:1014F3007954001208B2E154001208B23A560012AD
:1015030008B2C257001208B26958001208B2C45A8E
:10151300001208B2155B001208B2255B001208B274
:10152300725B001208B2DE5B001208B20E5C00129E
:1015330008B27D5C001208B2275D001208B2195F81
:10154300001208B29E61001208B2A862001208B22B
:10155300C066001208B28567001208B2A3680012C1
:1015630008B24F6A001208B2A5BA041208B234BB1B
:10157300041208B29ABB041208B279BC041208B26E
:1015830074BD041208B2EBBD041208B229BF0412E1
:1015930008B2DCBF041208B2A7C1041208B2A2C287
:1015A300041208B2BFC2041208B2CCC3041208B2B8
:1015B30012C5041208B2B4C5041208B2E6C8041274
:1015C30008B2E2CA041208B26DCB041208B2C7CB48
:1015D300041208B215CC041208B28ACC041208B261
:1015E30017CD041208B23CCD041208B2BCD30412C6
:1015F30008B20ED6041208B295D7041208B26BD8FB
:10160300041208B2BB93061208B24594061208B23C
:10161300BC94061208B2CC97061208B24F99061270
:1016230008B27F9B061208B2C49C061208B21F9F21
:10163300061208B24D9F061208B28B9F061208B21B
:1016430004A0061208B2AAA0061208B2BBA0061292
:1016530008B2C2A0061208B255A1061208B2A7A189
:10166300061208B26188071208B219F2061208B20C
:1016730082F2061208B2A8F3061208B2F4F30612B5
:1016830008B2FDF3061208B21EF4061208B221F4E2
:10169300061208B249F4061208B2EFF4061208B2B1
:1016A3009BFF031208B2A89A051208B2D79A051233
:1016B30008B2539B051208B2A19C051208B2879D7C
:1016C300051208B2009F051208B2259F051208B241
:1016D300779F051208B2F99F051208B240A00512C0
:1016E30008B253A0051208B2AAA0051208B270A14D
:1016F300051208B2DCA1051208B206A2051208B24F
:101703004FA2051208B2D4A3051208B2ADA4051264
:1017130008B2F6A5051208B2C9A6051208B251A768
:10172300051208B294A7051208B2AEA7051208B2B3
:10173300F5A7051208B215A8051208B2D0A805121C
:1017430008B2F3A9051208B24DAA051208B291AA6C
:10175300051208B28DAB051208B209AE051208B224
:1017630028AE051208B29DAE051208B2C2AE05122C
:1017730008B23FAF051208B205B0051208B242B075
:10178300051208B2BBB0051208B2AFB1051208B218
:10179300B2B1051208B2BCB1051208B2C6B1051246
:1017A30008B2D9B1051208B255B2051208B28BB20C
:1017B300051208B29EB2051208B2CAB2051208B2E7
:1017C300F1B2051208B215B3051208B250B30512EF
:1017D30008B2C2B3051208B2EAB3051208B2F4B3F1
:1017E300051208B230B4051208B265B4051208B286
:1017F3007BB4051208B21188071208B229880712B0
:1018030008B2FA7F001208B20EF7041208B25DF7AD
:10181300041208B2FDF8041208B2B8FA041208B2AE
:10182300FAFA041208B219FC041208B223FD0412D6
:1018330008B245FD041208B28FFD041208B210FE6F
:10184300041208B27CD9041208B29FD9041208B258
:101853000ADB041208B253DB041208B2ADDB041234
:1018630008B213DC041208B216DC041208B259DC05
:10187300041208B2DDDC041208B268DD041208B2F7
:101883006BDD041208B2FDDD041208B240DE04125F
:1018930008B2D6E2041208B268E4041208B2AFE454
:1018A300041208B228E8041208B25FE9041208B26D
:1018B3003CEA041208B2CAEA041208B2F1EA0412BA
:1018C30008B276ED041208B225EF041208B2D3EF82
:1018D300041208B260F0041208B24CF1041208B208
:1018E30003F3041208B212F4041208B279F50412D5
:1018F30008B2C6F5041208B25BF6041208B21FE17F
:10190300051208B2BFE1051208B229E2051208B2B6
:1019130042E2051208B2C4E2051208B21AE3051244
:1019230008B267E3051208B2C6E3051208B2D1E4B0
:10193300051208B2E6E7051208B218E9051208B263
:1019430099E9051208B298EB051208B245EC0512A5
:1019530008B2BAEC051208B215EE051208B2FAEE97
:10196300051208B2C5F0051208B22DF2051208B22D
:101973003DF3051208B2DFF3051208B2FEF40512B7
:1019830008B23BD9031208B2AFD9031208B2F7D990
:10199300031208B235DA031208B284DA031208B26A
:1019A300CEDA031208B206DB031208B284DB031299
:1019B30008B2DEDB031208B23ADD031208B2C9DD56
:1019C300031208B2E0DE031208B208DF031208B202
:1019D3004EE0031208B25FE0031208B277E003128D
:1019E30008B281E1031208B24BE2031208B258E3D2
:1019F300031208B27CE3031208B293E3031208B2A2
:101A0300B4E3031208B2D6E3031208B2F3E30312FA
:101A130008B2CFE4031208B227E5031208B2B9E70C
:101A2300031208B208E8031208B2E3BE061208B2B2
:101A330006E9031208B23CE9031208B254EA03129E
:101A430008B2D1EA031208B23EEB031208B27AEBF2
:101A5300031208B2E3EB031208B29DEC031208B2BF
:101A63005BEE031208B25CEF031208B2E1F003125B
:101A730008B2CCF2031208B22FF5031208B2D5F65E
:101A8300031208B2A3F7031208B209F8031208B24B
:101A930020F8031208B210F9031208B22B800512C2
:101AA30008B269FA031208B2DFEE061208B284F034
:101AB300061208B241F1061208B2A5F1061208B2E5
:101AC3003DE0061208B25BE0061208B29FE0061280
:101AD30008B2C5E0061208B2EBE0061208B203E151
:101AE300061208B21BE1061208B27EE1061208B222
:101AF300C0E1061208B2E2E2061208B2EBE20612F5
:101B030008B2F4E2061208B2FDE2061208B207E3D5
:101B1300061208B206FB031208B221FF031208B231
:101B23002FFF031208B234FF031208B2EAF80612B9
:101B330008B2D1FF061208B22389071208B25A89E4
:101B4300071208B2A389071208B20080031208B271
:101B53003280031208B29E80031208B23981031245
:101B630008B2D881031208B21D82031208B23F8261
:101B7300031208B25882031208B27E82031208B21B
:101B8300A082031208B2DE82031208B22283031278
:101B930008B24483031208B2A683031208B26D8409
:101BA300031208B22485031208B29685031208B201
:101BB3006886031208B2B286031208B205870312BD
:101BC30008B26B87031208B2A587031208B2F7871E
:101BD300031208B21388031208B23E88031208B234
:101BE300458A031208B2998B031208B2BB8B031206
:101BF30008B2EF8B031208B2108C031208B21F8CC9
:101C0300031208B22A8C031208B2DA8C031208B248
:101C1300438D031208B2F08D031208B2288E03120B
:101C230008B2EE8E031208B2FB8F031208B245907E
:101C3300031208B2D490031208B23891031208B207
:101C43007391031208B2DF93031208B233950312A0
:101C530008B26C98031208B23999031208B2C799F3
:101C6300031208B2F099031208B2629A031208B27F
:101C7300F69A031208B2549B031208B2469C03124D
:101C830008B2689C031208B2C49D031208B2DD9D1A
:101C9300031208B2F09D031208B25F9E031208B24A
:101CA3006B9F031208B2789F031208B2819F03123D
:101CB30008B259A1031208B27FA2031208B28FA27D
:101CC300031208B291A3031208B208A4031208B2C4
:101CD30037A4031208B23DA5031208B283A5031269
:101CE30008B24FA7031208B227AB031208B231ABF5
:101CF300031208B245AB031208B24FAB031208B28A
:101D030059AB031208B263AB031208B27CAB0312E4
:101D130008B286AB031208B2FAAB031208B205ACE1
:101D2300031208B22AAC031208B235AC031208B28C
:101D330083AC031208B28DAC031208B298AC031241
:101D430008B2BCAC031208B2E0AC031208B23CAD5B
:101D5300031208B282AD031208B29FAD031208B298
:101D63001CAE031208B253AE031208B292AE0312B2
:101D730008B2DFAE031208B261AF031208B2FAAFC2
:101D8300031208B2CAB1031208B228B2031208B28E
:101D930044B3031208B26AB3031208B2A9B403121C
:101DA30008B2CFB7031208B210BA031208B2ECBBE1
:101DB300031208B282BC031208B2A9BE031208B20E
:101DC30055BF031208B28ABF031208B2EFBF031252
:101DD30008B2F9BF031208B223C2031208B24AC3FE
:101DE300031208B28AC3031208B230C4031208B242
:101DF300C1C5031208B24AC7031208B26AC7031265
:101E030008B2C3C7031208B2C5C8031208B20FC988
:101E1300031208B25FC9031208B249CA031208B217
:101E2300BECA031208B2D8CB031208B253CC0312B2
:101E330008B258CD031208B203D0031208B222D05D
:101E4300031208B283D1031208B245D3031208B2B6
:101E530099D3031208B251D4031208B200D5031266
:101E630008B256D5031208B20CD6031208B2A1D693
:101E7300031208B20DD7031208B247D7031208B2F0
:101E830078D7031208B2D4D8031208B20080021222
:101E930008B23280021208B26980021208B252827A
:101EA300021208B23583021208B28D83021208B2FD
:101EB300C884021208B21485021208B23C880212C6
:101EC30008B29E8B021208B2EB8C021208B2818D0B
:101ED300021208B28D8D021208B2BF8D021208B22F
:101EE300418F021208B24F90021208B27990021287
:101EF30008B2D090021208B22991021208B2959149
:101F0300021208B2AC93021208B23B95021208B255
:101F13000596021208B24397021208B2739902128D
:101F230008B2439C021208B2509C021208B2D79C1A
:101F3300021208B27F9D021208B2C29D021208B2B9
:101F43000B9E021208B25F9E021208B2C49E0212D6
:101F530008B22C9F021208B2499F021208B2799F5D
:101F6300021208B2AE9F021208B27EA0021208B299
:101F730027A1021208B2ABA3021208B2CBA4021229
:101F830008B2B4A5021208B236A6021208B258AAC1
:101F9300021208B295AA021208B2EDAA021208B2FE
:101FA30020AB021208B2A1AB021208B2EEAB0212CE
:101FB30008B279AC021208B2CBAC021208B2A2ADDD
:101FC300021208B25BAE021208B2F6AE021208B2F7
:101FD3000FB2021208B22FB3021208B2E0B6021215
:101FE30008B2FEB7021208B201B8021208B230B842
:101FF300021208B236BA021208B20FBB021208B2BA
:1020030044BB021208B24CBC021208B202BD021257
:1020130008B2A3BE021208B2C8BE021208B207BFBA
:10202300021208B279BF021208B25DC0021208B2EE
:102033002AC1021208B260C3021208B2D1C302124B
:1020430008B211C4021208B272C4021208B235C82F
:10205300021208B224C9021208B20BCA021208B251
:1020630083CA021208B245CB021208B243CD021250
:1020730008B25BCD021208B26FCD021208B2A7CD2F
:10208300021208B2D5CD021208B25CCF021208B216
:1020930067D0021208B2B9D0021208B221D10212DB
:1020A30008B2D3D1021208B203D2021208B2E7D2A5
:1020B300021208B298D3021208B287D5021208B2EC
:1020C300BCD5021208B224D6021208B253D70212A8
:1020D30008B205D8021208B236D8021208B24ED896
:1020E300021208B2DDD8021208B291DB021208B262
:1020F30069DD021208B285DD021208B2A1DD021207
:1021030008B26FDE021208B253E2021208B200E410
:10211300061208B240E4061208B2F3E5061208B24A
:1021230002E6061208B2AEB4051208B2C5B905122A
:1021330008B210BA051208B260BC051208B2F4BDA9
:10214300051208B282BE051208B2E3C0051208B236
:10215300E8C2051208B23CC3051208B24BC505120A
:1021630008B27CC5051208B2BCC5051208B2D7C5B2
:10217300051208B232C6051208B254C6051208B2D7
:102183005BC6051208B273C6051208B253C705121F
:1021930008B232C8051208B2D483011208B20C8403
:1021A300011208B2EA88011208B23089011208B29A
:1021B3007D8A011208B2E88A011208B2718C0112F9
:1021C30008B2818F011208B29C90011208B2AE9A34
:1021D300011208B2419B011208B2939E011208B288
:1021E3008F9F011208B2EA9F011208B234A10112B3
:1021F30008B222A2011208B2BEA4011208B232A68A
:10220300011208B2B5A6011208B2B8A6011208B2AB
:102213002DA7011208B237A7011208B244A7011271
:1022230008B26FA7011208B21FA8011208B218A9B9
:10223300011208B2C3A9011208B2E1A9011208B23E
:10224300FAA9011208B223AA011208B245AA01127F
:1022530008B29AAC011208B25FAD011208B2A4AD84
:10226300011208B223AE011208B2CFAE011208B2B6
:1022730001AF011208B255AF011208B290AF0112BB
:1022830008B2D7AF011208B227B0011208B22CB0BE
:10229300011208B280B0011208B2ACB0011208B248
:1022A30095B1011208B2E6B1011208B246B20112A9
:1022B30008B2A0B2011208B23BB3011208B27AB657
:1022C300011208B28CB7011208B206B9011208B2A2
:1022D30016BC011208B2B4BC011208B2AABF0112A3
:1022E30008B269C0011208B2ADC0011208B258C2E7
:1022F300011208B26CC2011208B276C2011208B20E
:1023030080C2011208B28CC2011208B2B1C201121A
:1023130008B28AC4011208B2DFC4011208B2E9C4C8
:10232300011208B2F3C4011208B268C5011208B25F
:10233300B7C5011208B2C8C6011208B215C7011207
:1023430008B222C8011208B266C8011208B20CC949
:10235300011208B2FFC9011208B2C5CA011208B2BC
:10236300E8CB011208B206CD011208B2EECD01127C
:1023730008B206CE011208B25DCE011208B267CED2
:10238300011208B272CE011208B290CE011208B245
:10239300D8CE011208B23ACF011208B261CF0112AE
:1023A30008B273CF011208B20ED0011208B243D0A3
:1023B300011208B22AD1011208B26FD1011208B278
:1023C30055D2011208B27CD2011208B2FFD2011217
:1023D30008B270D3011208B2F9D4011208B225D69B
:1023E300011208B2E8D6011208B2B0D7011208B23E
:1023F3003AD8011208B262D9011208B204DA011202
:1024030008B27FDA011208B23BDB011208B285DBA6
:10241300011208B2DFDB011208B2B7DC011208B205
:10242300DADC011208B28DDD011208B2AFDD011250
:1024330008B218DE011208B22EE0011208B226E13A
:10244300011208B2EAE1011208B21CE4011208B257
:1024530066E4011208B2B6E4011208B21AE50112E9
:1024630008B27CE5011208B2AAE5011208B2CEE572
:10247300011208B203E6011208B234E6011208B2EF
:1024830067E6011208B2B7E6011208B20AE70112C1
:1024930008B22FE8011208B2CFE9011208B22AEA02
:1024A300011208B253EA011208B2E0EA011208B2BB
:1024B3004EEB011208B25CEB011208B280EB011281
:1024C30008B2D5EB011208B2F0EB011208B2A2EC8C
:1024D300011208B2DAEC011208B21DED011208B2C2
:1024E30080ED011208B282EF011208B2ACEF0112C3
:1024F30008B2A3F0011208B2ADF1011208B25DF205
:10250300011208B23BF3011208B273F3011208B2CD
:1025130094F3011208B2D6F3011208B238F401128F
:1025230008B242F4011208B252F4011208B28DF457
:10253300011208B26DF8011208B25AFA011208B278
:1025430040FC011208B2D7FC011208B279FD011256
:1025530008B29680041208B24181041208B2EF81D6
:10256300041208B2F582041208B21583041208B2E9
:102573003E84041208B2F985041208B26C86041270
:1025830008B21087041208B21C88041208B28788A4
:10259300041208B2C388041208B20689041208B2EE
:1025A3004189041208B28389041208B2188A0412FA
:1025B30008B2948A041208B25E8B041208B23B8CF0
:1025C300041208B2D38C041208B2ED8C041208B2C0
:1025D3001D8D041208B24E8D041208B2148E04121B
:1025E30008B2248E041208B2738E041208B2808ECD
:1025F300041208B2898E041208B2078F041208B2BB
:10260300638F041208B2AE8F041208B2C98F04128A
:1026130008B2F48F041208B21190041208B21D908C
:10262300041208B2B491041208B2CD91041208B294
:102633005292041208B26592041208B284920412F0
:1026430008B22893041208B2A994041208B25C9643
:10265300041208B2F296041208B2F596041208B2F4
:102663006597041208B28397041208B21A980412E9
:1026730008B26298041208B26598041208B22B9942
:10268300041208B29899041208B2BE99041208B24F
:10269300499A041208B2679A041208B2AD9A041256
:1026A30008B2619B041208B2AB9B041208B2DA9B16
:1026B300041208B2379C041208B26C9C041208B2CC
:1026C300989C041208B2A69C041208B2F39C04124C
:1026D30008B2639D041208B2AC9D041208B2F89DBF
:1026E300041208B2249E041208B22F9E041208B2E8
:1026F3004D9E041208B2389F041208B2429F04127E
:1027030008B27D9F041208B28D9F041208B2E19FA4
:10271300041208B2F59F041208B224A1041208B2ED
:1027230039A1041208B2C7A1041208B20CA2041200
:1027330008B298A2041208B2A3A2041208B2E5A335
:10274300041208B200A4041208B24CA4041208B282
:10275300BBA4041208B2F4A4041208B20EA5041216
:1027630008B26EA5041208B20DA6041208B258A648
:10277300041208B228A9041208B2DAA9041208B292
:1027830047AA041208B287AC041208B29FAC041221
:1027930008B2A2AC041208B2AEAC041208B2C2ACC6
:1027A300041208B2CAAC041208B2FDAC041208B297
:1027B30000AE041208B28DAE041208B2FDAE0412CC
:1027C30008B27FAF041208B240B0041208B25FB07F
:1027D300041208B200B1041208B25DB1041208B2C7
:1027E30060B1041208B2D4B1041208B223B30412C4
:1027F30008B229B4041208B2B4B4041208B2CFB5B3
:10280300041208B297B6041208B2C8B6041208B28A
:10281300EBB6041208B2F4B6041208B223B70412DA
:1028230008B2B3B7041208B269B8041208B2DEB82A
:10283300041208B285B9041208B2FAB9041208B234
:1028430031BA041208B26FBA041208B219BE0612E2
:1028530008B274BB061208B2BFBA061208B24ABA6B
:10286300061208B20EE1051208B2DEE0051208B244
:1028730071E0051208B2C5DE051208B283DE051247
:1028830008B2B5DD051208B29FDD051208B260DD9E
:10289300051208B2BADC051208B2A9D9051208B2AA
:1028A3007CD7051208B24CD7051208B2F0D6051230
:1028B30008B28AD6051208B249D6051208B27BD5EA
:1028C300051208B216D5051208B2BAD4051208B219
:1028D3005DD4051208B2FBD2051208B298D20512D4
:1028E30008B2E2D1051208B2DDD1051208B20080A8
:1028F300051208B2CAD1051208B23DC4061208B2C5
:1029030005C4061208B2AEC3061208B24DC20612BF
:1029130008B28FC1061208B2F2C0061208B295D1EE
:10292300051208B2B8CE051208B2B5CE051208B228
:102933009CCE051208B288C0061208B291CE0512C9
:1029430008B26DCE051208B287CC051208B206CCC8
:10295300051208B2C2CB051208B26DC0061208B246
:1029630032CB051208B2FCF9031208B2FFB9061202
:1029730008B2A6B9061208B268B9061208B23BB982
:10298300061208B207B9061208B2A6B8061208B2B0
:102993008EB8061208B25EB8061208B233B5061234
:1029A30008B206B3061208B20DB1061208B293B00C
:1029B300061208B242B0061208B2FCAF061208B201
:1029C300CFBF061208B266AF061208B227E80300AB
:1029D300000080FBE4738F000100191D87000100D4
:1029E300171D35000400DD1C25000200E11C260034
:1029F3000200E31C27000200E51C28000100EF1C75
:102A030029000100F01C840004009B1986000100CA
:102A1300331C2A000100F11C2B000100F21C2C00C6
:102A23000100F71C2D000800A9192E000100F81C55
:102A33002F000100F91C30000100FA1C31000100D5
:102A4300FB1C32000100B11933000100B21934003C
:102A53000100FC1C36000100B31938000100FD1C05
:102A630039000100F61C83000200151D63000100FC
:102A7300BE1964000100F31C65000100F41C6D0025
:102A83000100BF1971000800A11966000100141D9F
:102A930043000100051D44000200061D450001001E
:102AA300081D46000200091D47000800B61948002A
:102AB30001000B1D4B0001000C1D04000100181D3B
:102AC300A10001001C1D370001001B1D880001002F
:102AD3001A1D3C000100B4193D000100FE1C490011
:102AE30002000D1D67000100C0194D0002000F1DFB
:102AF3004E000100111D4F000200121D3E00010097
:102B0300041D51000100001D52000100011D53006E
:102B13000100031D54000100B5190000000000006E
:102B2300000000002001D083000003002001D283B5
:102B330000000400420114810000050042010381EA
:102B43000000060042013681000007003001D183F6
:102B530000001000420349180000110030035A1806
:102B63000000120010035B180000FDFF2101C88361
:102B73000300000021035C180300FDFF2101C8834B
:102B83000600000010055F180600FDFF2101C88341
:102B930008000000200560180800010021016118E9
:102BA30008001000210363180800110020036518B2
:102BB3000800120021036618080013002103681897
:102BC3000800140021036A180800FDFF2101C883CF
:102BD3000400000018015E180400FDFF2101C883F2
:102BE3000500FDFF2101C883000136360101000104
:102BF30002010001030100010401060605020000B1
:102C0300070100340801000F090401010D0100FF51
:102C13000E08000017020000190100FF1A0100014D
:102C23001B0100FE1C0100081D0200001F01000122
:102C330020010001210200002301000F24020000F3
:102C43002601000127010008280200FF2A010007CE
:102C53002B0102402C0100002D0100012E01000177
:102C63002F0100FF30010B1D310800003A0100085D
:102C73003B01000F3C0100013D0100FF3E04000049
:102C830042040000460400004A0400004E04000011
:102C930052040000560400005A04000001037103AB
:102CA30001030103010301030103220302030103DF
:102CB30010030003000300030003000300030003E9
:102CC3004203000324030603000300030403120367
:102CD3002503230325032303040304030003000341
:102CE30000034403000300032303000365032100DF
:102CF30035038103000305030003000300030003FE
:102D030025032303030271023001600211027002E2
:102D13000102020202028002100261023A00410033
:102D2300630273027202620243020002130238005A
:102D3300000200020402120200020002000200026A
:102D430004020402370037003C0244020002390047
:102D53000002000265020002350281020002050240
:102D630082028302000201017101010101011101CB
:102D730001013101010101018001100161013B00E9
:102D83001400630173017201620143010001130125
:102D930006013D013500040112010001000100019B
:102DA300000104010401330133013C0144013201F8
:102DB30036000001000165010001350081010001B9
:102DC30005018201830100010300710030016000ED
:102DD30011007000310220035004800010006100D4
:102DE30000001400630073007200620043000000DF
:102DF30013000600000000000400120000000000A1
:102E03000000000004000400370037003C024400C7
:102E13000000000000000000650000003500810094
:102E23000000050000008300000003047104020495
:102E33006004110470040204020401040204100477
:102E430061040004140463047304720462044304FD
:102E53000004130406040004000404041204000420
:102E6300000400040004510464000004000400048E
:102E73004404000400040004000465040004350451
:102E8300810464000504000483040004210010008D
:102E93002081441C21001100438100002100120005
:102EA3002083451C210013002083461C21001400AD
:102EB3002083471C2100150043818F042100160045
:102EC3001A81481C210017001A814B1C2100200085
:102ED3001883910421002100F1834E1C210022005C
:102EE300F1835E1C2100FDFF21816E1C3600010071
:102EF300060000000F0000000000000000000000BA
:102F0300000003FFFF00000403FFFF0000FFFF0FAB
:102F1300F4010005C4040320000100000B000000BD
:102F2300000000000003010F00000000000000008B
:102F3300000000000000000000000000000000008E
:102F430000000000000000000000F0143815F61423
:102F5300FA13FC143E15FC144A150215FA13FC145B
:102F63003E150815FA13000000000E15FA130000B1
:102F73000000000000001415FA131A15501520154F
:102F8300FA130000000000000000000000002615F6
:102F930062152C15FA13261562152C15FA131A153A
:102FA30050153215FA131300BC181F00C2181F80E6
:102FB300C81800002E1901002E190200681802809B
:102FC300621803006E180400741804807A18050050
:102FD300801806008C1831009E183300A4183400A2
:102FE300AA183600B018FFFF00000A000000020014
:102FF3000000040000000800000010000000200092
:1030030000004000000080000000000100000002FA
:103013000000000400000008000000100000002071
:1030230000000040000001D42106042208FE210B09
:103033002222103E1E02DA2105F22107E0210CBCF8
:10304300210DC821642E1CFF000007ECFDFDFDECE3
:10305300DCDCCCBCACAC9C9C8C7C7C6C6C5C5C5C2D
:103063004C4C3C3C2C2C1C1C03EAF5E5D5D5C5B5D2
:10307300A5959585857575656555554545353525FD
:103083002515150500160F00000B150B0200022273
:103093000F3300000E0FD0D1D2D3D4D5D6D7D8D981
:1030A300DADBDCDDDEDF5A6967426565416C6C693A
:1030B300616E63653039C0C1C2C3C4C5C6C7C8C960
:1030C300CACBCCCDCECF0000000000000000000032
:1030D30000000000000000000004060000040600D9
:1030E300010406000204303016181920231A1C1E8E
:1030F3003000034D4C4651181A25050200011916DC
:1031030018161618230300303017181921301B1D09
:103113001F30003C40423A3F3F392F47300C0E02EC
:103123000B040B0A0708000F020402010101010945
:103133000200BE040AE80300000000010003007F50
:103143000000000E00E803040409100005030A0C44
:10315300041008001E0C2803FF080209033C0C0599
:103163000815041EC082C083E990181FF00236EED2
:1031730074EE12041074B61209B38A088B09EB5467
:1031830080604E800EEEFAEFFB121460EEFAEFFB56
:1031930012125690181FE0F91212688A0A8B0BAEAE
:1031A3000AAF0BEE4F60208E828F83E0641A60D5E6
:1031B300EEFAEFFB1213F4E9F974FF6960CEEEFA4D
:1031C300EFFB12125C80CCAA08E5096480FB023392
:1031D3009FEA5420700302339B1216468A0A8B0B14
:1031E300EA4B700302339BEA240DF582E4350BF5B9
:1031F30083126162EE240212491A126602E0540736
:10320300F8901A4DE0F50F8E828F83E0901A4DF0FF
:10321300901A6112394B7029850882850983E0244D
:10322300021233A91208E91253B712091B85188237
:10323300851983E4F0780C1208E97C047D00EC80A6
:1032430044740268704C850882850983E02408125F
:1032530033A91208E97C027D007A617B1A121226D7
:10326300740312091B851882851983740212498716
:103273002402F50CA3E03400F50D780C1208E97C68
:10328300087D007404120C01AA82AB831253BF128F
:10329300091BE4F50CF50D780C1208ED740B1209FB
:1032A30093740212098B120DAC740212091B740A77
:1032B300120C01E0A2E55022901A61E4F0A3F0742D
:1032C30014120C01A982AA83890C8A0D750E007849
:1032D3000C1208E91253B712091B9019E4E0F50C1C
:1032E3008E828F83E09019E4F07448120C01E0F8A9
:1032F30074FF686005E8901C8EF012286AE9F9856E
:1033030008828509831207388E828F83A3E0F5082C
:1033130075090078081208EDE9F50878081208F134
:10332300E4F50878081208ED75080178081208F129
:1033330075080078081208F175080178081208F179
:1033430075080078081208F17C217D00AA0AAB0BEE
:1033530079F212428B12091B901C8E741EF0E50C3D
:103363009019E4F0E50F901A4DF0901A61E510F012
:10337300A3E511F012164C121652121646EA4B60D0
:10338300179083AF1207347A207B0090181FE0F95F
:103393001213A0740412091B7A007B00744A1209E9
:1033A3001B7F0A02066BF50CA3E03400F50D750EC6
:1033B30000780C2274F71204107AFF024B0174F6A2
:1033C300120410E9FEEAFF7A04125D0C6038EF8AFA
:1033D300828B83A3A3A3F0EE8A828B83A3A31234ED
:1033E30049E4F0A3F090182E124C90700990182E17
:1033F300EAF0A3EB8042E0F988828983A3A3A3E0E8
:103403006F70071212E679008031E8FCE9FD8882CB
:103413008983124C9070E174FF6F700C8C828D83E2
:10342300123441E4F0A3801090182E125EF9901824
:103433002E123441E8F0A3E9F07901024CB0EAF02E
:10344300A3EB12344922F08A828B8322C082C08389
:10345300EA1265D13BF583E0FA90182E8004888246
:103463008983124C90601C88828983A3A3A3E0FB09
:10347300EA6B600574FF6B70E588828983A3A3E020
:10348300F9800279FF0236EE74F21204108A088B77
:10349300098A828B8312616D1213F4E9F50A74FFB2
:1034A3006970030235727A197B001212508A0C8BF1
:1034B3000DAE0CAF0DEA4F70030235728A828B8317
:1034C300743412677FEA2402FCE43FFD7406120899
:1034D3002B850882850983124291A3A3A3A31253C8
:1034E300C5A3A3126C6488828983A3A3A3A3A3A304
:1034F300EE240AFCE43FFD740C12082B8508828538
:103503000983126179C0E0EE2416F582E43FF58366
:10351300D0E0F0E508240CF8E43509F98882F58356
:1035230012616DEE2417F582E43FF583EAF0A3EB15
:10353300124A68A3A3A3A3A3A3E0FA74066A7009BB
:10354300EEFAEFFB120C32800C74086A7010EEFA7C
:10355300EFFB120C38EEFAEFFB1212568011888241
:103563008983E4F0A3F0EEFAEFFBA90A12125C7967
:103573000102544174F41204108A088B09ECFEED25
:10358300FF7A08123612700479108043123684A32E
:10359300E509123B14A3A3A3EEF0A3EFF0740C12FE
:1035A3000C0112616D88828983A3A3A3A3126C64A7
:1035B300901824123B0E90182460111236C9800310
:1035C300EAFCEB123B0970F88C828D8312367C0285
:1035D30036E974F41204101236087004791080224C
:1035E3001236CE901826123B0E9018266011123612
:1035F300C98003EAFCEB123B0970F88C828D8312BD
:10360300367C0236E989088A09ECFEEDFF7A067BEF
:10361300001212E08A0A8B0BA80AA90BEA4922744A
:10362300F412041089088A09ECFEEDFF7A0A1236B7
:103633001270047910803A1236848A828B83A3A392
:10364300A3E4F0A3123676E509123676A3EEF0A3CF
:10365300EFF0901828123B0E90182860111236C90B
:103663008003EAFCEB123B0970F88C828D831236DF
:103673007C8073124AF9A3A322E8F0A3E9F079004E
:1036830022123688228A828B83E4F0A3123B1CA386
:10369300E508F02274F4120410123608700479104D
:1036A30080221236CE90182A123B0E90182A6011EF
:1036B3001236C98003EAFCEB123B0970F88C828D49
:1036C3008312367C8020E0FCA3E0221236888A82B3
:1036D3008B83A3A3A3E509123B18A3A3A3EEF0A333
:1036E300EFF02212091B7F0402066BD083D0820203
:1036F30008AF74F2120410EAFEEBFF8C088D091276
:1037030014788B0DA90DEA4960198A828B83A3A3D0
:10371300A3EEF0A3EF124AF5E508F0A3E509F0796B
:10372300008002790102544174F412041074F712F8
:1037330009B3E9FE8518828519837401F0EC7006DC
:10374300EDC39406404D74036A4B6047740112093C
:1037530083880A890B780A1208ED7C127D007A00AF
:103763007B00EE1237A112091BE9601CE4F50AF590
:103773000B780A1208ED7403120993740212098B71
:103783001214C6740212091B851882851983E0641A
:1037930001700479018002790074090236E6F91296
:1037A300147E74022274E812041074FA1209B389A5
:1037B300128A168B178C088D091229908A148B157F
:1037C300EA4B7005790202393AAA08AB09A9121229
:1037D3001496E9F50FA2E6401C90182C124C906049
:1037E30014E82419F582E439F583E064017006E5F1
:1037F3000FD2E6F50F7C067D007900AA18AB1912EB
:103803001232741F120C0112393F6009E054FCF0AC
:10381300E044018003E054FC1244DBA3124C8E60AD
:103823002B741E120C01E0FE88828983A3120738D1
:10383300EEFD7402120C01E05403FCAA08AB09A9C3
:103843001212141E740212091BE970057901023960
:103853003A7422120C01124C906012851882851959
:1038630083E04404F07402120C01124EDC74201243
:103873000C0112393F6005E044088003E054F7F07F
:103883007421120C0112393F6005E044108003E0FB
:1038930054EFF07424120C01E0C0E07404120C0124
:1038A300D0E0F07405120C01EEF0780385188285E0
:1038B3001983E05404600278057425120C0112394F
:1038C3004B2510FEE43511FF123F2C6066AC0AADA8
:1038D3000BAA18AB1912146C7427120C011253D1D2
:1038E3001208E9AC10AD111253BF12091B901C8EC4
:1038F300E0F50C780C1208F1750CE4750D19780CD1
:103903001208ED780A1208ED8E0C8F0D780C120850
:10391300ED78081208EDA90FAC14AD15AA16AB1774
:1039230012299C740912091BE9FEAA0AAB0B121295
:10393300E680027E10EEF974060265B61239432260
:10394300E085188285198322E0F510A3E0F511E8DC
:1039530022EEF90262A374EA12041074FE1209B390
:10396300890B8A148B158C0E8D0F7E007F00750AD0
:10397300007418120C011261548011123AFF1214D0
:10398300D28B09EE2AFEEF3509FF050A125F0250BA
:103993002EE50A75F006123F182403FEE43FFFA349
:1039A300A3E070E60EEE70010F88828983A3A3A3C0
:1039B300A3123B0E8882898360C112629580C2EE96
:1039C300FAEFFB1212E08A088B098A0C8B0DEA4B83
:1039D3007003023AE7750A008030A818A919881203
:1039E300891378121208ED78081208ED8A828B8306
:1039F300123AFF1214D8740412091B125EF3E5087D
:103A030028F508E50939F509050A125F025071E541
:103A13000A75F006123F20125EDF123AF7123B14CA
:103A2300123AEEF0124ADD123AEEA3F0E50824034F
:103A3300F5085002050988828983E070CBEA2403E4
:103A430008E43BF98882F583123AF7F0A3858208EC
:103A53008583098A828B83A3A3A3A31236C98C828D
:103A6300F583E582458370030239DDAC08AD09AA0D
:103A730082AB8388828983123F128A088B098088EC
:103A8300780C1208ED8E088F0978081208ED74205F
:103A9300120C011241371208F1E4F508F509780810
:103AA3001208ED7422120C011241371208F174222C
:103AB300120C011241371208F17508007808120838
:103AC300F175080178081208F1AC0EAD0FAA14AB1A
:103AD30015A90B12428B12091BE9FEAA0CAB0D129E
:103AE30012E680027E10EEF90240AE123AF2221282
:103AF3003AF7A322E0850882850983221266B2AAD7
:103B03000EAB0FA90B22FD8C828D83126C0EEA4B38
:103B130022123B1822123B1C22123449A322EEF933
:103B23000240B374EC120410890A8A108B11ECFE64
:103B3300EDFF7414120C01123C0075F003A4F50E92
:103B4300E5F01269967003023BFBA808A9097C0003
:103B53008034EC75F003A4FAABF0E50C2AFAE50D1A
:103B63003BFB8A82F583A3123F4EEA2402FA5001FB
:103B73000BF5828B83124376A3123C05A3F0E82452
:103B830003F85001090C850C82850D83E0FAECC320
:103B93009A40BF74016A700AA3E07006750E01753E
:103BA3000F0078081208ED780E1208ED741C120C41
:103BB30001123CFF1208F1E4F50CF50D780C120824
:103BC300ED741E120C01123CFF1208F1741E120C4C
:103BD30001123CFF1208F1750B00780B1208F17506
:103BE3000B04780B1208F112428112091BE9FEAA99
:103BF30008AB091212E680027E100239541244A85F
:103C0300E022123B18123C0C2212437AA32274ECDA
:103C1300120410890A8A108B11ECFEEDFF74141242
:103C23000C01123C00F50875090074027808120AA9
:103C3300DF85080E85090FAA0EAB0F12699B70036F
:103C4300023CFA7900803EE9F5127513007402789C
:103C530012120ADFE50C2512FCE50D3513FD8C82EB
:103C6300F583A312448C1244CBA312448CA3F0EC2F
:103C73002403FC50010DF5828D83E01244C51244E8
:103C83009050010B09850C82850D83E0F8E9C398F8
:103C930040B5740168700AA3E07006750E01750FD4
:103CA3000078081208ED780E1208ED741C120C014E
:103CB300123CFF1208F1E4F50CF50D780C1208ED37
:103CC300741E120C01123CFF1208F1741E120C0137
:103CD300123CFF1208F1750B00780B1208F1750BFB
:103CE30007780B1208F112428112091BE9FEAA0898
:103CF300AB091212E680027E10023954E0F50B780C
:103D03000B2274E812041074FE1209B3851882851D
:103D13001983126C6689098C148D157E007F0075DA
:103D23000800741A120C011261548009EE2402FE79
:103D3300E43FFF0508126C145041E50875F00D12BD
:103D43003F182404FEE43FFFE070E8A3E070DDEEDB
:103D53002405FEE43FFFE82404F50AE439F50B8566
:103D63000A82F583E0F91214B4E960C7850A8285F3
:103D73000B83E0F91214BAEE2980B4123F2C7003BE
:103D8300023EF98A0E8B0F750800801AE50C240990
:103D9300FAE4350DFB8A82123F02123B14123F4EA6
:103DA3008C0E8D0F0508126C144003023E91E5083A
:103DB30075F00D123F2012579085820C85830D12EA
:103DC3003F47850C82850D83A3AA82AB83123F3ABA
:103DD300F0E50C2402F8E4350DF98882123F021253
:103DE3003F53F0E50E2404F50E5002050F850C82B7
:103DF300850D83E070AEE50E2402FCE4350FFD85EE
:103E03000E82850F83A3A882A9838A828B83E060B5
:103E130003023D8FE50C2404F512E4350DF51385FB
:103E23001282F583123F47E50C2405F516E4350DA0
:103E3300F517851682123F4C85168285178312501B
:103E43005EF0E50C2407F8E4350DF98882F583125A
:103E53003F3A123F53A3F0E50E2405F50E50020539
:103E63000F851282851383E0F91214B4E9700302FB
:103E73003DA7AC0EAD0FE50C240BF582E4350DF533
:103E83008312616D123F0C8A0E8B0F023DA7780AD5
:103E93001208ED8E0C8F0D780C1208ED7422120CA3
:103EA300011241371208F1E4F50CF50D780C1208F4
:103EB300ED7424120C011241371208F17424120C10
:103EC300011241371208F175080078081208F175DC
:103ED300080978081208F1AC14AD15740B120C0123
:103EE30012616DA90912428B12091BE9FEAA0AABE2
:103EF3000B1212E680027E10EEF974020265B6F52B
:103F030083E0850E82850F8322851282851383E0E9
:103F1300F91214AE22123F2012404AEE22A4F8A94D
:103F2300F0E51028F582E51122EEFAEFFB1212E01C
:103F33008A0A8B0BEA4B22123F3E22E0850E8285D2
:103F43000F83A322123F04F022F58312437AF02257
:103F5300A3A3124148123F3EA3A32274EA12041002
:103F6300890B8A108B118C0E8D0F7E007F00750AD2
:103F7300007416120C011249268003124017850C97
:103F830082850D83125F0840F2EEFAEF12699A60A0
:103F93007EA808A909750A008003124052850C8285
:103FA300850D83E0FAE50AC39A40EF78081208ED1D
:103FB3008E0C8F0D780C1208ED741E120C01124436
:103FC300BF1208F1E4F50CF50D780C1208ED74201E
:103FD300120C011244BF1208F17420120C01124496
:103FE300BF1208F1750A00780A1208F1750A0A78F7
:103FF3000A1208F1AC0EAD0FAA10AB11A90B1242B5
:104003008B12091BE9FEAA08AB091212E680027E95
:1040130010023B21E50A75F005A4F8A9F0E50C2888
:10402300F582E50D12404AA3A3A3126C6CA3A3E08F
:10403300F91214C08B09EA2403F8E43509F9EE28D0
:10404300FEEF39FF050A22125790A882A98322E5C1
:104053000A75F005A4FAABF01240A2858214858399
:104063001512437A1244D688828983A3F0E5141289
:104073005D0735158A12F5138A82F583123C0CA36A
:10408300F0E82403FCE439FD851482851583126C62
:104093000B123F0C8A128B13A812A913050A22E5EF
:1040A3000C2AF582E50D3BF583A322740212091B4A
:1040B3007F0E02066B74F612041074FE1209B3E944
:1040C300FE740C120C0112413DC0E07401120C018C
:1040D300D0E0F0A818A9198808890978081208ED12
:1040E30075080275090078081208ED7416120C01A0
:1040F3001241371208F17415120C011207387416A5
:10410300120C011241371208F17416120C011241FC
:10411300371208F175080078081208F175080B7852
:10412300081208F1EEF912428B12091B74021209EC
:104133001B024CB0E0F5087808221242951239436D
:10414300124148E022F088828983A32274EA120490
:104153001089138A108B11ECFEEDFF7416120C01FB
:104163001269BEE50A2402F50CE4350BF50D850C46
:1041730082F583E004751200F50E750F00FAAB0F9C
:1041830012699B7003024279850A82850B8312436D
:1041930080801DEAFC850A82850B83A3A3A3E02C00
:1041A300FBA3E034008B82123F4CA3A882A9830AAD
:1041B300850C82850D83E0FBEAC39B40D6850A828A
:1041C300850B83A3E0F87418120C01E0F97419123B
:1041D3000C01E0FA741A120C01E0FB7411687039D7
:1041E30078081208ED780E1208EDEBF50A780A123A
:1041F30008F1E4F50AF50B780A1208EDEAF50A78F6
:104203000A1208F1E9F50A780A1208F1750A00782A
:104213000A1208F1750A12803C741368704F78080B
:104223001208ED780E1208EDEBF50A780A1208F180
:10423300E4F50AF50B780A1208EDEAF50A780A1292
:1042430008F1E9F50A780A1208F1750A00780A12EA
:1042530008F1750A14780A1208F1EEFCEFFDAA10B2
:10426300AB11A91312428B12091BE9F512AA08AB71
:10427300091212E68003751210A9120240B3EEFC74
:10428300EFFDAA10AB11A90A121424740B221242D7
:1042930095221254DCF98882F5832274E812041003
:1042A30089108A128B13ECFEEDFF7418120C0112A5
:1042B300449C75F003A4A9F02401F50EE4391269B6
:1042C30096700302436F850C82850D8312438080B1
:1042D3002EEA75F003A4FCADF0E50C2CFCE50D3DD6
:1042E3001244781243761244D2888289831244E4BA
:1042F30088828983A3A3F0E82403F85001090A857F
:104303000A82850B83E0FBEAC39B40C57808120849
:10431300ED780E1208ED7420120C011244BF12083E
:10432300F1E4F50AF50B780A1208ED7422120C0178
:104333001244BF1208F17422120C011244BF120876
:10434300F1750A00780A1208F1750A0D780A120845
:10435300F1EEFCEFFDAA12AB13A91012428B120966
:104363001BE9FEAA08AB091212E680027E10EEF9E1
:104373000265B912437A22E0888289832212506E41
:10438300F0A3A882A9837A002274E8120410891288
:104393008A108B11ECFEEDFF7418120C0112449C71
:1043A300F50875090074027808120ADFE50824018C
:1043B300F50EE435091269967003024473850C8285
:1043C300850D83125065A3AA82AB8379008034E9FB
:1043D300F51475150074027814120ADFE50C251420
:1043E300FCE50D351512447812448C1244D28A82AE
:1043F3008B831244E41244C5A3A3A3A31244905095
:10440300010B09850A82850B83E0F8E9C39840BF55
:1044130078081208ED780E1208ED7420120C0112C0
:1044230044BF1208F1E4F50AF50B780A1208ED749B
:1044330022120C011244BF1208F17422120C011251
:1044430044BF1208F1750A00780A1208F1750A16BA
:10445300780A1208F1EEFCEFFDAA10AB11A91212B3
:10446300428B12091BE9FEAA08AB091212E680026D
:104473007E10024371FDEC2402F514E43DF515852D
:104483001482F583228E828F8312506E2212506E15
:10449300A3A3A3F0EA2404FA221244A8A385820A60
:1044A30085830BE022E0F50CA3E0F50D850C82F586
:1044B30083228E828F83A3A3A3A3A3A3E0F50A7809
:1044C3000A228A828B83A3A3F08C828D83A3221278
:1044D30044D6221244DBE022F0851482851583A39F
:1044E30022A3F08C828D83A3A3A3A3E02274F112F1
:1044F300041074EB1209B3EAFEEBFFC200EA2420B6
:10450300F8E43F8808F5098882F583C3E09403A3A0
:10451300E094005005790102490A90182C126C6648
:104523007402120C01126C66740E120C01E4F0A3F7
:10453300F0740A120C01E4F0A3F0740C120C01E401
:10454300F0A3F0EA2422F8E43F880AF50B8882F509
:10455300831266307404120C01AA82AB83121466B0
:104563008A0C8B0DA80CA90D740A120C01EAF0A396
:10457300EB124987FAA3E0FBEAC398F8EB99F985B4
:104583000A82850B83124912740C120C01124EDC41
:104593007408120C01E0901823F0EE241412491A47
:1045A300E0F91229908A828B83E5824583700C900F
:1045B300182CE4F0A3F0790202490A124965602B32
:1045C300EE2404F50AE43FF50BA3120738740B122B
:1045D3000C01E0FD7406120C01E05403FC12497552
:1045E30012141E740212091BE9700C90182CE4F0CB
:1045F300A3F0790302490A124975121496E9F50EDC
:10460300850A82850B8312616DEAFCEBFD90182409
:10461300800488828983124C907003024706888243
:104623008983A3A3124926C3EA950CEB950D40E2B7
:1046330088828983A3A3A3A3C3E09CA3E09D40D264
:10464300E8FCE9FD7404120C01E05407700D7409D1
:10465300120C01E0640B700302470AE50EA2E64068
:104663000302470AEE2419F582E43FF583E0600371
:1046730002470A7402120C01124944707A7402123E
:104683000C01124C8B70707C00850882850983E0D5
:10469300F912149C7401120C017401F07409120CC8
:1046A30001124932120C01E0F50C780C1208F17476
:1046B30007120C01120738750C01780C1208F174FB
:1046C30008120C011268681208F174051209838834
:1046D3000C890D780C1208ED7409120C0112495C57
:1046E300120C01124938120C0112495212091B7C97
:1046F3000112497512149C90182CE4F0A3F079056B
:1047030002490A7C007D007404120C01E0F8540392
:104713006003024830E8540460057E8402486E74E6
:1047230009120C01E0F8C39417400302482CE8F582
:104733000A750B007402780A120ADF744D250AF514
:1047430082742F350BF583E493F8740193F9E849E8
:10475300700302482C850882850983E0C0E0741049
:10476300120C01D0E0F0740C120C0112616D741183
:10477300120C01126C66740A120C0112616D74132F
:10478300120C01126C66741012098B8882898312D1
:1047930029D78B09A909740E120C01126C66EA4918
:1047A30060487409120C01E0F50875090074027879
:1047B30008120ADF744F2508F582742F3509F58333
:1047C300E493F87401938882F583E582458360124C
:1047D300740212098B1229D7740E120C01124C9019
:1047E3006008740E120C01126C037409120C01E0C0
:1047F300F860587402686053740368604E74056807
:1048030060497406686044740868603F740C6860AB
:104813003A74116860357413686030741568602BDE
:10482300740B6860267E0080427E82803EEC4D6081
:104833002A8C828D83A3A3124965601F7402120917
:104843008B1229D7E9FE74FF6E700B90182CE4F0DD
:10485300A3F0F902490A74016E70107404120C017A
:10486300E0540460047E8380027E817402120C0192
:10487300124944706B7402120C01124C8B706174F8
:1048830004120C01E0FA541070567401120C01EE7C
:10489300F07409120C01124932120C011241371241
:1048A30008F17407120C0112073875080178081211
:1048B30008F1EA1261421208F174051209838808AB
:1048C300890978081208ED7409120C0112495C1267
:1048D3000C01124938120C0112495212091BD20061
:1048E30090182CE4F0A3F0EE70047900801974841E
:1048F3006EA200700A50047907800C790680085074
:1049030004790980027908741512091B0251E8E041
:1049130028F8A3E039F922F508E43FF50985088270
:10492300F5832212492A22E0F50CA3E0F50D2212A9
:104933006BFE740822E02406FAA3E03400FB74093A
:10494300221254DCC82415F582E438F583E02212E0
:10495300617FF91214487407221266061266AE7458
:104963000922A3A3A3A31254DC8882F583E582451D
:104973008322850A82850B83126C0E850882850942
:1049830083E0F92212498B221265BEE02274F412ED
:1049930004108A088B09ECFEEDFF7C067D0079008C
:1049A300121232850882850983E054FCF8A3E0F9EA
:1049B3008E828F83E05403FAE84A8508828509834F
:1049C300F0A3E9126C76A2E25004D2F08002C2F0A6
:1049D300850882850983E054FBF0A2F0E433F50AED
:1049E300750B007402780A120ADFE0450A126C762E
:1049F300A2E3850882850983E050044408800254B9
:104A0300F7126C76A2E45004D2F08002C2F085085B
:104A130082850983E054EFF0A2F0E433F50A7404CD
:104A2300780A120ADFE0450A12562B8508828509A7
:104A330083E0540460108E828F83E0FAA3125ABA83
:104A4300124A6D50010F8E828F83124A61124A6897
:104A5300124A61A3F0EE125D073FFB0236E9123AF8
:104A6300F2A3A3A322125C08A322A3A3F0A3E9F059
:104A7300EE2402FE2274F71204108A828B83E05420
:104A8300038C828D83124AF05404124AE9540812AB
:104A93004AE95410F88C828D83E048F0A3AC82ADD0
:104AA300838A828B83E054046016124ADD12505FBE
:104AB3001241438C828D83A3F0EC2402FC50010D40
:104AC3008A828B83A3A3A312505E124AF512505F0E
:104AD300A3F0EC125D073DFB8027EA2402F8E43BD8
:104AE300F98882F58322F88C828D83E04812344959
:104AF300E022124AF922123B1CA3A3A3A3221213FE
:104B0300EE7F0102066BC082C08390182680048A60
:104B1300828B83123B0E600C8A828B83A3A3E06992
:104B230070ED80047A007B000236EEC082C0839071
:104B3300182880048A828B83123B0E600C8A828B36
:104B430083A3A3E06970ED80047A007B000236EE54
:104B530074F01204108A088B09ECFEEDFF1214782E
:104B63008A0C8B0DEA4B60647C0080010C850C82FF
:104B7300850D83A3A3A3A3A3A3A3E0F8ECC3985039
:104B83004BECF50E750F007403780E120ADF850CDB
:104B930082850D83A3A3A3A3124DD08882F583E45A
:104BA30093FA740193FBE5086A7003E5096B70BC23
:104BB300A3A3124BD37002EF6B70B17410120C01EC
:104BC300124BDD74081208097901800279008015FF
:104BD300E493FA740193FBEE6A221266B289838826
:104BE300822212091B7F0802066B74F6120410124C
:104BF3004C19600512616A80047A007B00024CB094
:104C030074F6120410124C19600512616880047A5C
:104C1300007B00024CB01214788A828B83E58245B4
:104C2300832274F7120410E9FFEAFCEBFD90182AC3
:104C3300800488828983124C90604688828983A38A
:104C4300A3E06F70ED7E0080010E88828983A3A3A9
:104C5300A3E0FAEEC39A50DAEE75F003A4FA85F0F6
:104C630008AB0888828983A3A3A3A3E02AFAA3E05D
:104C73003BFB8A82F583E06C7003A3E06D70CA800E
:104C8300047A007B00024B04126606A3A3125EFDA6
:104C9300E8492274F61204101214908A828B83E579
:104CA3008245836006A3A3E0F9800279007F0202B4
:104CB300066B74F6120410ECFF1214908B09A90909
:104CC300EA496015EA2402F582E439F583EF6005C9
:104CD300E0D2E68003E0C2E6F080D274F012041062
:104CE300EAFEEBFF8C098D0A1214728A0C8B0DEA13
:104CF3004B7003024DCB750B007410120C01125E46
:104D0300F9E8FAE9FB80128C828D83A3A3A3E493D1
:104D1300A2E35003024DB1050B850C82850D83A3DD
:104D2300A3A3E0F8E50BC3984003024DCBE50BF5D5
:104D33000E750F007402780E120ADF850C82850D42
:104D430083124DD0124E9E7002EF6970CA8A828B15
:104D530083E0F88C828D83A3A3E493C39840B87453
:104D630011650970197401650A609CE50A70A88CC5
:104D7300828D83A3A3A3E493A2E2403280997413A8
:104D830065097044E50A700D8C828D83A3A3A3E4A7
:104D930093A2E080E57401650A6003024D1A8C82D8
:104DA3008D83A3A3A3E493A2E14003024D1A7412DB
:104DB300120C01124EBE740412080988828983A35F
:104DC300A3125065790180027900024BE8A3A3A3E3
:104DD300A3E0250EF8A3E0350FF92274F0120410B6
:104DE300EAFEEBFF8C091214788A0E8B0FEA4B70E4
:104DF30003024E997A007B007410120C011254DCEA
:104E0300880AF50B80050AEA70010B850E82850F6F
:104E130083A3A3A3A3A3A3A3E0F8C3EA98EB9400FB
:104E230050748A0C8B0D7403780C120ADF850E8282
:104E3300850F83A3A3A3A3124EB0124E9E7002EF5D
:104E43006970C3A3A3E493F50C740193F50D850A6C
:104E530082850B83125EF9C3E50C98E50D9940A694
:104E6300EC2405F582E43DF583E493A2E7E433659E
:104E7300096006E493A2E6508D7412120C01124EDF
:104E8300BE740812080988828983A3A312582B12BF
:104E93004EDC790180027900024BE8E8FCE9FD88E9
:104EA30082F583E493F8740193F9EE6822A3A3A334
:104EB300A3E0250CF8A3E0350DF922125EFD8C82E8
:104EC3008D83E8FCE9FD22750A00850C82850D833C
:104ED300125EFD851882851983E8F0A3E9F0227438
:104EE300F1120410EAFEEBFFECFAEDFBEE4F700358
:104EF30002505BEC2402F50CE43BF50D8C828D83B0
:104F0300A3AC82AD838E088F09750A00E91207BD31
:104F1300044142285043443A50E0E2F34FE8E9A405
:104F23004F2508964F09A44F0AB54F0BF34F109620
:104F33004F18964F19A44F1AB54F1BF34F1C04502B
:104F43001D0D501E16501F1F5020964F21A44F2297
:104F5300B54F23F34F240450250D50261650271F19
:104F63005028964F29A44F2AB54F2BF34F2C0450AA
:104F73002D0D502E16502F1F5030964F31A44F3801
:104F8300A44F39F34F3A1F50EAF34FF01F50F14C3F
:104F9300505B508E828F83125065ECFAEDFB02500A
:104FA3005B124488124A6812505FF00A0AAB0D0282
:104FB300505B8E828F837808120BAA8A828B83E5DB
:104FC30008125C087808120BAAE5098C828D8312FB
:104FD3005C087808120BAA7410780812096A850C09
:104FE30082850D83E508F0EA2403FA506B0B806891
:104FF3008E828F831207341212BC740412091B8031
:105003005778081208E97C05804678081208E97C7D
:1050130006803D78081208E97C0780347808120876
:10502300E97C08802B78081208E98E828F83E024BC
:1050330001FCE43400800F78081208E98E828F8324
:1050430012517AFCE439FD800978081208E97C10D2
:105053007D001253BF12091B0251E8A3E08C828D1D
:10506300832212506EF0228E828F83E08A828B839A
:1050730022C082C083E91207BD03202F8C50383A27
:105083008C50E0E28C50009050790180027900024C
:1050930036EEE924F8607814607914607A14607B42
:1050A30024FB606B24F86067146068146069146003
:1050B3006A24FB605A14605B14605C14605D1460C6
:1050C3005E14605F14606014606114604214604396
:1050D3001460441460451460461460471460481417
:1050E300604914602A14602B24F9602714602C147F
:1050F3006039245A602514602214601F24FA601357
:1051030014601014601524FA60211460228024793D
:105113000180227902801E7903801A79048016792E
:105123000580127906800E7907800A79088006794E
:1051330010800279000208AF74F7120410E9FE74BC
:10514300446E600574436E700C8A828B8312517AAD
:10515300FAE439801574426E600574416E700E8AEC
:10516300828B83E02401FAE43400FB80071214BA33
:10517300E9FA7B00024B04E0FCA3E0F9EC240222F1
:1051830074F1120410EAFEEBFFEC2406F8E43D8808
:1051930008F5098882F583123B0E70047901804576
:1051A3008C828D83A31262958A0A8B0B8508828574
:1051B3000983E0F508A3E085080CF50D750E00786A
:1051C3000C1208E9AC0AAD0BEEFAEFFB1253BF1257
:1051D300091B740F120C011249696007E50AF0A359
:1051E300E50BF079007F0702066B74F0120410746C
:1051F300F81209B3890A8A088B09ECFEEDFFA81897
:10520300A919880C890D780C1208EDA90A1237A286
:1052130012091BE970047901804C7418120C0112F5
:105223006614741A120C011249267406120C011228
:105233004C90780C60161208ED7402120993AA0EB2
:10524300AB0F1214C6740212091B801A1208ED78F0
:105253000E1208EDEEFCEFFDAA08AB09A90A121421
:10526300D8740412091B7408024BE574F01204107D
:1052730074FE1209B38A0C8B0DECFEEDFF851882C8
:10528300851983E4F0A3F01214848A088B09EA4B8E
:10529300602FA818A919880E890F780E1208EDE45B
:1052A300F50EF50F780E1208ED7900EEFCEFFDAA6E
:1052B3000CAB0D8508828509831229D77404120962
:1052C3001B85188285198312616D7402024BE57484
:1052D300F01204108A088B09ECFEEDFF1214848A85
:1052E3000A8B0B7412120C01126614E50E450F6043
:1052F3000A850E82850F83E4F0A3F0EA4B602778DA
:105303000E1208ED7412120C011207387901EEFC2B
:10531300EFFDAA08AB09850A82850B831229D7748E
:105323000412091B800279C1024BE874F1120410C4
:10533300ECFEEDFF8C82F583A3A3A3A3A3E0A2E17C
:10534300506A1214EAE9F50A7065740F120C01121F
:1053530057BA901820124C906013AC08AD09EEFABE
:10536300EFFBE0F58388821229D7E9603AE5082448
:1053730003F8E435098808F5098882F5831253C5D3
:105383001262988A0C8B0DAC0CAD0D8508828509D1
:10539300831253D11208E98E828F83A3126168129C
:1053A30053BF12091B8008750A878003750A88A9F1
:1053B3000A0251E87C027D007A617B1A1212207482
:1053C3000322126C0E8E828F83A3A3A3A3221249FE
:1053D3002A750E00780C2274F21204108908ECFE70
:1053E300EDFF8C82F583A3A3A3A3A3E0A2E1504C1A
:1053F3001214EAE9F97047A9081214848A0A8B0B7C
:10540300EA4B6034E4F50CF50D780C1208ED7410DA
:10541300120C0112073879028E828F8312662E8E48
:10542300828F8312616D850A82850B831229D7745B
:105433000412091BE9F9800679C1800279887F0685
:1054430002066B74F2120410EAFEEBFF8C088D095E
:105453008C828D83A3A3A3A3A3E0A2E55014125EC1
:10546300D3600F7902AC08AD09EEFAEFFB1229D72E
:105473008002790080C874F4120410125B4E125833
:105483003B60538508828509831254DCC313E813F8
:105493008A828B83F07C0080328E828F83E0F508D2
:1054A300A3E0F8E4C8F9E50828E439F509EC25E0B8
:1054B300F8E433F9EA28F582EB125790E508F0A3F4
:1054C300E509F0EE2402FE50010F0C8A828B83E083
:1054D300F8ECC39840C30236E9E0F8A3E02274EA8B
:1054E3001204108A108B11EA2403F50CE43511F52C
:1054F3000D850C82F583126162750A00750E0075C5
:105503000F008049050A8E828F83A3A3E0F8EE245F
:1055130003FE50010FE870358E828F83E0F9A3AE4E
:1055230082AF83EEFAEFFB1214C08A088B09EE2ACE
:10553300FEEF3509FFEAA2E05007050804700205F3
:1055430009E50E2508F50EE50F3509F50F851082DF
:10555300851183A3125F0F12585540A875F006E515
:105563000AA404F508250EFAE4350F1257957003C3
:1055730002562412615CA808EA28F510E43BF511F1
:105583008A828B83E50AF0750B0002561AE50B75C8
:10559300F00612577B8E828F831257AB125B62F831
:1055A300851482851583A3A3F0EE2403FE50010F17
:1055B300E870628E828F831257A0A312562BEEFAE5
:1055C300EFFB1214C08A088B098E0C8F0D750E0029
:1055D300780C1208E9AC08AD09AA10AB111253BF3D
:1055E30012091B851482851583A3A3A3A3E510F0D9
:1055F300A3E511F0EE2508FEEF3509FFE508A2E06B
:10560300500705080470020509E5102508F510E5A3
:10561300113509F511050BE50BC3950A5003025526
:1056230090AA12AB130240B312562F22F08E828F30
:1056330083A3AE82AF832274EA1204108A108B1103
:10564300EA2403F50AE43511F50B850A821257B8EB
:10565300750F00750C00750D008042050F850882DB
:10566300850983A3A3E0F9E5082403F5085002059F
:1056730009FAAB091214C08A128B13AE12AF13E5E9
:10568300082AF508E5093FF509EAA2E050050E04EA
:1056930070010FE50C2EF50CE50D3FF50D8510821D
:1056A300851183A312663E124913C3E50898E509E1
:1056B3009940A875F005E50FA404FE250CFAE4351E
:1056C3000D1257957003025778850A82850B831252
:1056D30057BAEA2EF50AE43BF50B8A828B83E50F72
:1056E300F075100002576EE51075F00512577B85B3
:1056F30008828509831257AB124EDD85088285091E
:1057030083A3A31257A0F0E5082403F5085002056C
:1057130009FAAB091214C08A0C8B0DAE0CAF0D85C0
:10572300080C85090D750E00780C1208E9EAFCEBEC
:10573300FDAA0AAB0B1253BF12091B8514828515F0
:1057430083A3A3A3E50AF0A3E50BF0E5082EF50870
:10575300E5093FF509EEA2E050050E0470010FE5DF
:105763000A2EF50AE50B3FF50B0510E510C3950F5F
:1057730050030256EA025624A4F8A9F0E51228F5CC
:1057830082E5131257908582148583152239F58398
:10579300A322FB1212E08A128B13EA4B22E0F98553
:1057A3001482851583A3A322E0FAA3E0F9EA851402
:1057B3008285158322F583E0F508A3E0F5092274B9
:1057C300F0120410EA2403F50AE43BF50B850A8280
:1057D300125AA312583B604D850882850983E06401
:1057E300017002A3E07029124488A3F0750C0180B4
:1057F3002DE50C12585EF50EA3E0FDE50E888289B7
:1058030083A3A3F0A3EDF0050CEE2402FE50010FD9
:1058130085088285098312582B12585540D38A82F2
:105823008B83E50CF0024BE812582F22E0F8A3E03B
:10583300F9850A82850B83228A828B83A38582085A
:10584300858309E02401FAA3E03400FB1212E0EAA5
:105853004B22124912C3EE98EF9922125BBB123C02
:105863000C12562FE02274EA12041074FE1209B3CC
:105873008A0A8B0BEA2403F508E4350BF50985083E
:1058830082125AA3750E00750F008007EE2405FEE1
:1058930050010F850A82850B83A312663412585573
:1058A3005036050C8E828F83E070E1A3A3A3E0F54D
:1058B3000DEE2408FE50010FA90D1214B4E9600D7A
:1058C300A90D125A89500108125A9880C68E828FE8
:1058D30083A3AE82AF8380BB75F00CE50CA404F503
:1058E3000A250EFAE4350FFB1212E08A108B11EA37
:1058F3004B7003025A82850882850983126162A86C
:105903000AEA28F50EE43BF50F8A828B83E50CF057
:10591300750D00801888828983125ABAA3A3A3A3A2
:10592300A3A3A3A3124EDD0E0EEDFF050DE50DC3DC
:10593300950C4003025A82E50D75F00C123F2012BC
:1059430061387C0C7D007900AA08AB091212328EF3
:10595300828F83E0FB850882850983125864125A7B
:10596300AE124A6E50010F2402FCE43FFD8E828F7B
:1059730083A3A882A9838E828F83E0FAEB7096E5D6
:10598300082403F514E43509F515EA851482851511
:1059930083F0E9FF8882F583E0F50A8C828D83E04A
:1059A300F9E50A850882850983A3A3A3A3124EDD23
:1059B300E82402FE50010FF5828F83E0125AAEA352
:1059C300A3A3A3124A6D50010FEAF91214B4E970AC
:1059D3000302592E8E0A8F0BAA0EAB0F85148285F4
:1059E30015831262988A128B13A812A91385188241
:1059F3008519837401F0A3E4F0851882851983E087
:105A0300600C7512017513007A007B0080367512E5
:105A1300FF7513FFEA24FF1AEB34FF8026850A8201
:105A2300850B83E0C0E0E50E2AF582E50F3BF583A5
:105A3300D0E01266B8A385820A85830BEA2512FAA1
:105A4300EB3513FBE8FCE9FDEC24FF18ED34FFF91B
:105A5300EC4D70C9850882850983A3A3A3A3A3A3DF
:105A6300A3A3A3A3E50EF0A3E50FF0851482851588
:105A730083E0F9125A89500108125A9802592EAA42
:105A830010AB110240AE1214BAE9F8EE29FEE43F5E
:105A9300FFE9A2E022E50E28F50EE4350FF50F220B
:105AA300F583E0FEA3E0FF750C0022FCA3E0F9EC14
:105AB30085088285098322E0F9EA850882850983BE
:105AC3002274F4120410125C5AF8A3E0F97A037BEF
:105AD300001202C8E8F50875F003A4A9F02401FA3E
:105AE300E439FB125D0E60278A828B83E508F0752B
:105AF30008008012E50812585E125BCDF0EE240216
:105B0300FE50010F05088A828B83126C1A40E5024E
:105B130036E974F6120410125BEE6003125BFB02AB
:105B23004CB074F6120410125B4E7A03125D0C60D3
:105B3300178E828F831236C9F9EC8A828B83125BAC
