:020000040000FA
:06000000020B8C020272EB
:03002B0002094681
:030033000206E7DB
:030053000201A700
:03006B000206C1C9
:100083000202060100F0FF0700080000FFFF000066
:10009300070400000F010147726F757000FF040031
:1000A300100502640A2FAC092FAC09C0C1C2C3C436
:1000B300C5C6C7C8C9CACBCCCDCECF5A69674265BE
:1000C30065416C6C69616E636530390100FFFFF255
:1000D300E0A161000000000001B784B40CBA0CC6B3
:1000E3000CC00C0020FD000206FFFF1E0153573415
:1000F3003A2048656C702020202020202000241501
:1001030000000000000000000000000000000000EC
:1001130000000000000010202020202020202020AC
:100123002020202020202001200401000100024B78
:100133008401B9840104020000CC18000000E80324
:100143000000FFFF44190103E8030000640064009A
:10015300B801A0BB0D00A0BB0D0002020207040101
:100163000101051E02051E020A0A01010108090810
:100173000103B80B02803E0102FEFFE8030A0500FB
:1001830001FFFF0A011401E00105030101FF0F1044
:10019300FEFFAF2B00000000832A00000000FF00D9
:1001A3000000FF00C0E074F1120489A2AFE433F54C
:1001B30009D2AF85A708AFA1EF5508FE74105E60A2
:1001C30006120EB875A1EF74085E6008120EBE75B4
:1001D300A1F78024EFA2E092F0E508A2E082F050BC
:1001E30017906198E0F89004B7E0C398A2D265D065
:1001F300335002E8F075A1FEE509A2E092AF7F0259
:100203000204E8C0E074F2120489A2AFE433FED220
:10021300AF9061A4E0F8759B00E59158540860081D
:100223007591F7120F0C8023E591585410600875EF
:1002330091EF120F128014E591A2E092F0E8A2E090
:1002430082F05007E0C2E0F012105C9061A3E0F886
:10025300E5E9585404600E12103275E9FB9061937E
:10026300E0A2E640F2EEA2E092AF7F010204E8C012
:10027300E074F2120489A2AFE433FED2AF9061A519
:10028300E0F8E5BF585404600675BFFB1210748094
:10029300D4C3E498F8E499F91202D58026C3E49A0A
:1002A300FAE49BFBE920E7E91202D5E498F8E49924
:1002B300F922C3E498F8E499F91202D5E498F8E432
:1002C30099F9C3E49AFAE49BFB22EB20E7CFE920F8
:1002D300E7E0B90010BB0008E88AF084F8AAF0222E
:1002E300E4FBC8FA22EB70227B10C833C8C933C9B8
:1002F300335007C39AC3DBF280069A50012ADBEA24
:10030300C833F4C8C933F4C9FA2275F008E4C83312
:10031300C8C933C933C99AC99B5004C92AC93BD533
:10032300F0ECFBC833F4C8E4C9FA22080808EAC0B1
:10033300E0EBC0E086F0E7A4FA180986F0E7A42A08
:10034300FA180986F0E7A42AFA180986F0E7A42A1E
:10035300FA1986F0E7A4FBE5F02AFA190886F0E714
:10036300A42BFBE5F03AFA190886F0E7A42BFBE58A
:10037300F03AFA18180986F0E7A4C5F02BFBE43A23
:10038300FA1908E7C5F0C6A426F6E5F03BFBE43A04
:10039300FA1886F0E7A4F6E5F00826F6E43B08F63B
:1003A300E43A08F6D0E0FBD0E0FA22E4CFC0E0E480
:1003B300CEC0E0E4CDC0E0E4CCC0E075F020E6269A
:1003C300F608E633F608E633F608E633F6181818A7
:1003D300EC33FCED33FDEE33FEEF33FFC3EC970953
:1003E300ED9709EE9709EF97191919400FFFEC974D
:1003F300FC09ED97FD09EE97FE191906D5F0BFEC40
:10040300F709EDF709EEF709EFF7191919D0E0FC31
:10041300D0E0FDD0E0FED0E0FF222518C582C0E089
:10042300E51934FFC583C0E0E518C3958224F810AD
:10043300AF088583198582188008858319858218FA
:10044300D2AFCEF0A3E520F0A37808E608F0A3DE50
:10045300FAEFF0A3E58124FAF8E608F0A3E608F042
:10046300A3E608F0A30808E608F0A3E608F0A3153E
:10047300811581D0E0FED0E0F8158115811581E862
:10048300C0E0EEC0E022C0D02518C582C0E0E51967
:1004930034FFC583C0E0E518C3958224F310AF0889
:1004A3008583198582188008858319858218D2AFC0
:1004B300C8F0A3E9F0A3EAF0A3EBF0A37908E709F6
:1004C300F0A3D8FAECF0A3EDF0A3EEF0A3EFF0A3C2
:1004D300D0E0F0A3D0E0F0A3D0E0F0A3E520F0A3B8
:1004E300E5F0F0A322851983851882E0C0E0A3E03C
:1004F300F9A3E0FAA3E0FBA37808E0F608A3DFFA88
:10050300E0FCA3E0FDA3E0FEA3E0FFA3E0C0E0A3C3
:10051300E0C0E0A3E0F5D0A3E0F520A3E0A3F5F06D
:1005230010AF088583198582188008858319858211
:1005330018D2AFD082D083D0E0F8D0E032120C06CC
:10054300B9000302057FE490040178AA791A8002B6
:10055300F0A3D8FCD9FA7AAA7B1D90008678227979
:10056300028015E493A3AD82AE838A828B83F0A3CA
:10057300AA82AB838D828E83D8E9D9E77582E4752D
:1005830083C374061208B9758280758328740012B8
:1005930008B9E4730375F0108E1A8F1B85821F85CB
:1005A300831E851882851983E0CEA3E0CF851F8241
:1005B300851E83EBC9EAC8EDCBECCAC3E833C8E9AF
:1005C30033C9EA33CAEB33CBC3EA9EF51DEB9FF580
:1005D3001CB35004AB1CAA1DEC33CCED33CDD5F0CA
:1005E300DAAE1AAF1B22D083D082ECC0E0EDC0E0BC
:1005F300E493A3FCE493A3FDED4C600D120705EC1B
:1006030024FFFCED34FFFD80EFE493A3FCE493A30C
:10061300FDED4C600D1207A2EC24FFFCED34FFFD51
:1006230080EFD0E0FDD0E0FCE493A3C0E0E493C00E
:10063300E022D083D082E9C0E0E493A3C386F0C56F
:10064300F095F0F908E493A386F0C5F095F0700BEC
:10065300E493A3C3994005E9048002A3E475F0027F
:10066300A42582F582E5F03583F583D0E0F9E493A0
:10067300A3C0E0E493C0E022851983851882E0A338
:10068300FEE0A3F5207808E0A3F608DFFAE0A3FF75
:10069300E0A3C0E0E0A3C0E0E0A3C0E0E0A3C0E0CB
:1006A300E0A3C0E010AF0885821885831980088510
:1006B3008218858319D2AFD083D0820208BFC0E0ED
:1006C30074F2120489A2AFE433FED2AFE589A2E14A
:1006D3005003120DB6758900C2C5EEA2E092AF7F3A
:1006E300010204E8C0E074F2120489A2AFE433FE0D
:1006F300D2AFE58BA2E05003120DB6758B00C2E8B2
:1007030080D8C0E0C3E49396087401939618400F11
:10071300E49366700808740193661870007019A357
:10072300A3C3E49396087401939618A3A3400DD032
:10073300E0D0E0D0E0020625A3A3A3A3A3A3D0E0C7
:10074300227404800474028000CCC0E0EDC0E0E5B4
:1007530018C39CCCAD1950011D10AF068C188D1910
:1007630080068C188D19D2AF12083BD0E0FDD0E083
:10077300FC2274028000CCC0E0EDC0E0E518C39C0D
:10078300CCAD1950011D10AF068C188D1980068C45
:10079300188D19D2AF120819D0E0FDD0E0FC22C0A9
:1007A300E0C0F088F0E4936670080874019366185B
:1007B3007000A8F0A3A3700BD0F0D0E0D0E0D0E09D
:1007C300020625A3A3D0F0D0E022D083D082CCC0F0
:1007D300E0E493A3600612085C1470FAE493A36048
:1007E300061209D91470FAD0E0FCE493A3C0E0E444
:1007F30093C0E022A2E792D65002F40430F70663D6
:10080300F0FF05F0B3400384800384F40430D6057D
:1008130063F0FF05F022CAC0E0E493A3C582CCC510
:1008230082C583CDC583F0A3C582CCC582C583CDE4
:10083300C583DAE5D0E0CA22CAC0E0E0A3C582CC12
:10084300C582C583CDC583F0A3C582CCC582C583CC
:10085300CDC583DAE6D0E0CA22C0E0E493A3D39CFB
:100863005010E493A3C39C400AD0E0D0E0D0E00250
:1008730007EAA3A3A3D0E0227009080808226016A0
:10088300181818C6C333C608C633C608C633C60805
:10089300C633C6D5E0EA22C008C3E096F50808A32C
:1008A300E096420808A3E096420808A3E0964508AC
:1008B3007001D3D00822C09FF59FE473D09F22D04C
:1008C30083D082C09FE493C0E0740193C0E07402BC
:1008D30093F59F22C5822518C582C583351910AFAC
:1008E30007F5198582188007F519858218D2AFC5D7
:1008F30083227404800A74038006740280027401E4
:10090300C0E0F404120910D0E0120BC9222518F537
:100913008210AF08F518400C15198008F51840022D
:100923001519D2AF8519832200C0D0251810AF083E
:10093300F518500C05198008F51850020519D2AFA7
:10094300D0D022C0E0C0D0E8C0E0A8A8D2AFC2C7D0
:10095300E8A2E792AFD0E0F8D0D0D0E032BB0102FA
:10096300E722C082C08389828A83BB0003E08002BE
:10097300E493D083D082226016080808C6C313C646
:1009830018C613C618C613C618C613C6D5E0EA227E
:100993002518F8E43519F9222518FAE43519FB224C
:1009A3002518FCE43519FD22C3E0C696F608A3E03A
:1009B300C696F608A3E0C696F608A3E0C696F62206
:1009C300251810AF08F518400C15198008F51840C4
:1009D300021519D2AF22C0E0E493A36C7009D0E0F2
:1009E300D0E0D0E00207EAA3A3D0E022E7667010CC
:1009F3000809E766700A0809E76670040809E766EC
:100A030022E066701008A3E066700A08A3E066702F
:100A13000408A3E06622C3E09608A3E09608A3E0D7
:100A23009608A3E096A2D265D03322C3E096F008DD
:100A3300A3E096F008A3E096F008A3E096F022C3A3
:100A4300E4939608740193960874029396087403CA
:100A5300939622C3E697F60809E697F60809E69700
:100A6300F60809E697F622E627F60809E637F608B8
:100A730009E637F60809E637F622E026F608A3E08A
:100A830036F608A3E036F608A3E036F622E493F63A
:100A930008740193F608740293F608740393F6221C
:100AA300E026F008A3E036F008A3E036F008A3E060
:100AB30036F022E056F008A3E056F008A3E056F023
:100AC30008A3E056F022E046F608A3E046F608A3A2
:100AD300E046F608A3E046F622E647F60809E647AD
:100AE300F60809E647F60809E647F622700422608D
:100AF3000D18C6C333C608C633C6D5E0F41822E6BC
:100B030057F60809E657F60809E657F60809E657BF
:100B1300F622E056F608A3E056F608A3E056F608D8
:100B2300A3E056F622E046F008A3E046F008A3E06F
:100B330046F008A3E046F022E4C396F608E496F6EE
:100B430008E496F608E496F622600D08C6A2E713B9
:100B5300C618C613C6D5E0F322C6F4C608C6F4C643
:100B630008C6F4C608C6F4C622C3E09608A3E096F6
:100B730008A3E09608A3E09622C3E7960809E79640
:100B83000809E7960809E7962275D00075813F7535
:100B9300180175190400020540E6F008A3E6F00801
:100BA300A3E6F008A3E6F022600C08C6C313C61838
:100BB300C613C6D5E0F422E0F608A3E0F608A3E0E6
:100BC300F608A3E0F622CAC0E0E6F0A308DAFAD0FA
:100BD300E0FA22E8F0A3E9F0A3EAF0A3EBF022E0C5
:100BE300F8A3E0F9A3E0FAA3E0FB22EAF0A3EBF019
:100BF300A3ECF0A3EDF022E0FAA3E0FBA3E0FCA357
:100C0300E0FD22E5C754F84401F5C7790122251810
:100C1300F582E43519F58322C2AF75D69F02000031
:100C2300221208C28ADF051208C2CFDF051208C2EA
:100C330054E0051208C2A0E0051208C230E1051213
:100C430008C208E2051208C259E2051208C2BEE250
:100C5300051208C23BE3051208C271E3051208C27C
:100C6300BCE3051208C2E2E3051208C272E40512EE
:100C730008C209E5051208C255E5051208C286E552
:100C8300051208C2BDE5051208C24EE7051208C2E7
:100C930018E8051208C2F2E8051208C29DC2041240
:100CA30008C2D0C2041208C218C3041208C224C561
:100CB300041208C274C7041208C2A7C7041208C2E8
:100CC30076CA041208C20DCD041208C298CD0412CC
:100CD30008C214D1041208C2E0D1041208C251D3CD
:100CE300041208C2D3D3041208C2A4D4041208C243
:100CF300E1D6041208C276D7041208C258D90412E6
:100D030008C267DC041208C26ADC041208C27DDC74
:100D1300041208C2CADC041208C269BC051208C264
:100D2300D6C0051208C23AC1051208C25BC2051239
:100D330008C223C6051208C2A0C9051208C27ACB8D
:100D4300051208C2C8CB051208C283CD051208C21A
:100D530021FF021208C232FF021208C2D0FF0212A0
:100D630008C2E8FF021208C2F5FF011208C2DAD571
:100D7300061208C2ECD2061208C2FCD2061208C23E
:100D830014D3061208C27CD3061208C24FD006122F
:100D930008C2D2D0061208C238D1061208C288CDC2
:100DA300061208C2A7CD061208C214CE061208C244
:100DB30059CE061208C2B2CE061208C27AFB03123B
:100DC30008C28FFB031208C29AFC031208C2CBFCB1
:100DD300031208C2E5FC031208C25BFD031208C23A
:100DE30040FE031208C2B4FE031208C2CEFE031271
:100DF30008C2E5FE031208C2F3FE031208C20BFF8A
:100E0300031208C220FF031208C245FF031208C2DF
:100E130095FF031208C212B4061208C220B40612C8
:100E230008C299B4061208C26DB5061208C23FB7CC
:100E3300061208C2BFD4061208C2EDD5061208C2B4
:100E4300F2D5061208C2F9D5061208C2FBD506125E
:100E530008C27C9A061208C2A89A061208C2199DF3
:100E6300061208C2599D061208C2999D061208C2AD
:100E7300AD9D061208C2C69D061208C2B79E061291
:100E830008C25C9F061208C2709F061208C2F1CE08
:100E9300061208C215CF061208C22ECF061208C2C8
:100EA30060CF061208C290CF061208C2BDCF061249
:100EB30008C21FD0061208C22ED0061208C238D0AC
:100EC300061208C245D0061208C23FC1061208C264
:100ED3005FC1061208C29EC1061208C2B9C106123A
:100EE30008C2D8C1061208C23EC2061208C247C2CF
:100EF300061208C2A4C2061208C2B3C2061208C26E
:100F0300D7C2061208C298C3061208C2A5C30612A6
:100F130008C2B6C3061208C2B2FF041208C2CAFF4F
:100F2300041208C2F6FF041208C25BA4061208C228
:100F3300B5A5061208C2C3A5061208C2D6A5061295
:100F430008C2EBA5061208C200A6061208C213A621
:100F5300061208C287A6061208C2ECA6061208C229
:100F63008EA7061208C252A8061208C262A8061269
:100F730008C271A8061208C253D2061208C277D259
:100F8300061208C29FD2061208C2C7D2061208C2AE
:100F930001C9061208C228C9061208C246C90612A8
:100FA30008C2B9C9061208C26CBE061208C285BEC1
:100FB300061208C291BE061208C2A5BE061208C2D6
:100FC300C3BE061208C2CDBE061208C2D7BE0612A1
:100FD30008C2EABE061208C270BF061208C2E5BF05
:100FE300061208C214C0061208C262C0061208C262
:100FF300B1C0061208C2CCC0061208C2D6C006127F
:1010030008C2E7C0061208C22AC1061208C2E1D309
:10101300061208C2E589061208C20F8A061208C220
:101023002C8A061208C23F8A061208C2558A061283
:1010330008C2B38A061208C2EB8A061208C2DF8E00
:10104300061208C22490061208C25790061208C25C
:10105300BA90061208C21A92061208C242920612E7
:1010630008C25792061208C26792061208C2AB92D0
:10107300061208C20693061208C21693061208C285
:10108300C37E001208C2DD7E001208C2057F001273
:1010930008C21E7F001208C2427F001208C2607F8E
:1010A300001208C2777F001208C2A57F001208C28F
:1010B300C07F001208C27BD4061208C2A4B706126E
:1010C30008C2B4B7061208C2B9B8061208C2EBB810
:1010D300061208C21BB9061208C23EB9061208C29C
:1010E30055B9061208C28FB9061208C2F4B906121E
:1010F30008C236BA061208C275BA061208C2A6BAE0
:10110300061208C2D1BA061208C2F37F001208C23F
:10111300F67F001208C2F97F001208C2C0D506127A
:1011230008C2D0D5061208C27EC6061208C29EC6E1
:10113300061208C2B2C7061208C2D3C8061208C2F2
:101143001AFE041208C250FE041208C266FE0412FC
:1011530008C2A8FE041208C2B8FE041208C2C7FEE1
:10116300041208C20BFF041208C2A5FF041208C22E
:10117300AFFF041208C20080061208C20A800612DA
:1011830008C23580061208C27E80061208C2E780B4
:10119300061208C20481061208C21D81061208C283
:1011A300BF81061208C23E84061208C24884061292
:1011B30008C28D84061208C2B284061208C2BF8414
:1011C300061208C23085061208C2BB85061208C281
:1011D3000D86061208C24B86061208C2B086061296
:1011E30008C2D386061208C24A87061208C2A1871C
:1011F300061208C2DC87061208C21188061208C24A
:101203002388061208C23588061208C254880612BB
:1012130008C25D88061208C21889061208C26489CA
:10122300061208C2A289061208C2B989061208C2A8
:10123300B5FE011208C27FD3061208C252CB0612B2
:1012430008C288CB061208C2D0CB061208C229CD29
:10125300061208C28496051208C2A897051208C28E
:10126300E297051208C28C99051208C2B6990512B5
:1012730008C22B9C051208C26B9C051208C2019E72
:10128300051208C29E9E051208C2F09E051208C2EE
:10129300939F051208C2CB9F051208C20DA0051229
:1012A30008C27CA1051208C2CAA2051208C2FBA487
:1012B300051208C229A5051208C250A5051208C2C5
:1012C30059A5051208C2B0A5051208C242A6051207
:1012D30008C26FA9051208C2F2A9051208C282D575
:1012E300061208C298D5061208C2AAA8061208C296
:1012F300C0A8061208C264A9061208C2A3A906124E
:1013030008C2C0A9061208C2F1A9061208C23EAA61
:10131300061208C271AA061208C2ACAA061208C2B3
:10132300A1AC061208C2FFFE051208C25EFF051239
:1013330008C29CFF051208C2DDFF051208C2DED4F5
:10134300031208C2EAD4031208C22ED7031208C23A
:1013530038D7031208C2CAD7031208C206D8031229
:1013630008C2C0D8031208C210D9031208C27BD91D
:10137300031208C2E9D9031208C221DA031208C210
:10138300A1DA031208C266DC031208C25DDE03128F
:1013930008C25FDF031208C20CE0031208C2C9E4EB
:1013A300031208C2C3E5031208C25DE6031208C2B2
:1013B30082E6031208C21EE7031208C233E70312D0
:1013C30008C257E7031208C2C8E7031208C2E5E7D9
:1013D300031208C20FE8031208C2A3E9031208C2EA
:1013E30049EA031208C290EA031208C2F9EA031297
:1013F30008C27AEB031208C2DEEB031208C23AEC0E
:10140300031208C2DEEC031208C248ED031208C23D
:101413007CED031208C2E0ED031208C236EF03129B
:1014230008C2A6F0031208C254F1031208C282F1E3
:10143300031208C29CF3031208C227F6031208C260
:1014430037F7031208C28CA5041208C21BA60412A4
:1014530008C291A6041208C270A7041208C26BA89E
:10146300041208C2E8A8041208C226AA041208C279
:10147300C1AA041208C298AC041208C287AD0412B0
:1014830008C2A4AD041208C286AE041208C2C7AFD4
:10149300041208C269B0041208C29BB3041208C242
:1014A30097B5041208C221B6041208C27BB604120F
:1014B30008C2C9B6041208C244B7041208C2C1B7AD
:1014C300041208C202B8041208C280BE041208C281
:1014D300D1C0041208C2A8C1041208C2BDF6041286
:1014E30008C298F7041208C238F9041208C29DF919
:1014F300041208C203FB041208C20DFC041208C242
:1015030090FC041208C2D0FC041208C264FD041249
:1015130008C2BEFD041208C2E3FD041208C20BFE9A
:10152300041208C20EFE041208C217FE041208C2F7
:101533002ED5061208C256CE051208C2E0CE0512F9
:1015430008C257CF051208C267D2051208C2EAD3F0
:10155300051208C21AD6051208C25FD7051208C2BF
:10156300BAD9051208C2E8D9051208C226DA05124B
:1015730008C29FDA051208C245DB051208C256DB12
:10158300051208C25DDB051208C2F0DB051208C2B2
:1015930042DC051208C251D1061208C29CD10612C0
:1015A30008C246DD041208C275DD041208C2F6DD66
:1015B300041208C244DF041208C223E0041208C262
:1015C300A7E1041208C2CCE1041208C21EE204120D
:1015D30008C2A0E2041208C2E7E2041208C2FAE257
:1015E300041208C256E3041208C293E3041208C2A9
:1015F30079E4041208C2B4E4041208C2FFE5041239
:1016030008C2D2E6041208C216E8041208C2FDE8B2
:10161300041208C281E9041208C2C4E9041208C210
:10162300DEE9041208C225EA041208C245EA0412DC
:1016330008C209EB041208C22AEC041208C282ECA5
:10164300041208C2C6EC041208C2BCED041208C29C
:1016530052F0041208C271F0041208C2F1F004122D
:1016630008C216F1041208C293F1041208C252F21E
:10167300041208C28FF2041208C208F3041208C24B
:10168300FCF3041208C2FFF3041208C209F40412A3
:1016930008C213F4041208C226F4041208C290F418
:1016A300041208C2C6F4041208C2D9F4041208C210
:1016B30000F5041208C224F5041208C25FF50412EF
:1016C30008C2D1F5041208C2F9F5041208C203F6E0
:1016D300041208C23FF6041208C274F6041208C2C8
:1016E3008AF6041208C22CD4061208C244D4061285
:1016F30008C2FC7F001208C24693061208C29593E3
:10170300061208C23595061208C2F096061208C2E0
:101713003297061208C25198061208C25B99061244
:1017230008C27D99061208C2C799061208C2489AD0
:10173300061208C20080041208C21F80041208C2E5
:10174300BC80041208C20581041208C26C81041211
:1017530008C2E481041208C24B82041208C24E82FA
:10176300041208C29182041208C21583041208C22B
:10177300A083041208C2A383041208C24084041283
:1017830008C28384041208C20989041208C29A8A0F
:10179300041208C2E78A041208C24D8E041208C25A
:1017A300768F041208C23B90041208C2E890041218
:1017B30008C23291041208C2BC93041208C26F9586
:1017C300041208C2EF95041208C2EB98041208C26F
:1017D3005799041208C2489A041208C2649D04125D
:1017E30008C2749D041208C2E29E041208C2719FCB
:1017F300041208C2B6A0041208C246A1041208C209
:1018030089A2041208C2EEA3041208C23FA4041260
:1018130008C2E0A4041208C2256A001208C2C56AFD
:10182300001208C22F6B001208C2B16B001208C26B
:10183300076C001208C2546C001208C2B36C001289
:1018430008C2BE6D001208C2D370001208C205722E
:10185300001208C28672001208C28574001208C200
:101863003275001208C2D075001208C29B760012AE
:1018730008C28077001208C24B79001208C2B37AFB
:10188300001208C2C37B001208C2657C001208C2A2
:10189300847D001208C226E0021208C2A2E00212EE
:1018A30008C2EAE0021208C228E1021208C26FE18C
:1018B300021208C2B9E1021208C217E2021208C2F8
:1018C30071E2021208C2E0E3021208C207E4021244
:1018D30008C2FCE4021208C20EE6021208C269E65C
:1018E300021208C280E7021208C2A8E7021208C265
:1018F300ECE8021208C2FDE8021208C215E902125E
:1019030008C225EA021208C22FEB021208C238EB02
:10191300021208C24FEB021208C281EB021208C284
:101923009EEB021208C2B5EB021208C2D7EC0212F8
:1019330008C2DBED021208C203EE021208C20DEE6A
:10194300021208C278EE021208C257EF021208C24E
:10195300B3EF021208C234F0021208C27EF0021280
:1019630008C2F8F0021208C2B6F2021208C2ACF3BF
:10197300021208C2FAF3021208C276F5021208C272
:1019830001F7021208C264FB051208C202FB02122D
:1019930008C2B9FB021208C21FFC021208C23BFCB8
:1019A300021208C22BFD021208C217FE021208C25D
:1019B30084FE021208C229BB061208C2CEBC06125C
:1019C30008C294BD061208C2F8BD061208C267B069
:1019D300061208C285B0061208C2C9B0061208C2B0
:1019E300EFB0061208C215B1061208C22DB10612D5
:1019F30008C290B1061208C2D2B1061208C26EDF45
:101A0300051208C2FDB2061208C206B3061208C2C6
:101A13000FB3061208C219B3061208C2849F061236
:101A230008C29FA3061208C2ADA3061208C2B2A33E
:101A3300061208C20BC5061208C2CAFF031208C267
:101A4300F7D4061208C259D5061208C2A2D5061247
:101A530008C20080031208C23280031208C29E80AB
:101A6300031208C23981031208C2D881031208C2C3
:101A73001D82031208C23F82031208C25882031256
:101A830008C27E82031208C2BC82031208C200830A
:101A9300031208C22283031208C28483031208C2FA
:101AA3004B84031208C20285031208C27485031211
:101AB30008C24686031208C29086031208C2E38650
:101AC300031208C24987031208C28387031208C29C
:101AD300D587031208C2F187031208C21C880312B8
:101AE30008C2238A031208C2778B031208C2998B98
:101AF300031208C2CD8B031208C2EE8B031208C275
:101B0300FD8B031208C2088C031208C2B88C03129F
:101B130008C2218D031208C2CE8D031208C2068E9D
:101B2300031208C2CC8E031208C2D98F031208C253
:101B33002390031208C2B290031208C21691031233
:101B430008C25191031208C2BD93031208C2119532
:101B5300031208C24A98031208C21799031208C253
:101B6300A599031208C2CE99031208C2409A031220
:101B730008C2D49A031208C2C69B031208C2E89B88
:101B8300031208C2449D031208C25D9D031208C2DA
:101B9300709D031208C2259E031208C2359E0312CC
:101BA30008C2379F031208C2AE9F031208C2DD9F0B
:101BB300031208C2E3A0031208C229A1031208C238
:101BC300F5A2031208C2CDA6031208C2D7A60312B8
:101BD30008C2EBA6031208C2F5A6031208C2FFA6A9
:101BE300031208C209A7031208C222A7031208C2DC
:101BF3002CA7031208C2A0A7031208C2ABA70312A3
:101C030008C2D0A7031208C2DBA7031208C229A87F
:101C1300031208C233A8031208C23EA8031208C263
:101C230062A8031208C286A8031208C2E2A803121C
:101C330008C228A9031208C245A9031208C2C2A9EF
:101C4300031208C2F9A9031208C238AA031208C270
:101C530085AA031208C207AB031208C2A0AB031282
:101C630008C270AD031208C2CEAD031208C2EAAEB9
:101C7300031208C210AF031208C24FB0031208C206
:101C830075B3031208C2B6B5031208C292B70312A2
:101C930008C228B8031208C24FBA031208C2FBBA1B
:101CA300031208C230BB031208C295BB031208C259
:101CB3009FBB031208C2C9BD031208C2F0BE0312C0
:101CC30008C230BF031208C2D6BF031208C267C1DD
:101CD300031208C2F0C2031208C210C3031208C2DF
:101CE30069C3031208C26BC4031208C2B5C403124A
:101CF30008C205C5031208C2EFC5031208C264C6B1
:101D0300031208C27EC7031208C2F9C7031208C22E
:101D1300FEC8031208C2A9CB031208C2C8CB031220
:101D230008C229CD031208C2EBCE031208C23FCF6B
:101D3300031208C2F7CF031208C2A3D0031208C2CA
:101D4300F9D0031208C2AFD1031208C244D203125E
:101D530008C2B0D2031208C2EAD2031208C21BD3CC
:101D6300031208C277D4031208C20080021208C209
:101D73003280021208C26980021208C2458202122E
:101D830008C28582021208C26883021208C2C08395
:101D9300021208C2FB84021208C24785021208C25B
:101DA3006F88021208C2D18B021208C21E8D021262
:101DB30008C2B48D021208C2C08D021208C2F28D8D
:101DC300021208C2748F021208C28290021208C261
:101DD300AC90021208C20391021208C25C91021273
:101DE30008C2C891021208C2DF93021208C26E959C
:101DF300021208C23896021208C27697021208C26B
:101E0300A699021208C2769C021208C2839C02128F
:101E130008C20A9D021208C2B29D021208C2F59DB1
:101E2300021208C23E9E021208C2929E021208C209
:101E3300F79E021208C25F9F021208C27C9F021221
:101E430008C2AC9F021208C2E19F021208C2B1A0ED
:101E5300021208C25AA1021208C2DEA3021208C269
:101E6300FEA4021208C2E7A5021208C269A6021262
:101E730008C28BAA021208C2C8AA021208C220AB67
:101E8300021208C253AB021208C2D4AB021208C238
:101E930021AC021208C2ACAC021208C2FEAC0212A0
:101EA30008C2D5AD021208C28EAE021208C229AF13
:101EB300021208C242B2021208C262B3021208C27C
:101EC30013B7021208C22AB8021208C22DB80212AE
:101ED30008C25CB8021208C262BA021208C23BBB53
:101EE300021208C270BB021208C2E6BC021208C288
:101EF30058BD021208C239BE021208C206BF02123E
:101F030008C23CC1021208C2ADC1021208C2EDC12F
:101F1300021208C24EC2021208C211C6021208C23D
:101F230000C7021208C2E7C7021208C2B3C80212EE
:101F330008C2CFC9021208C2E0C9021208C2F4C91A
:101F4300021208C22CCA021208C25ACA021208C2DA
:101F530034CC021208C2CBCC021208C236CD021214
:101F630008C215CF021208C245CF021208C229D0F7
:101F7300021208C2DAD0021208C28FD2021208C2B9
:101F830033D3021208C268D3021208C2D0D302129A
:101F930008C2FFD4021208C2B1D5021208C2E2D5A8
:101FA300021208C2FAD5021208C289D6021208C266
:101FB3003DD9021208C215DB021208C231DB02123C
:101FC30008C24DDB021208C21BDC021208C204E085
:101FD300021208C2AEAC061208C2EEAC061208C268
:101FE300A1AE061208C2B0AE061208C200800512E6
:101FF30008C21785051208C26285051208C2B28796
:10200300051208C24689051208C2D489051208C2FE
:10201300358C051208C23A8E051208C28E8E05123F
:1020230008C29D90051208C2CE90051208C20E91F7
:10203300051208C22991051208C28491051208C22B
:10204300A691051208C2AD91051208C2C5910512E9
:1020530008C2A592051208C28493051208C2C5845A
:10206300011208C2FD84011208C2DB89011208C2F1
:10207300218A011208C26E8B011208C2D98B011288
:1020830008C2628D011208C27290011208C28D91BA
:10209300011208C29F9B011208C2329C011208C29E
:1020A300849F011208C280A0011208C2DBA00112A2
:1020B30008C225A2011208C213A3011208C2AFA5C8
:1020C300011208C223A7011208C2A6A7011208C25F
:1020D300A9A7011208C2D4A7011208C284A8011239
:1020E30008C27DA9011208C228AA011208C246AA81
:1020F300011208C25FAA011208C288AA011208C20B
:10210300AAAA011208C2FFAC011208C2C4AD01128F
:1021130008C209AE011208C288AE011208C234AF68
:10212300011208C266AF011208C2BAAF011208C297
:10213300F5AF011208C23CB0011208C28CB0011203
:1021430008C291B0011208C2E5B0011208C211B170
:10215300011208C2FAB1011208C24BB2011208C23D
:10216300ABB2011208C205B3011208C2A0B3011237
:1021730008C2DFB6011208C2F1B7011208C26BB977
:10218300011208C27BBC011208C219BD011208C2A8
:102193000FC0011208C2CEC0011208C212C101123F
:1021A30008C2BDC2011208C2D1C2011208C2DBC2F9
:1021B300011208C2E5C2011208C2F1C2011208C22B
:1021C30016C3011208C2EFC4011208C244C50112AA
:1021D30008C24EC5011208C258C5011208C2CDC5B6
:1021E300011208C21CC6011208C22DC7011208C27F
:1021F3007AC7011208C287C8011208C2CBC80112EC
:1022030008C271C9011208C264CA011208C22ACBEA
:10221300011208C24DCC011208C26BCD011208C2D3
:1022230053CE011208C26BCE011208C2C2CE0112F4
:1022330008C2CCCE011208C2D7CE011208C2F5CE15
:10224300011208C23DCF011208C29FCF011208C27A
:10225300C6CF011208C2D8CF011208C273D001122F
:1022630008C2A8D0011208C28FD1011208C2D4D16A
:10227300011208C2BAD2011208C2E1D2011208C285
:1022830064D3011208C2D5D3011208C25ED501126C
:1022930008C28AD6011208C24DD7011208C215D846
:1022A300011208C29FD8011208C2C7D9011208C27D
:1022B30069DA011208C2E4DA011208C2A0DB0112D2
:1022C30008C2EADB011208C244DC011208C21CDDA9
:1022D300011208C23FDD011208C2F2DD011208C279
:1022E30014DE011208C27DDE011208C293E001125E
:1022F30008C28BE1011208C24FE2011208C281E455
:10230300011208C2CBE4011208C21BE5011208C284
:102313007FE5011208C2E1E5011208C20FE60112CE
:1023230008C233E6011208C268E6011208C299E640
:10233300011208C2CCE6011208C21CE7011208C24E
:102343006FE7011208C294E8011208C234EA0112CD
:1023530008C28FEA011208C2B8EA011208C245EBAB
:10236300011208C2B3EB011208C2C1EB011208C289
:10237300E5EB011208C23AEC011208C255EC011256
:1023830008C207ED011208C23FED011208C282ED37
:10239300011208C2E5ED011208C2E7EF011208C2FB
:1023A30011F0011208C208F1011208C212F201125F
:1023B30008C2C2F2011208C2A0F3011208C2D8F384
:1023C300011208C2F9F3011208C23BF4011208C258
:1023D3009DF4011208C2A7F4011208C2B7F4011256
:1023E30008C2F2F4011208C2D2F8011208C2BFFAFD
:1023F300011208C2A5FC011208C23CFD011208C269
:10240300DEFD011208C22030001208C2CB300012D8
:1024130008C27931001208C27F32001208C29F320B
:10242300001208C2C833001208C28335001208C262
:10243300F635001208C29A36001208C2A6370012F7
:1024430008C21138001208C24D38001208C2903871
:10245300001208C2CB38001208C20D39001208C29C
:10246300A239001208C21E3A001208C2E83A00124A
:1024730008C2C53B001208C25D3C001208C2773C8B
:10248300001208C2A73C001208C2D83C001208C2BE
:102493009E3D001208C2AE3D001208C2FD3D00126F
:1024A30008C20A3E001208C2133E001208C2913E3F
:1024B300001208C2ED3E001208C2383F001208C2E3
:1024C300533F001208C27E3F001208C29B3F001216
:1024D30008C2A73F001208C23E41001208C257417A
:1024E300001208C2DC41001208C2EF41001208C208
:1024F3000E42001208C2B242001208C23344001254
:1025030008C2E645001208C27C46001208C27F4694
:10251300001208C2EF46001208C20D47001208C29B
:10252300A447001208C2EC47001208C2EF4700128A
:1025330008C2B548001208C22249001208C248491D
:10254300001208C2D349001208C2F149001208C29E
:10255300374A001208C2EB4A001208C2354B001278
:1025630008C2644B001208C2C14B001208C2F64BEA
:10257300001208C2224C001208C2304C001208C2DA
:102583007D4C001208C2ED4C001208C2364D0012F9
:1025930008C2824D001208C2AE4D001208C2B94DE6
:1025A300001208C2D74D001208C2C24E001208C260
:1025B300CC4E001208C20D4F001208C2614F001228
:1025C30008C2754F001208C2A450001208C2B950C5
:1025D300001208C24751001208C28C51001208C2EF
:1025E3001852001208C22352001208C26553001287
:1025F30008C28053001208C2CC53001208C23B54D5
:10260300001208C27454001208C28E54001208C289
:10261300EE54001208C28D55001208C2D85500129C
:1026230008C2A858001208C25A59001208C2C75952
:10263300001208C2075C001208C21F5C001208C225
:10264300225C001208C22E5C001208C2425C001217
:1026530008C24A5C001208C27D5C001208C2805D99
:10266300001208C20D5E001208C27D5E001208C28D
:10267300FF5E001208C2C05F001208C2DF5F0012D3
:1026830008C28060001208C2DD60001208C2E06068
:10269300001208C25461001208C2A362001208C2E9
:1026A300A963001208C23464001208C24F65001205
:1026B30008C21766001208C24866001208C26B6699
:1026C300001208C27466001208C2A366001208C290
:1026D3003367001208C2E967001208C25E6800127D
:1026E30008C20569001208C27A69001208C2B169FA
:1026F300001208C2EF69001208C25AFB051208C291
:10270300F0FA051208C2D5FA051208C237FA051203
:1027130008C24BF9051208C281F8051208C2DCF59C
:10272300051208C227F5051208C2AFF4051208C244
:1027330051BC051208C244BC051208C23ABC0512BA
:1027430008C2C7BB051208C27BBB051208C2B3BAD5
:10275300051208C287BA051208C248BA051208C290
:10276300B8B7051208C29CB5051208C269B50512AF
:1027730008C2FBB4051208C2BBB4051208C2A8B450
:10278300051208C29CB4051208C269B4051208C236
:1027930047B2051208C244B2051208C254DD05123D
:1027A30008C228B2051208C226DD051208C2F3DCEE
:1027B300051208C277DC051208C2B9FE051208C269
:1027C30081FE051208C22AFE051208C216B20512BE
:1027D30008C2E3B1051208C226B0051208C26FAFE2
:1027E300051208C2C9FC051208C2B0AE051208C220
:1027F3000BAD051208C29DAB051208C21CAB051236
:1028030008C2D8AA051208C20BFC051208C23FAAC7
:10281300051208C2F4B2061208C264F4051208C213
:102823000BF4051208C2CDF3051208C2A0F305127A
:1028330008C26CF3051208C20BF3051208C2F3F2C7
:10284300051208C2C3F2051208C298EF051208C2A6
:102853006BED051208C272EB051208C2F8EA051205
:1028630008C2A7EA051208C261EA051208C26EFB94
:10287300051208C2CBE9051208C25CF90200000088
:1028830080FB8F000100AB1E87000100461B350053
:1028930004006F1E25000200731E26000200751E31
:1028A30027000200771E28000100811E2900010075
:1028B300821E840004001E1B86000100B81D2A002E
:1028C3000100831E2B000100841E2C0001008A1EC0
:1028D3002D0008002C1B2E0001008B1E2F00010071
:1028E3008C1E300001008D1E310001008E1E32004F
:1028F3000100341B33000100351B340001008F1E1F
:1029030036000100361B38000100901E390001001B
:10291300891E83000200A81E63000100411B64009E
:102923000100851E65000100861E6D000100421B2B
:1029330071000800241B66000100A71E430001006C
:10294300981E44000200991E450001009B1E46008C
:1029530002009C1E47000800391B480001009E1E10
:102963004B0001009F1E04000100AA1EA1000100EC
:10297300AE1E37000100AD1E88000100AC1E3C00F6
:102983000100371B3D000100911E49000200A01EFB
:1029930067000100431B4D000200A21E4E00010010
:1029A300A41E4F000200A51E3E000100971E510009
:1029B3000100931E52000100941E53000100961E55
:1029C30054000100381B00000000000000013636EF
:1029D30001010001020100010301000104010606D7
:1029E30005020000070100340801000F090401017A
:1029F3000D0100FF0E08000017020000190100FF7F
:102A03001A0100011B0100FE1C0100081D02000049
:102A13001F01000120010001210200002301000F1A
:102A2300240200002601000127010008280200FFFC
:102A33002A0100072B0102402C0100002D01000197
:102A43002E0100012F0100FF30010B1D3108000092
:102A53003A0100083B01000F3C0100013D0100FF6A
:102A63003E04000042040000460400004A04000043
:102A73004E04000052040000560400005A040000F3
:102A83000103710301030103010301030103220392
:102A93000203010310030003000300030003000308
:102AA300000300034203000324030603000300039F
:102AB300040312032503230325032303040304034D
:102AC3000003000300034403000300032303000384
:102AD300650321003503810300030503000300039D
:102AE30000030003250323030304710402046004A9
:102AF30011047004020402040104020410046104BA
:102B030000041404630473047204620443040004A1
:102B13001304060400040004040412040004000463
:102B2300000400045104640000040004000444048D
:102B33000004000400040004650400043504810457
:102B430064000504000483040004030271023001DD
:102B530060021102700201020202020280021002EC
:102B630061023A004100630273027202620243028D
:102B730000021302380000020002040212020002E3
:102B830000020002000204020402370037003C0284
:102B9300440200023900000200026502000235020D
:102BA3008102000205028202830200020300710017
:102BB30030016000110070003102200350048000D6
:102BC30010006100000014006300730072006200D3
:102BD3004300000013000600000000000400120080
:102BE300000000000000000004000400370037006C
:102BF3003C024400000000000000000065000000EB
:102C03003500810000000500000083000000010181
:102C130071010101010111010101310101010101F1
:102C23008001100161013B00140063017301720113
:102C3300620143010001130106013D013500040156
:102C4300120100010001000100010401040133012C
:102C530033013C01440132013600000100016501EA
:102C6300000135008101000105018201830100019A
:102C7300210010002081C81D2100110043810000A4
:102C8300210012002083C91D210013002083CA1DC7
:102C9300210014002083CB1D2100150043813B0438
:102CA300210016001A81CC1D210017001A81CF1DA7
:102CB3002100200018833D0421002100F183D21D4F
:102CC30021002200F183E21D2100FDFF2181F21D7D
:102CD300000003002001C384000000002001C18420
:102CE3000000040042015581000005004201888173
:102CF3000000060042017781000007003001C28412
:102D03000000100042033D1E00001100300399181B
:102D13000000120010034E1E0300000021039A1846
:102D23000000FDFF2101B5840300FDFF2101B584EF
:102D330036000100060000000F0000000000000044
:102D430000000000000003FFFF00000403FFFF007A
:102D530000FFFF0FF4010005C4040320000100007D
:102D63000B000000000000000003010F0000000042
:102D73000000000000000000000000000000000050
:102D8300000000000000000000000000000010141C
:102D93002E1416145C131C1434141C144014221423
:102DA3005C131C1434140000000000000000000039
:102DB3000000000000000000000028145C13000065
:102DC3000000000000000000000000000000000000
:102DD30000000000000000000000000000000000F0
:102DE300000000000000000000001300B2171F00E5
:102DF300B8171F80BE1700004218010042180200D6
:102E03005E17028058170300641704006A170480D2
:102E130070170500761706008217310094173300E8
:102E23009A173400A0173600A617FFFF00000A0008
:102E33000000020000000400000008000000100071
:102E4300000020000000400000008000000000019E
:102E53000000000200000004000000080000001051
:102E630000000020000000400000019A2006CA2054
:102E730008C4200BD620101C1D02A02005B8200773
:102E8300A6200C82200D8E2064301BFF000007EC6F
:102E9300FDFDFDECDCDCCCBCACAC9C9C8C7C7C6C8C
:102EA3006C5C5C5C4C4C3C3C2C2C1C1C03EAF5E538
:102EB300D5D5C5B5A595958585757565655555456F
:102EC300453535252515150500160F00000B150B87
:102ED300020002220F3300000E0F0000000000006A
:102EE300000000000000000000005A6967426565A9
:102EF300416C6C69616E63653039C0C1C2C3C4C5BE
:102F0300C6C7C8C9CACBCCCDCECF003C40423A3F9E
:102F13003F392F4730303016181920231A1C1E3022
:102F230000034D4C4651181A2505020001191618C5
:102F3300161618230300303017181921301B1D1FD4
:102F4300300C0E020B040B0A0708000F02040201E7
:102F5300010101090200BE040AE80300000E00E8B3
:102F63000300000C0028007F000000040404000597
:102F7300030A0C100C081E080C28FF10000209039A
:102F83003C0C050815091EE4F0A3F0A3F0A32212DC
:102F93002F8AF022901CAA12459612247222122F15
:102FA300A522E0F508E4F509F50AF50B22E824FB70
:102FB300F582E934FFF58322E82411F582E439F53B
:102FC30083E022F583122FCC22E0F508A3E0F50974
:102FD300221226E8740412092B7F0802067B74016F
:102FE300F09004CFE0640F22740912092B7F0402CE
:102FF300067BEA2413FAE43FFB122616E92279053D
:10300300122622740622A3A3E024F5C394132212EA
:1030130026F49004EF12654A7A147B0022C082C022
:1030230083901C897466F0A37424F0A37478F0A3CE
:103033007424F0901C8D744EF0A37424F0A3744890
:10304300F0A37424F0A37484F0A37424F0A3748A0B
:10305300F0A37424F0A3747EF0A37424F0A3743655
:10306300F0A37424F0901C99745AF0A37424F0A371
:103073007460F0A37424F0A37454F0A37424F0A335
:103083007490F0A37424F0901CAA124F5B60099013
:103093001CAA12459212124E901CA71248AC740837
:1030A300125BF7A3F0901D53F0901CACF07C0BFD6A
:1030B300F97AAD7B1C12118E7C0B7D0079007AB8F6
:1030C3007B1C12118E02470674F712041D74F7124B
:1030D30009C3EAFEEBFF12315E74051249CA740399
:1030E300F01232751249AC2430FCE43FFD8C82129D
:1030F300315612316A600812398374FFF0A3F0EE7F
:10310300242EE43F1C1CFD8C82F583A3E0C0E08ADF
:10311300828B8312465ED0E012316A8882898312E1
:103123004E992403F0EE12398D120C117403F090B2
:1031330004E412074874021209A312355712092B2B
:10314300E9F5087007EEFAEFFB122502A9087409E6
:1031530002399CF583E08882898322EA1231632253
:1031630012509E3FF58322125E771249B8E8F0A30E
:10317300E912614EE02274F012041DEAFEEBFF8CAB
:103183000C8D0D890B123275F5831249C074101220
:103193000C11E0F508A3123158F0E824FFF582E999
:1031A300123569E508F0E824FEF582E9123569E590
:1031B3000BF09004E9E0C0E0E824FDF582E9123564
:1031C30069D0E0F09004E8E0C0E0E824FCF582E98F
:1031D300123569D0E0F07412120C11122FC8122F9D
:1031E300B0E509F0E824FAF8E934FFF98882F583B9
:1031F300E508F0EE2404FCE43FFD88088A828B8313
:10320300E0F50E8C828D83E0250EC39508125E7760
:103213001247E6850C82850D83A3A3A3A3A3A3A3CF
:10322300A3E064037009EE12499AF0A3E480031249
:10323300356E1235767409F07508AD75091C750A7B
:103243000078081208F912594112092B7508FF7505
:1032530009FF78081208FDAC0CAD0D1235571209A1
:103263002BE9F5087007EEFAEFFB122502A9080215
:103273002FDCEA2402FAE43FFB8A8222C082C08365
:10328300901CC9E0C39408400474078001E08A825B
:103293008B83F033333354F8F902470674F0120486
:1032A3001D8A088B09890A8C0E8D0F750C00A2AF3D
:1032B300E433F50BC2AF901CC380451233A1503DDC
:1032C3001233BB64037036E50824F9F508E50934C5
:1032D300FFF5098E828F83A3A3E02405FCA3E034CA
:1032E30000FDAA08AB09121338E50824FFF508E529
:1032F3000934FFF5097410250CF50C150A123790E3
:103303001268FFE50A6004EE4F70B0E50BA2E0928D
:10331300AFA2AFE433F50BC2AF901CC3803E124E95
:10332300728882F5831240E6850882850983F08AD4
:103333008289831233B2A3A3E0C0E0E50824FFF53A
:1033430082E509123569D0E0F0E50824FEF508E5C9
:103353000934FFF509050C150A1237901235E4609C
:10336300211233BB640270F11233A1EE40B0124A52
:10337300E1A2E550E4850E82850F837401F0E50A2E
:1033830070D7E50BA2E092AF850882850983E50C2F
:10339300F0E50824FFFAE50934FFFB022FDC1233C2
:1033A300A7A2E622EE2411F582E43FF583E0221280
:1033B30033B622124EB7A3228E828F83A3A3124663
:1033C300621255842274F012041D74F31209C3743B
:1033D30003120C11E9F07402120C11EAF08B0B8545
:1033E3001882851983E4F00412099B122418E9F862
:1033F3009004CEE0292437F508FA7B001211AC8A39
:103403000C8B0DAE0CAF0DEA4F700302354EEA2460
:1034130002F50EE43FF50FA808EA28F8E43BF98526
:103423000E82850F83123EE29004CEE0F9FAC3E4E4
:103433009AFA95E0FB850E82850F83E02AF50CA3AB
:10344300E03BF50D9004CC122FC8750A00780812E2
:1034530008F9E9FC7D00AA0CAB0D12491C12092BDB
:10346300AC18AD197401120C11E0F9E50C24FFFA44
:10347300E50D34FFFB12241E8A828B83E4F0E50BF7
:10348300C454F0F9901D54E0C4333354C0F890048D
:10349300C8E0A2E0E43313134849440FC0E0EA2430
:1034A300FFF582EB123569D0E0F0EA24FEF50CEB70
:1034B30034FFF50D7403120C11E0F87402120C11B1
:1034C300E0C454F048850C82850D83F0A80C850E6A
:1034D30082850F83125BC42AC3988E828F83A3A332
:1034E300A3A3F0850E82850F83E8F0A3E50DF01208
:1034F300356E123576E4F0740C120C11E4F0750895
:10350300B875091C78081208F912594112092B855C
:103513001882851983E06009EE240E124AE34408F9
:10352300F0122604E9F9E4F508F50978081208FD14
:1035330074061209A312355912092BE97006EEFA23
:10354300EFFB800BEEFAEFFB1211B27A007B0074F3
:103553000D022FD97903EEFAEFFB12261C74022217
:10356300EE24FFF582EF34FFF58322EE123163E49C
:10357300F0A322F012357B22EE1258643FF583222A
:1035830074F212041D8A0C8B0DA2AFE433F50AC248
:10359300AF750800750900901CC3802C1237A0502A
:1035A30024850C82850D83A3A31259548E828F83A5
:1035B300A3A312459212260AE9600A12379BC2E6B8
:1035C300F08E088F091237901235E470CFE5084565
:1035D30009600612367DD2E6F0E50AA2E092AF80DA
:1035E3000DE0FEA3E0FFEE4F22740212092B7F06CB
:1035F30002067B74F012041D8A0E8B0F8C0C8D0D4A
:10360300750A00A2AFE433F50BC2AF7E007F0090D2
:103613001CC38010AE08AF09123675124AE1D2E717
:10362300F0124570124584603412367DA2E750F1E2
:10363300850882850983A3A3120748AC0CAD0DAAA4
:103643000EAB0F122610740212092BE960D3EE4F52
:1036530060C2123A17700612368FD2E4F0E50BA25D
:10366300E092AFEE4F60061224FC750A01A90A022C
:103673002FDC1233A7D2E4F0EE22E50812587E3590
:1036830009F583E022AA82AB831213388E828F83DB
:10369300A3A3124662E02274F212041D74FE1209FF
:1036A300C3750C00750D00851882851983E4F0A39A
:1036B300F0A2AF33F50AC2AF901CC31268FF802B90
:1036C300EE24FBF582EF34FF122FC6780C1208FDAF
:1036D30012377E12092BEEFCEFFDAA18AB1912115B
:1036E300D0AE08AF09901CC9E014F0EE4F602B1266
:1036F30037A0501DEE240BF8E43FF98882F583E0F0
:1037030024FFF0A3E034FFF088828983124F5B60CB
:10371300AF8E0C8F0D12379080A1E50AA2E092AF15
:10372300901CC9E0602C9004CFE0640F6006901DEC
:1037330053E0701E7AA17B1C1226F490841B12079F
:10374300447AA17B1C12478E12092B800574F01258
:10375300466FAA18AB191211D68A088B09AE08AFA7
:1037630009EA4F601312242A12379BA2E28E828F3A
:1037730083A350D974E980D70235ECEEFCEFFD7AD0
:10378300C37B1C1211E27402228E0A8F0BEE24FB00
:10379300F582EF34FFF58322EE1233A8221233A70A
:1037A300A2E72274F712041DEAFEEBFF12242A1289
:1037B300465B120595E964019004EB700AE024016D
:1037C300F8A3E0340080031245E1F9124CE31247F9
:1037D300E6901CC9E0701F9004CFE0640F70177A65
:1037E300A17B1C1226F490841B1207447AA17B1C34
:1037F30012478E12092BA8A8C2AF901CC9E004F08F
:10380300E8A2E78004E508A2E092AF024BF174F767
:1038130012041DEAFEEBFFEA123847F012242AEEE7
:10382300FCEFFD7AC37B1C1211DCA8A8C2AF901C6D
:10383300C91241359004CFE0640F70057908122551
:10384300BC024BF11233A8C2E42274F712041D74B4
:10385300EA1209C3EAFEEBFF9004C8E0602A851868
:10386300828519837401F0120C11E4123902120CCF
:1038730011123688C0E0740A120C11D0E0125BE416
:10388300740B120C11124E4E741602399C74F712FB
:10389300041DEAFEEBFF12240CE9F974DC69601ED7
:1038A30074DD69601974E469601474F369600F74FA
:1038B300DE69600A74DF69600574DB697007EEFA1C
:1038C300EFFB1225C2024BF174F712041D74EB12C5
:1038D30009C3EAFEEBFF8518828519837406123942
:1038E30002120C11AA82AB83121338EE2408FCE4F3
:1038F3003FFD740A120C11124E4E741502399CF0DE
:10390300EA2413FCE43FFD74022274F712041D74CD
:10391300F71209C3EAFEEBFFEA2430124AE3605DC3
:10392300EA12398D120C117403F09004E412074863
:103933001239831207489004F7E0F974041209A3BB
:10394300EEFAEFFB122412740412092BE9F974DC6A
:1039530069602374DD69601E74E469601974F36936
:10396300601474DE69600F74DF69600A74E869606B
:103973000574DB697007EEFAEFFB1225C2023151C1
:10398300EE242EF582E43FF58322125D55AA18AB8F
:1039930019121338740822740312092B024BF174A1
:1039A300F212041D8A0C8B0D750A00750B00750845
:1039B300E7A2AFE433F509C2AF901CC3800312370B
:1039C3008C1235E460251237A050F3123A1770EECB
:1039D300EE2432123BAEE06870E4780A1208FD125E
:1039E300377E12092B901CC9E014F0E509A2E0927E
:1039F300AFEE4F6013EEFAEFFB12242A79F0EEFAE2
:103A0300EFFB1225C2750800A908AA0CAB0D1225FD
:103A1300C20235F112357BE064012274F412041DF5
:103A230074F71209C3EAFEEBFF8A82F583A3E0640D
:103A3300F37003023ABC8A828B83A3E064DF60796C
:103A43008A828B83A3E064E8606F8A828B83A3E01E
:103A530064DB606512246CE9F5087055EE240E12E0
:103A63004AE3604D123AC660487408120C11123AC8
:103A7300D51207487508FF7509FF78081208FD8EEF
:103A8300828F83A3A3A3A3A3A3A3A3E0F974041224
:103A930009A3122412740412092BE9F50874F369BB
:103AA300600F74DF69600A74E869600574DB69702C
:103AB3000F8E828F83A3E508F0EEFAEFFB122478D2
:103AC300022FEBEE240FFAE43FFB79091224AEEA4E
:103AD3004B22740212534A74FFF0A3123AE22212E9
:103AE3004EA2A3A32274F112041DEAFEEBFF750894
:103AF300008A82F583A3A3A3A3A3A31230094003DF
:103B03007508E88A828B83A3A3A3A3A3A3A3A3A378
:103B1300A3E0C3941040057508E880138A828B8361
:103B2300A3A3A3A3A3A3A3A3A3A3E0640F600B90E6
:103B33001D30E0540870037508E8EA240B123BAE0D
:103B4300A3A3A3A3A3A3A3A3E0C398500DEA240BA9
:103B5300124AE3640F60037508E89004E8E0F47028
:103B630003A3E0F470037508EC7A237B0012124878
:103B73008B0BA90B901CAA123BBD60278E828F83EF
:103B8300A3A3A982AA83890C8A0D750E00780C124F
:103B930008F97C237D00901CAAE0FA12491C120943
:103BA3002B800375081AA90802593CF582E43FF5F6
:103BB30083E0F88A828B83A3A322EAF0A3EBF0EAE3
:103BC300492274F512041DEAFEEBFF8A82F583A3F2
:103BD300A3A3A3A3A3A3A3E09004CF123C55E09017
:103BE30004EAF0EA240B124AE39004CA123C55A3F8
:103BF300E0901D54F0F9120FBA901D54E0600BEEE3
:103C03002404124AD52406123C4B901D53122FE173
:103C13006004740180027400901CAC12628F12085D
:103C2300F97C0B7D007AAD7B1C12491C12092BEE2B
:103C33002418F508E43FF50978081208F97C0B7D90
:103C4300007AB87B1C024909FAE43FFB79E1120FC1
:103C5300A222126279A3A3A3A32274F712041DEA7A
:103C6300FEEBFF8A82F583A3E07003122F97125EA7
:103C730000024BF174F712041DEAFEEBFF901CAA3D
:103C8300124F5B6010901CAA124592901CAAE4F09C
:103C9300A3F012124E8E828F837408124676121A84
:103CA3001C024BF174F612041D901D53E06010903A
:103CB3001CACE0700A123CC5EA4B600312250202F9
:103CC3005EFA9004CAE0FB9004EAE0FA9004CFE0C5
:103CD300F91224242274F412041D74E71209C3EAAE
:103CE300FEEBFF750B018A82F583A3A3A3A3A3A312
:103CF300A3E0A2E25069EA242BF582E43F12595271
:103D0300EA2413FAE43FFB122430E970529083E172
:103D1300E064017005750B008045123D971208F9A8
:103D23007C0B7D00741112099B12491C12092B1282
:103D33002604E9FA740E120993880889097808128F
:103D430008FD75083075090078081208FDEE125B4E
:103D5300AD120748125D47790112300312092B8512
:103D630018828519837410F0125D477402120C11C6
:103D7300AA82AB8312132CEE242B126540740B1210
:103D83000C111247E6740D120C11E50B125FB97496
:103D930019022FEDEE240812629722C082C083908D
:103DA3001D54E06003122676024706C082C083904A
:103DB3001D4B7489F0A3741CF0A3748DF0A3741CC1
:103DC300F0A37499F0A3741CF0901EC174EBF0A3DC
:103DD300742AF0901D357406F0A37424F0901CCE61
:103DE300743CF0A37424F0901CD07442F0A37424A8
:103DF300F0901D30E0440202420AC082C083EAFC14
:103E0300EBFD7903024F07C082C083790802607A11
:103E1300C082C08374FE1209C3901CD674EAF0A357
:103E23007424F0901CD874E4F0A37424F080077A0F
:103E3300C37B1C123E6F901CC3124F5B70F1901C2E
:103E4300C5124F5B60097AC57B1C123E6F80EF90F1
:103E53001CC3E4F0A3F0901CC9F0A3F0A3F0901CE2
:103E6300E47426F0A37425F07402801C1211D68525
:103E73001882851983EAF0A3EB123E831225F222FE
:103E8300F0AA18AB1922741112092B02470674F613
:103E930012041DE9FF740D29F582E4342FF583E440
:103EA30093FEFA7B001211ACEA4B6007EA2E123E36
:103EB300DF80267A027B001211ACEA4B601774395B
:103EC3002FF582E4342FF583E4938A828B83F0A366
:103ED300741A1242A87A007B00025EFA1247D5E8F0
:103EE300125E74A3A3A3A3E4F022E9FC740629F8E9
:103EF300EAA2E0501EE875F00A84E5F0F960147454
:103F03000A28C399F8E9C394054004740A28F8748D
:103F13000B28F8ECC394134004791480027906E863
:103F23002979002409F85001097A0A7B001202CD8D
:103F3300E8F90208BFC082C083901D30E0540260DC
:103F43000A121A22E9600479018002790002470605
:103F5300C082C083901D30E054026014901CC9E0FD
:103F6300700A124F586009123F7850047901800299
:103F73007900024706122FBBA2E722C082C08390BA
:103F830083DEE0F8901CCBE0C39850051211AC809F
:103F9300047A007B00024706C082C0831225F279AF
:103FA30000024706C082C08374FE1209C3851882CB
:103FB300851983EAF0A3EB124111A3A3A3A3A3E002
:103FC300600A14605724FE605A0240819004CFE0D7
:103FD300640F60121225C8E9700C12458C901CD234
:103FE30012465E1205959004F7E0C0E085188285BD
:103FF3001983124E85D0E01241117414125898FCA3
:10400300A3E0FD7AC57B1C1211D0A8A8C2AF901CF7
:10401300CB12413579201225BC023E6B1243DF746B
:104023001580D91243DFA3A3A3A3E060511243DF9A
:10403300123693C0E0851882851983E02406F58241
:10404300E43BF583D0E01258982402F8A3E034004F
:10405300F98882F583E02401FAA3E03400FB888227
:104063008983EAF0A3EB12589812441F85188285BE
:10407300198360131240E660051240F84048AA18FD
:10408300AB191225F280921240E660F21240F8500A
:1040930021124105FA851882851983A3E0C82406F5
:1040A3001243DBF8744E125090342FF583E4936A75
:1040B30060148518828519831240E6640870BF1264
:1040C3004105640870B812410514124119240AC04D
:1040D300E085188285198312465ED0E012411904E7
:1040E300023FFF1240EA221245E1C82406F582E4AA
:1040F30038F583E0228518828519831240EAC39438
:104103000A228518828519831233B6A3E02212414D
:1041130023F583888222124123C8240612440922EC
:10412300F08518828519831245E122A8A8C2AF90B1
:104133001CCAE004F0E8A2E792AF22C082C08390D9
:104143001CDA124F5B60081243E612059580027970
:104153000002470674F712041DEAFEEBFFEA12356C
:104163007C7401124794F8A3E0F912315E1247E61A
:10417300EA2435124AE3C0E0EA2413F582E43FF56A
:1041830083D0E0F0EA2436124AE3C0E0EA2414F5CF
:1041930082E43FF583D0E0F0EA2438124AE3C0E03A
:1041A300EA2418F582E43FF583D0E0F0EA242FF502
:1041B30082E43FF583120748125D54EA2431124A20
:1041C300E3F912355D12092BE9F5087007EEFAEFF2
:1041D300FB122502A908024BF1C082C0831225C835
:1041E300E96004792080027901024706C082C08316
:1041F300EA2411124200D2E0800DEA240DF582E494
:104203003BF583E022F0A3F0024706C082C083128D
:1042130041FD640170111242A2400C8A828B83A378
:10422300E0F91225C28066124293A2E650128A82F6
:104233008B83A3E0F9901CD412465E120595804D42
:104243001241FD6401700D1242A250088A828B83D1
:10425300743080368A828B83A3E0641B8A828B83CB
:10426300700474228024A3E0700D1241FDF87418C9
:10427300125090342F800B1241FDF8743912509074
:10428300342FF583E4938A828B831242A802470674
:1042930012429722EA2410F582E43BF583E02212CE
:1042A3004297A2E322F0901D2BE0F91211B8227479
:1042B300F712041DE9FE124F5870030243D8EE6053
:1042C30014741B6E701AE812586439F583E06405A0
:1042D30070030243B0901CCD1243E6A3E40243B73C
:1042E30074E96E7068E82412F582E439F583E070AE
:1042F3000B121A28E96005124429606179EE120F46
:1043030024901CCC124400901CCC603A12442C9094
:104313001CCC700B12440014F01210DA0243D812B2
:10432300441EC2E71245C7240D1243DB6403700920
:104333001243F912457DD2E2F079ED120F241244B3
:104343001112059580781243EC74E9806774E16E6D
:10435300703E121A28E9605512442970509004F1F6
:10436300E0C0E01243F92412F582E438F583D0E08B
:10437300F09004E0E0C0E0901CCC1243F51243F54A
:10438300D0E0F09004E0E004F079011210C280451F
:10439300741C6E7018901CCC124592901CDC124653
:1043A3005E120595901CCCE4F0A3F08028901CCC01
:1043B3001243ECEEF0901CCC1245921224F01245FD
:1043C300A8E054806003126069901CCCE4F0A3F071
:1043D30079101225BC024BF11244092285188285FB
:1043E3001983A3E0F5838882221243F022124666E2
:1043F300A322124EB322901CCC124E9422124E943E
:10440300241212440922F582E438F583E022901C39
:10441300CC124596901CD012466222E0F8A3E0C865
:10442300241012440922901CCC1245AFE0540422FC
:1044330074F412041D750A00750B00A2AFE433FE79
:10444300C2AF124F58600302452612465B12059510
:10445300E94410F8901CC3800985080A85090B12EA
:104463004570124584700302452612367D586870E4
:10447300E8780A1208FDAC08AD0912378212092B3D
:10448300901CCCE508F0A3E5091245C712457DA2AF
:10449300E7500302452D901CCAE014F0EEA2E0920F
:1044A300AF901CCCE0240EF8A3E03400F9E8FEE959
:1044B300FF8882F583124592901CCC12410BF912AE
:1044C30024B4E9901CC7125BF78E828F83E054807B
:1044D30060181243F924131243DBF9120FDE12435F
:1044E300F924141243DBF9120FD21245A8A3E054A6
:1044F30001605F901CC7124F5B60451245BE604070
:104503001245BEF87900901CC71245921202D5E8F5
:10451300C0E012459CD0E01245CCC3941340117403
:1045230002800FEEA2E092AF8037901CC902449C38
:104533007400C0E0901CCDE0C8124567D0E0800D48
:1045430012459C74011245C71245677401F0790343
:10455300800C901CCC12441EA2E1B3E433F9121078
:10456300C2022FF0241AF582E438F58322E50824E9
:10457300FBF582E50934FFF5832212587E12440CC1
:1045830022122FCCE508450922851882851983124A
:10459300459622E0FAA3E0FB22124E912419F582FC
:1045A300E438F58322901CCC1245AF221245E1C8B2
:1045B3001245B72212509E38F58322124E912418C9
:1045C300124409221245D9C8221245D9F58388829B
:1045D300A3A3A3A3E022F0901CCC1245E122E0F8B0
:1045E300A3E02274F712041DEAFEEBFF1225EC127E
:1045F3004AE0A2E3400A123A1770059083DC800375
:104603009083DDE0F9EEFCEFFD7AC37B1C1211E829
:10461300E96038EEFAEFFB901CD612465E12059560
:10462300EE240E124AE35404701212412EEE12319C
:104633005FA3E05401701E1224FC8019EEFAEFFB15
:10464300901CCE12465E120595800A8E828F83A33C
:1046530074F112466F024BF1901CD812466222127B
:10466300466622E0F8A3E0F583888222124676129A
:1046730024F022F0EEFAEFFB220246FF74F7120455
:104683001DEAFEEBFF7900901D30E05402700CEA46
:104693002433124AE35404600279E8901D30E05455
:1046A30060700CEA2433124AE35402600279E88A08
:1046B300828B83A3A3A3A3E0F89083E2E0C3985083
:1046C3000279E8EA2431124AE3700CEA242E124AF2
:1046D300E3700479F5800BE970051224DEE9F9E94A
:1046E3006007EEFAEFFB1225C2024BF1C082C083D2
:1046F3008A828B83740DF0121A1C8007C082C083D8
:104703001224FCD083D0820208BF74F412041DEA81
:10471300FEEBFF8A82F583E4F0A3124794540490DE
:1047230083DC7012E0F8901CCAE0C398401279F160
:104733001225C2022FF0E0F8901CC9E0C39850EE96
:1047430012479AA3E054016037EA2437124AE3C3BD
:1047530094054033EA2433124AE3540570297ADE80
:104763007B1C1226F4EE2437F582E43FF583122FE7
:10477300A178081208F57ADE7B1C12478E12092BEA
:10478300EEFA12518180AC79E880A51226E8740410
:1047930022F012479AE022EA2433F582E43FF583BC
:1047A3002274F612041DE9FE2451FAE43400FB12CC
:1047B30011ACEA4B6015EE8A828B83A3A3A3A3F00B
:1047C300EA24511247D51247E680047A007B00029F
:1047D3005EFAF8E43BF98A828B83A3A32212654A2B
:1047E300901DA8E8F0A3E9F0220246FFC082C0832F
:1047F300901CE77450F0A37425F0A37480F0A374A5
:1048030025F0A37456F0A37425F0A3745CF0A3748D
:1048130025F0A3747AF0A37425F0A3746EF0A37447
:1048230025F0A37468F0A37425F0A37486F0A37431
:1048330025F0A3748CF0A37425F0A37492F0A374F1
:1048430025F0A3749EF0A37425F0A37462F0A374FF
:1048530025F0A3744AF0A37425F0A37444F0A37461
:1048630025F0901D037474F0A37425F0A37498F0DD
:10487300A37425F0A374ACF0A37426F0A374A4F07E
:10488300A37425F0A374AAF0A37425F0901D27E464
:10489300F0901D2AF0901D131248AC7402F0901D85
:1048A3001C1248AC740102420A74BCF0A37425F0D4
:1048B300A32274F512041D74F11209C385188285AD
:1048C30019837402F07401120C11E9F060047AFF89
:1048D3007BFF7402120C1112533F75081F75091DDB
:1048E300750A0078081208F97C0B7D007407120C16
:1048F30011AA82AB8312491C12092BAA18AB1912F5
:104903001A1C740F800312491C12092B7F03020621
:104913007B7C0B7D007A1F7B1D12117C7403227438
:10492300F712041D74FD1209C38518828519837457
:104933000AF07401120C11E9F07402120C11EA125C
:104943005FB902399A74F612041D74F71209C3EAA7
:10495300FEEBFFEA12499A1249CA7402F0EA2428CC
:10496300FCE43FFDAA18AB1912132CEE24311249B3
:10497300A024331259B81208FD74021209A37983D3
:104983001A1A12355B12092BE9F5087007EEFAEFD4
:10499300FB122502025EF3123163740122F582E4F5
:1049A3003FF583122FCC124E6AF5831249B8E8F013
:1049B300A3E9F0EE221249C08A828B8322E024FF0E
:1049C300F8A3E034FFF922F0A3E4F0EA12357C22E5
:1049D30074F012041D126428120BBA7808790C12B1
:1049E300032E78081208F57A167B1D022FD474F46F
:1049F30012041D74C61209C39004CFE0640F600D46
:104A0300851882851983742E12535E80227A0D7B5A
:104A13001D1230121202D588088909E4F50AF50B34
:104A230078081208F57A0D7B1D12478E12092B7434
:104A33003A022FED74F512041DEAFEEBFF8A82F5AC
:104A430083A3E0F87078EA2430124AE36402600733
:104A5300E06403600278E8EA2426F582E43FF58304
:104A630012300B400478E88058E87052EA2426128A
:104A73003C4BEE2431124AD52430124AE3640270CF
:104A83000EEE24281265409004DE1247E68017904C
:104A930004DE74FEF0A304F0EE2428FCE43FFD7A68
:104AA300D57B04121338EE241B123D9A1208F91217
:104AB300491412092BEEFAEFFB12253EE9F8E860E0
:104AC3000EE88E828F83A3125D5C7417125E06025A
:104AD300490FFAE43FFB7950120FA2EE22EE2410A5
:104AE300F582E43FF583E02274F612041D74F71295
:104AF30009C3901D2AE070377401F0F912108CAAD3
:104B030018AB191225FE75081F75091D78081208C0
:104B1300FD75080175090078081208FD9004E41278
:104B2300074874061209A37A0312300112092B02F3
:104B33005EF574F712041D124D117004A374EBF0AB
:104B4300901D2AE0A2E25003C2E2F0E0A2E1500588
:104B5300124D2280098E828F83742A125E06024BC5
:104B6300F174F412041D74FE1209C3124C17124E91
:104B73005DEC851882851983124EACE0F50B701538
:104B8300AA18AB197953120FA2EE2413FAE43FFBD0
:104B9300794A120FA2123D971208F9124914120909
:104BA3002B12458CA90B122532901D2AE0A2E1504D
:104BB30003124D29901D2AE4F07402022FED74F7BD
:104BC30012041DEAFEEBFF8A82F583A374EBF090D7
:104BD3001D2AE0A2E150077A0079EB122538EEFA9C
:104BE300EFFB12256E8007EEFAEFFB12266A7F01B8
:104BF30002067B74F712041D124C17901D27E4F074
:104C0300901D2AF07AFF7BFF8E828F83A3E0F91237
:104C1300253280DA124D627A167B1D1226F4227435
:104C2300F712041DEAFEEBFF12256880BA74F7122F
:104C3300041D124D9FA3A3A3E060047400800274BB
:104C4300EB124C705003C2E2F0E0A2E15005124DAA
:104C5300738011A2E0500D8E828F83742AF0A374A7
:104C6300EB125E06EEFAEFFB12251480818E828F23
:104C730083A3F0901D2AE0A2E22274F612041DEA37
:104C8300FEEBFF901D2AE0D2E1F0790112108C8E29
:104C9300828F83A3E07038122604E9FAEE240DF51F
:104CA30008E43FF50978081208FD75080175090045
:104CB30078081208FD124CE3120748EE2402FCE4C4
:104CC3003FFD12300112092BE98E828F83A3F08EF0
:104CD300828F83A3E060067A00F9122538025EFA18
:104CE300EE240BF582E43FF5832274F712041D12C0
:104CF3004D117004A374EBF0901D2AE0A2E250035F
:104D0300C2E2F0E0A2E15003124D22024BF1EAFEAF
:104D1300EBFF79011210928E828F83E0642022C20E
:104D2300E1F0124D29227A008E828F83A3E0F912DB
:104D330025382274F712041D124D628E828F83A3CD
:104D4300A3A3A3E060047400800274EB124C7050C0
:104D530003C2E2F0E0A2E15003124D73024C67EA92
:104D6300FEEBFF79011210927A0D7B1D1226F422BD
:104D7300C2E112628AE0A2E4E433FA124D2B2274F8
:104D8300F712041D124D9F74EB124C755003C2E2CF
:104D9300F0E0A2E15003124D22024BF1EAFEEBFFD9
:104DA30079011210928E828F83A32274F712041D4D
:104DB300124DC4024BEA74F712041D124DC4024B88
:104DC300F1EAFEEBFF7A0D7B1D1226F4EEFAEFFB00
:104DD3001225922274F712041D74EF1209C3EAFE1E
:104DE300EBFFEA125D487AD57B04121326E960567D
:104DF3008518828519837409F07401120C1174EFFC
:104E0300F0124E5D7402120C11EC124EACA3A3E02F
:104E1300C0E07404120C11D0E0124E9964087015AE
:104E23008E828F83A3A3124E85E0C0E07405120C1B
:104E330011D0E080067405120C11E4125BE47406D1
:104E4300120C11124E4E741102399CAA82AB8312BA
:104E53002634AA18AB19121A1C22124E6AF58312B1
:104E63004E7CFCA3E0F922EE124E72FB88822224D0
:104E730002F8E43FF9E8FAE9221245E18882F58372
:104E8300E022124E942407F582E438F58322901C25
:104E9300CC1245E1C822124E9D22124EA2E022F00E
:104EA3008E828F83A3A3A3A322125E74124EB32216
:104EB300124EB722E0F8A3E0F5838882A3A322C0B1
:104EC30082C083122676024706C082C083901D47A4
:104ED30074E7F0A3741CF0A37403F0A3741DF090A3
:104EE3001EBB7411F0A3742CF0A3744DF0A3742BA8
:104EF300F0901D33742CF0A37425F0901D30E04422
:104F03000102420A1225DA02470674F612041D74DE
:104F1300FE1209C3901D2C124F5B60077A2C7B1D78
:104F23001225F2901D32E4F0900B97124F5B602034
:104F33008007AA18AB191225F2901D2BE0F9121164
:104F4300C48B09A909851882851983123BBD70E2B8
:104F53007402025EF7901CCC12654AE8492274F78A
:104F630012041DE9FA7B00901D2BE0F91211EE02E9
:104F73004BF174F712041D74F01209C3EAFCEBFD44
:104F8300E9FE8A828B83E0F87444125090342FF543
:104F930083E493C0E07401120C11D0E0F0640B7051
:104FA3000DE98A828B83A3F012265802508BE0709E
:104FB3000302508B640C600302507C741A6E700BF6
:104FC3007404120C11E4F0A302507B7404120C114C
:104FD30012533FEA2432125848C0E07403120C11F2
:104FE300D0E0126275120BE27406120C11120BD68A
:104FF3008C828D83A3A3A3A3A3A3A3A3A312654618
:10500300740A120C11E8F0A3E9125095E0541060F1
:1050130009851882851983E48013EC2412125848F9
:10502300F89004F1E0C398851882851983F0E0C0F5
:10503300E0740C120C11D0E0F0EC2415125848C0A7
:10504300E0740D120C11D0E0F0EC2416125848C095
:10505300E0740E120C11D0E0F0EC2417125848C083
:10506300E0740F120C11D0E0125095A3E0540160CC
:10507300087401120C117411F07402120C11EEF089
:10508300740112099B121A1C741002399C28F582B0
:10509300E422F0EC12509E3DF58322240EF582E4C7
:1050A30022C082C083901D32E064037004790180C2
:1050B30002790002470674F712041D901D32E012B4
:1050C300513474B928F582741E39F5831255C6C25A
:1050D300E7F012513BA3E493FE25E0FCE433FD74B7
:1050E300B92CF582741E3D125952EC4D6005EE90B9
:1050F3001D32F08A828B83E025E0FCE433FDE82C4B
:10510300F582E93DF583E493FCC4540F25E0F8747C
:1051130041125090341DF583124F5B7005122646E1
:10512300800CEC540F12513B12465E120595024B54
:10513300F125E0F8E433F92225E0FCE82CF582E4DC
:1051430039F5832274F212041D74FE1209C3890B0C
:105153008A088B091251E61251D7601A125BF1F5D6
:105163000A78081208F91251F32402125948120955
:105173002B12517F80031252050235ECAA0CEFFB70
:10518300901D2BE0F91211B82274F012041D74FE65
:105193001209C3890B8A0E8B0F1251E6F5081251BF
:1051A300D76027125BF1A808EA28123EDF850E08B4
:1051B300850F09F50A78081208F91251F3125946B6
:1051C30012092B12517F79008005125205791A7446
:1051D30002022FD9FA7B001211AC8A0C8B0DAF0D92
:1051E300EA4F22742329F582E4342FF583E49322D2
:1051F300A80B742E125090342FF583E493FC7D009A
:10520300EA22851882851983E50BF0791AAA18AB6F
:10521300191225C222C082C083E9901D2B02420AC3
:1052230074F612041D74FE1209C3EAFEEBFFEA547E
:105233002070308039A8A8C2AF901CCBE014124173
:10524300378A828B8312532C901D2E12533F1225C3
:10525300CE851882851983E0641560077A2E7B1D3D
:105263001225F27AC57B1C1211D6EA4B70C7EF5494
:1052730080700C8016901D2EEAF0A3EB125352900F
:105283001D2BE0F91211C4EA4B70EAEE5410600BC7
:10529300851882851983742D12535EEEA2E0500B9C
:1052A300851882851983742412535EEE5402600BB1
:1052B300851882851983742512535EEE5404600B9E
:1052C300851882851983742612535EEE5408600B89
:1052D300851882851983742812535EEE5440600D3D
:1052E3007401120C11125345742C12535EEE548048
:1052F300600D7401120C11125345742F12535E90FA
:105303001D2C124F5B601BA8A8C2AF901D2C124529
:1053130092901D2CE4F0A3124137A3EAF0A3E91203
:1053230053527A007B00024F5312533022E0851808
:1053330082851983F022A3A3A3A3A3A3EAF0A3EB7B
:10534300F022E412534A22F085188285198322F051
:105353001225CE7A2E7B1D1225F222123E831225B0
:10536300CE22C082C083901D2E125FB4687002EB00
:10537300697007901D2EE4F0A3F002470674F7123C
:10538300041DEAFEEBFFEA4F7003120D68A2AFE4BF
:1053930033F508C2AF8E828F83124F5B6028E824F7
:1053A300FBFAE934FFFB901D2E125954E86C70028E
:1053B300E96D7007901D2EE4F0A3F08E828F83E4D5
:1053C300F0A3F012124E023808C082C083901D551C
:1053D300743AF0A37426F0A3744CF0A37426F0A3DC
:1053E3007452F0A37426F0A3740EF0A37425F0A3F3
:1053F3007458F0A37426F0A37408F0A37425F0A3E3
:105403007414F0A37425F0901D637488F0A37426BC
:10541300F0A3745EF0A37426F0A37464F0A374265F
:10542300F0A37470F0A37426F0A3746AF0A3742637
:10543300F0901D54E402420AC082C0839004DEE06F
:1054430064FE7003A3E0F470097CD57D0412132C71
:10545300801C8A828B83A3A3A3A3A3A3A3A3740205
:10546300F09004DE1265468A828B831247E6024778
:1054730006C082C0839004E8C3E094FEA3E094FFD7
:105483004004790380027902024706C082C0831276
:1054930055CF8C828D83125584687039740268707D
:1054A3001C8A828B831254DDE06870298A828B8385
:1054B300A31254DDA3E068701C7901801A74036899
:1054C3007013EC2405FC50010DEA2405FA50010B7E
:1054D30012133280027900024706A3A3A3A3A3E019
:1054E300F88C828D83A3A3A3A3A32274F612041DB5
:1054F3007E00740A120C11E0125578FF8A828B83A6
:10550300A3A3A3A3A3A3A3A3E06F706474026F7008
:105513004E8A828B83C082C08388828983A3A3A39C
:10552300A3A3E0F50888828983A3A3A3A3A3A3E08D
:10553300FBAA08D083D082E06A7003A3E06B7030CB
:1055430088828983A3A3A3E0FA88828983A3A3A380
:10555300A3E0F9EA6C7002E96D70157E01801174A5
:10556300036F700CE82405FCE439FD121332E9FEE5
:10557300EEF9025EFAF8A3E0F98882F58312558406
:1055830022A3E01313543F540322C082C0838A82B0
:105593008B83A3A3A3A3A3A3A3A3E0640270169086
:1055A30004DE1255C6687003A3E0697004790180B4
:1055B3000F7900800BEAFCEBFD7AD57B04121326EE
:1055C30002470612654A8A828B83E0228A828B8392
:1055D300125584F82274F012041D74FC1209C3E9F5
:1055E300851882851983F07402120C11ECF0A3ED77
:1055F300F08A0A8B0B7508007402120C11E0240860
:10560300125848C0E07401120C11D0E0125898A24D
:10561300E75008750EFF750FFF800A9004E4E0F56C
:105623000EA3E0F50F851882851983E0C2E71258AF
:105633009D5420600712586A7408800412586AE463
:1056430012589D54046007125875748080051258CF
:1056530075741012589D54106006125850E4800B54
:105663009004F1E0C0E0125850D0E012589DA2E03F
:1056730050037508205408600674104508F5088A1D
:10568300828B83A3A3E024FFFEA3E034FFFFEA128F
:10569300585BC39402E0400F640B6009E0148E82F0
:1056A3008F8312588E74034508F508750900900519
:1056B30004E0640170118A828B83A3A3A3A3E0C3D4
:1056C30094674003750910851882851983E0F50CEA
:1056D300750D00740E780C120AEFE50D4509F509F6
:1056E300E06402701B9004E9E08E828F83F09004E3
:1056F300E8E0C0E0123563D0E0F0EE24FEFE801C4B
:10570300E06403701DEE24F9FEEF34FFFF7CF87DA7
:1057130004EEFAEFFB121338EE24FF1EEF34FFFF03
:105723008003E0602F7401120C11E06018741412EE
:105733000C11E0650E7004A3E0650F70087440451A
:1057430008F508800F8E828F83E50FF0123563E52D
:105753000E1258847401120C11E0F50C750D0074CF
:105763000A780C120AEFE50D4509F509E0640270A9
:10577300237402120C11125FAF8E828F83F07402B6
:10578300120C11123695C0E0123563D0E0F0EE240E
:10579300FEFE8020E064037021EE24F9FEEF34FF67
:1057A300FF7402120C11125954EEFAEFFB12133864
:1057B300EE24FF1EEF34FFFF8003E0601C7414121D
:1057C3000C11A3E08E828F83F07414120C11E0C0CD
:1057D300E0123563D0E0125884EEF8EFF9E824FFC5
:1057E3001EE934FFFFE50A12585B70059004D4806C
:1057F300039004E0E0FA04F0EA88828983125D5C96
:10580300E50912588E8E82F583E508F0E50A240433
:10581300F8E4350BF9E50A2402FAE4350BFBEEFC58
:105823008A828B83E0F50888828983E02508C39CFC
:10583300125E77EEF0A3EFF0850A82850B83A3E473
:10584300F0F9022FD7F582E43DF583E022EA241232
:10585300F582E4350BF58322125864350BF583E0AA
:1058630022240DF582E422EA2410F582E4350BF5B7
:105873008322EA12587E350BF583222411F582E444
:1058830022F0EE24FEFEEF34FFFF22F0EE24FF1E93
:10589300EF34FFFF2212534AE022F0EA12509E3502
:1058A3000BF583E02274F112041D74FE1209C38503
:1058B3001882851983ECF0A3EDF0890B8A0E750A23
:1058C3001A7415120C111267D91224AE8A0C8B0D9F
:1058D300AE0CAF0DEA4F605A7413120C11125FB481
:1058E3001259B3F0A3E91249CDE50BF0750A00781C
:1058F300081208F97C0B7D00EA12594612092B7431
:1059030011120C111207487402120C11125954A9E6
:105913000E12355912092BE9F50A7016E50B24F915
:10592300600314700612379BD2E5F0EEFAEFFB1218
:105933002502A90A740212092B7F0702067B7C0B3E
:105943007D00EE241BFAE43FFB12117C740322F565
:1059530083E0FCA3E0FD2274F612041D74F7120920
:10596300C3EAFEEBFF7801EA2432124AE3600278CD
:1059730005EA1259B31249CA7404125D4FAA18AB4F
:105983001912132CEE242F1249A024311259B812E4
:1059930008FD74021209A379031A1A12355B12095E
:1059A3002BE9F5087007EEFAEFFB122502025EF30E
:1059B300123163E822F582E43F123156124E9D0400
:1059C300F078082274F212041D8A088B09ECFEEDAC
:1059D300FF8A828B837405F0EC125DE812613CF060
:1059E300EA2403F50AE43509F50B850A82F583E019
:1059F300F50CA3E0F50DEC2425F582E43FF58312C5
:105A03000BE2E50C12587E350DF583120BD6EC1222
:105A13005D48AA0CAB0D12132C850A82850B8312E9
:105A23006859125BAD125BD0125339EE242F124A20
:105A3300E3C0E0125BB6D0E0125BFC2415F582E410
:105A430038F583E4125BFC1245B7E4125BE4850A84
:105A530082850B83E02416FAA3E03400FB1226347C
:105A63008E828F83A3A3A3A3A3A3A3E0C0E0850A8D
:105A730082850B831243FC12586438F583D0E012FD
:105A83005BDBFAA3E0FB850A82850B83126546E89C
:105A9300240BFCE439FD8A828B83E08C828D831294
:105AA3005BF78A828B83A3E0F50B8C828D83A3E063
:105AB300450B125E6FA3E0FCEA2403FA50010BECE2
:105AC300A2E7E433C0E0E8240FF582E439F583D09C
:105AD300E0F074075C600478018002780075F003DD
:105AE30074075CA428F8EA28FAE43BFBE5082405DC
:105AF300F8E43509F98A828B83123158125E6FAA52
:105B030082AB83850882850983125339888289830E
:105B1300E0F50A25E0540EFCE50AC4540FF50A75B6
:105B23000B007403780A120AEFE50A5438F8EC28DC
:105B3300F8EA28F8E43BF9850882850983A3A3A33F
